:020000040800F2
:1000000000800020753B0008673100086931000856
:100010006B3100086D3100086F31000800000000EE
:100020000000000000000000000000007131000826
:1000300073310008000000007531000877310008B6
:10004000C53B0008C53B000879310008C53B0008E6
:10005000C53B0008C53B0008C53B0008C53B000880
:10006000C53B0008C53B0008C53B000889310008B6
:10007000C53B0008C53B0008C53B0008C53B000860
:10008000C53B0008C53B0008C53B0008C53B000850
:10009000C53B0008C53B0008C53B0008C53B000840
:1000A000C53B0008C53B0008C53B0008C53B000830
:1000B000C53B0008C53B0008C53B0008C53B000820
:1000C000C53B0008C53B0008C53B0008C53B000810
:1000D000C53B000899310008A9310008C53B00085C
:1000E000C53B0008C53B0008D9310008C53B0008E6
:1000F000C53B0008C53B0008C53B0008C53B0008E0
:10010000C53B0008C53B0008E9310008C53B0008B5
:10011000C53B0008C53B0008C53B0008C53B0008BF
:10012000C53B0008C53B0008C53B0008C53B0008AF
:08013000C53B0008C53B0008B7
:1001400010B5054C237833B9044B13B10448AFF311
:1001500000800123237010BD280300200000000050
:10016000D8ED000808B5034B1BB103490348AFF3B2
:10017000008008BD000000002C030020D8ED00081E
:1001800001F0FF01102A2BDB10F0070F08D010F848
:10019000013B013A8B422DD010F0070F42B3F6D14C
:1001A000F0B441EA012141EA014122F007047FF065
:1001B00000070023F0E80256083C85EA010586EABC
:1001C000010685FA47F5A3FA87F586FA47F6A5FAF8
:1001D00087F68EB9EED1F0BC01F0FF0102F0070204
:1001E00032B110F8013B013A83EA010313B1F8D1AF
:1001F0000020704701387047002D06BF3546033890
:10020000073815F0010F07D1013015F4807F02BFC8
:10021000013015F4C03F0130F0BC0138704700BF19
:10022000034613F8012B002AFBD1181A0138704736
:1002300081F0004102E000BF83F0004330B54FEA97
:1002400041044FEA430594EA050F08BF90EA020F04
:100250001FBF54EA000C55EA020C7FEA645C7FEA97
:10026000655C00F0E2804FEA5454D4EB5555B8BFBA
:100270006D420CDD2C4480EA020281EA030382EA2B
:10028000000083EA010180EA020281EA0303362DBD
:1002900088BF30BD11F0004F4FEA01314FF4801C90
:1002A0004CEA113102D0404261EB410113F0004FA2
:1002B0004FEA03334CEA133302D0524263EB430359
:1002C00094EA050F00F0A780A4F10104D5F1200EF7
:1002D0000DDB02FA0EFC22FA05F2801841F1000152
:1002E00003FA0EF2801843FA05F359410EE0A5F126
:1002F00020050EF1200E012A03FA0EFC28BF4CF057
:10030000020C43FA05F3C01851EBE37101F000450C
:1003100007D54FF0000EDCF1000C7EEB00006EEB19
:100320000101B1F5801F1BD3B1F5001F0CD34908A3
:100330005FEA30004FEA3C0C04F101044FEA4452FA
:1003400012F5800F80F09A80BCF1004F08BF5FEA81
:10035000500C50F1000041EB045141EA050130BD61
:100360005FEA4C0C404141EB0101013C28BFB1F573
:10037000801FE9D291F0000F04BF01460020B1FABE
:1003800081F308BF2033A3F10B03B3F120020CDA91
:100390000C3208DD02F1140CC2F10C0201FA0CF06F
:1003A00021FA02F10CE002F11402D8BFC2F1200CD4
:1003B00001FA02F120FA0CFCDCBF41EA0C0190408A
:1003C000E41AA2BF01EB0451294330BD6FEA0404D3
:1003D0001F3C1CDA0C340EDC04F11404C4F12002BE
:1003E00020FA04F001FA02F340EA030021FA04F3D0
:1003F00045EA030130BDC4F10C04C4F1200220FA27
:1004000002F001FA04F340EA0300294630BD21FA64
:1004100004F0294630BD94F0000F83F4801306BF2A
:1004200081F480110134013D4EE77FEA645C18BF1E
:100430007FEA655C29D094EA050F08BF90EA020FB5
:1004400005D054EA000C04BF1946104630BD91EAAD
:10045000030F1EBF0021002030BD5FEA545C05D1B0
:100460004000494128BF41F0004130BD14F58004EF
:100470003CBF01F5801130BD01F0004545F0FE4163
:1004800041F470014FF0000030BD7FEA645C1ABF98
:10049000194610467FEA655C1CBF0B46024650EACF
:1004A000013406BF52EA033591EA030F41F40021FB
:1004B00030BD00BF90F0000F04BF0021704730B581
:1004C0004FF4806404F132044FF000054FF0000156
:1004D00050E700BF90F0000F04BF0021704730B517
:1004E0004FF4806404F1320410F0004548BF4042EC
:1004F0004FF000013EE700BF42004FEAE2014FEA41
:1005000031014FEA02701FBF12F07F4393F07F4F1B
:1005100081F06051704732F07F4208BF704793F01E
:100520007F4F04BF41F40021704730B54FF4607431
:1005300001F0004521F000411CE700BF50EA010234
:1005400008BF704730B54FF000050AE050EA0102DD
:1005500008BF704730B511F0004502D5404261EB4D
:1005600041014FF4806404F132045FEA915C3FF48E
:10057000D8AE4FF003025FEADC0C18BF03325FEA2B
:10058000DC0C18BF033202EBDC02C2F1200300FADC
:1005900003FC20FA02F001FA03FE40EA0E0021FA01
:1005A00002F11444BDE600BF70B54FF0FF0C4CF4EF
:1005B000E06C1CEA11541DBF1CEA135594EA0C0FA1
:1005C00095EA0C0F00F0DEF82C4481EA030621EADC
:1005D0004C5123EA4C5350EA013518BF52EA033517
:1005E00041F4801143F4801338D0A0FB02CE4FF0C9
:1005F0000005E1FB02E506F00042E0FB03E54FF0F9
:100600000006E1FB03569CF0000F18BF4EF0010EF0
:10061000A4F1FF04B6F5007F64F5407404D25FEAEC
:100620004E0E6D4146EB060642EAC62141EA55519F
:100630004FEAC52040EA5E504FEACE2EB4F1FD0CE1
:1006400088BFBCF5E06F1ED8BEF1004F08BF5FEA5F
:10065000500E50F1000041EB045170BD06F0004611
:1006600046EA010140EA020081EA0301B4EB5C04BE
:10067000C2BFD4EB0C0541EA045170BD41F48011B6
:100680004FF0000E013C00F3AB8014F1360FDEBFDB
:10069000002001F0004170BDC4F10004203C35DAB7
:1006A0000C341BDC04F11404C4F1200500FA05F33A
:1006B00020FA04F001FA05F240EA020001F00042DB
:1006C00021F0004110EBD37021FA04F642EB060151
:1006D0005EEA430E08BF20EAD37070BDC4F10C047B
:1006E000C4F1200500FA04F320FA05F001FA04F23F
:1006F00040EA020001F0004110EBD37041F100012B
:100700005EEA430E08BF20EAD37070BDC4F1200535
:1007100000FA05F24EEA020E20FA04F301FA05F29D
:1007200043EA020321FA04F001F0004121FA04F245
:1007300020EA020000EBD3705EEA430E08BF20EA15
:10074000D37070BD94F0000F0FD101F0004640004F
:1007500041EB010111F4801F08BF013CF7D041EAD1
:10076000060195F0000F18BF704703F000465200D5
:1007700043EB030313F4801F08BF013DF7D043EAA6
:100780000603704794EA0C0F0CEA135518BF95EA5C
:100790000C0F0CD050EA410618BF52EA4306D1D1E3
:1007A00081EA030101F000414FF0000070BD50EA02
:1007B000410606BF1046194652EA430619D094EA8C
:1007C0000C0F02D150EA013613D195EA0C0F05D176
:1007D00052EA03361CBF104619460AD181EA0301CA
:1007E00001F0004141F0FE4141F470014FF0000082
:1007F00070BD41F0FE4141F4780170BD70B54FF01D
:10080000FF0C4CF4E06C1CEA11541DBF1CEA13559C
:1008100094EA0C0F95EA0C0F00F0A7F8A4EB05047E
:1008200081EA030E52EA03354FEA013100F0888075
:100830004FEA03334FF0805545EA131343EA12633E
:100840004FEA022245EA111545EA10654FEA0026F3
:100850000EF000419D4208BF964244F1FD0404F5AC
:10086000407402D25B084FEA3202B61A65EB030508
:100870005B084FEA32024FF480104FF4002CB6EBC5
:10088000020E75EB030E22BFB61A754640EA0C0045
:100890005B084FEA3202B6EB020E75EB030E22BF85
:1008A000B61A754640EA5C005B084FEA3202B6EBC6
:1008B000020E75EB030E22BFB61A754640EA9C0085
:1008C0005B084FEA3202B6EB020E75EB030E22BF55
:1008D000B61A754640EADC0055EA060E18D04FEA13
:1008E000051545EA16754FEA06164FEAC30343EAB3
:1008F00052734FEAC2025FEA1C1CC0D111F4801F80
:100900000BD141EA00014FF000004FF0004CB6E778
:1009100011F4801F04BF01430020B4F1FD0C88BF17
:10092000BCF5E06F3FF6AFAEB5EB030C04BFB6EB22
:10093000020C5FEA500C50F1000041EB045170BD15
:100940000EF0004E4EEA113114EB5C04C2BFD4EB42
:100950000C0541EA045170BD41F480114FF0000EC6
:10096000013C90E645EA060E8DE60CEA135594EA42
:100970000C0F08BF95EA0C0F3FF43BAF94EA0C0F45
:100980000AD150EA01347FF434AF95EA0C0F7FF4BA
:1009900025AF104619462CE795EA0C0F06D152EA0E
:1009A00003353FF4FDAE1046194622E750EA4106F2
:1009B00018BF52EA43067FF4C5AE50EA41047FF403
:1009C0000DAF52EA43057FF4EBAE12E74FF0FF3C68
:1009D00006E000BF4FF0010C02E000BF4FF0010C39
:1009E0004DF804CD4FEA410C7FEA6C5C4FEA430CB2
:1009F00018BF7FEA6C5C1BD001B050EA410C0CBF01
:100A000052EA430C91EA030F02BF90EA020F002062
:100A1000704710F1000F91EA030F58BF994208BFC9
:100A200090422CBFD8176FEAE37040F00100704786
:100A30004FEA410C7FEA6C5C02D150EA013C07D1DD
:100A40004FEA430C7FEA6C5CD6D152EA033CD3D028
:100A50005DF8040B704700BF8446104662468C4622
:100A60001946634600E000BF01B5FFF7B7FF002855
:100A700048BF10F1000F01BD4DF808EDFFF7F4FF7E
:100A80000CBF012000205DF808FB00BF4DF808ED09
:100A9000FFF7EAFF34BF012000205DF808FB00BF2C
:100AA0004DF808EDFFF7E0FF94BF012000205DF84E
:100AB00008FB00BF4DF808EDFFF7CEFF94BF012003
:100AC00000205DF808FB00BF4DF808EDFFF7C4FFFC
:100AD00034BF012000205DF808FB00BF4FEA410C45
:100AE0007FEA6C5C02D150EA013C0AD14FEA430C28
:100AF0007FEA6C5C02D152EA033C02D14FF0000065
:100B000070474FF0010070474FEA410212F50012A2
:100B100015D211D56FF47873B3EB625212D94FEA44
:100B2000C12343F0004343EA505311F0004F23FA2E
:100B300002F018BF404270474FF00000704750EA83
:100B4000013005D111F0004008BF6FF00040704740
:100B50004FF00000704700BF80F0004002E000BF8F
:100B600081F0004142001FBF5FEA410392EA030F98
:100B70007FEA226C7FEA236C6AD04FEA1262D2EBE2
:100B80001363C1BFD218414048404140B8BF5B42E7
:100B9000192B88BF704710F0004F40F4000020F080
:100BA0007F4018BF404211F0004F41F4000121F096
:100BB0007F4118BF494292EA030F3FD0A2F10102E0
:100BC00041FA03FC10EB0C00C3F1200301FA03F11E
:100BD00000F0004302D5494260EB4000B0F5000F41
:100BE00013D3B0F1807F06D340084FEA310102F100
:100BF0000102FE2A51D2B1F1004F40EBC25008BFB2
:100C000020F0010040EA03007047490040EB00007B
:100C1000013A28BFB0F5000FEDD2B0FA80FCACF17C
:100C2000080CB2EB0C0200FA0CF0AABF00EBC250A9
:100C300052421843BCBFD0401843704792F0000F97
:100C400081F4000106BF80F400000132013BB5E7EA
:100C50004FEA41037FEA226C18BF7FEA236C21D060
:100C600092EA030F04D092F0000F08BF08467047C5
:100C700090EA010F1CBF0020704712F07F4F04D193
:100C8000400028BF40F00040704712F100723CBFA6
:100C900000F50000704700F0004343F0FE4040F4D0
:100CA000000070477FEA226216BF08467FEA23638E
:100CB0000146420206BF5FEA412390EA010F40F479
:100CC000800070474FF0000304E000BF10F00043C5
:100CD00048BF40425FEA000C08BF704743F09643AC
:100CE00001464FF000001CE050EA010208BF7047C7
:100CF0004FF000030AE000BF50EA010208BF70474E
:100D000011F0004302D5404261EB41015FEA010C62
:100D100002BF84460146002043F0B64308BFA3F15A
:100D20008053A3F50003BCFA8CF2083AA3EBC2533C
:100D300010DB01FA02FC634400FA02FCC2F120025B
:100D4000BCF1004F20FA02F243EB020008BF20F092
:100D50000100704702F1200201FA02FCC2F12002F8
:100D600050EA4C0021FA02F243EB020008BF20EAED
:100D7000DC7070474FF0FF0C1CEAD0521EBF1CEA1B
:100D8000D15392EA0C0F93EA0C0F6FD01A4480EA09
:100D9000010C400218BF5FEA41211ED04FF00063F2
:100DA00043EA501043EA5111A0FB01310CF000401E
:100DB000B1F5000F3EBF490041EAD3715B0040EA44
:100DC000010062F17F02FD2A1DD8B3F1004F40EB14
:100DD000C25008BF20F00100704790F0000F0CF0E7
:100DE000004C08BF49024CEA502040EA51207F3AAB
:100DF000C2BFD2F1FF0340EAC250704740F4000086
:100E00004FF00003013A5DDC12F1190FDCBF00F076
:100E100000407047C2F10002410021FA02F1C2F124
:100E2000200200FA02FC5FEA310040F1000053EAC0
:100E30004C0308BF20EADC70704792F0000F00F00E
:100E4000004C02BF400010F4000F013AF9D040EA14
:100E50000C0093F0000F01F0004C02BF490011F4A8
:100E6000000F013BF9D041EA0C018FE70CEAD153A6
:100E700092EA0C0F18BF93EA0C0F0AD030F0004C26
:100E800018BF31F0004CD8D180EA010000F00040DA
:100E9000704790F0000F17BF90F0004F084691F098
:100EA000000F91F0004F14D092EA0C0F01D14202D2
:100EB0000FD193EA0C0F03D14B0218BF084608D19B
:100EC00080EA010000F0004040F0FE4040F40000E5
:100ED000704740F0FE4040F4400070474FF0FF0C78
:100EE0001CEAD0521EBF1CEAD15392EA0C0F93EABF
:100EF0000C0F69D0A2EB030280EA010C49024FEA11
:100F0000402037D04FF0805343EA111143EA1013C9
:100F10000CF000408B4238BF5B0042F17D024FF481
:100F2000000C8B4224BF5B1A40EA0C00B3EB510F5C
:100F300024BFA3EB510340EA5C00B3EB910F24BF45
:100F4000A3EB910340EA9C00B3EBD10F24BFA3EBCA
:100F5000D10340EADC001B0118BF5FEA1C1CE0D192
:100F6000FD2A3FF650AF8B4240EBC25008BF20F045
:100F7000010070470CF0004C4CEA50207F32C2BF99
:100F8000D2F1FF0340EAC250704740F400004FF036
:100F90000003013A37E792F0000F00F0004C02BF67
:100FA000400010F4000F013AF9D040EA0C0093F031
:100FB000000F01F0004C02BF490011F4000F013B8B
:100FC000F9D041EA0C0195E70CEAD15392EA0C0FF3
:100FD00008D142027FF47DAF93EA0C0F7FF470AF2B
:100FE000084676E793EA0C0F04D14B023FF44CAF6E
:100FF00008466EE730F0004C18BF31F0004CCAD103
:1010000030F000427FF45CAF31F000437FF43CAF3E
:101010005FE700BF53B94AB9002908BF00281CBFC9
:101020004FF0FF314FF0FF3000F088B9ADF1080C00
:101030006DE904CE00F006F8DDF804E0DDE90223F6
:1010400004B070472DE9F047089D8E460446884657
:10105000002B4AD18A42174662D9B2FA82F64EB1C3
:10106000C6F1200301FA06F820FA03F3B74043EA79
:101070000808B4404FEA174E1FFA87FCB8FBFEF190
:10108000230C0EFB118843EA084301FB0CF29A4241
:1010900009D9FB1801F1FF3080F0EA809A4240F252
:1010A000E78002393B449A1AA3B2B2FBFEF00EFB72
:1010B000102243EA024300FB0CFC9C4509D9FB18B3
:1010C00000F1FF3280F0D6809C4540F2D3803B4453
:1010D000023840EA0140A3EB0C0300211DB1F340AC
:1010E0000022C5E90032BDE8F0878B4205D90DB179
:1010F000C5E9000100210846F5E7B3FA83F10029AC
:1011000046D1734502D3824200F20581841A6EEB08
:10111000030201209046002DE5D0C5E90048E2E732
:10112000002A00F09080B2FA82F6002E40F0A480EF
:101130008A1A030C4FEA174E80B2BCB20121B2FBEF
:10114000FEFC0EFB1C2243EA024304FB0CF29A4213
:1011500007D9FB180CF1FF3802D29A4200F2E08066
:10116000C4469B1AB3FBFEF20EFB123340EA034364
:1011700002FB04F49C4207D9FB1802F1FF3002D2B3
:101180009C4200F2CA8002461B1B42EA0C40A5E7C3
:10119000C1F120068B4022FA06F71F430EFA01F434
:1011A00020FA06F32EFA06FE4FEA1749234300FA07
:1011B00001F81FFA87FCBEFBF9F01C0C09FB10EECE
:1011C00044EA0E4400FB0CFEA64502FA01F209D9DE
:1011D0003C1900F1FF3A80F09C80A64540F29980CE
:1011E00002383C44A4EB0E041FFA83FEB4FBF9F36F
:1011F00009FB13444EEA044403FB0CFCA44508D944
:101200003C1903F1FF3E80F08280A4457FD9023B68
:101210003C4443EA0040A4EB0C04A0FB02EC644510
:101220007346E14662D35FD05DB1B8EB030264EB75
:10123000090404FA06F622FA01F31E43CC40C5E97C
:10124000006400214FE7B1FBF2FC010C41EA0E41C2
:1012500080B240EA01423B4638463C46B846BE466C
:101260002026B1FBF7F1A2EB080241EA0C4166E748
:10127000014618E710462CE7C6F120022EFA02F3C9
:10128000B740B14020FA02F24FEA174E0A43B3FBCF
:10129000FEF8BCB20EFB1833110C41EA034108FB07
:1012A00004F9B04089454FEA104380B23ED979181D
:1012B00008F1FF3C01D289451FD8A1EB0901B1FB20
:1012C000FEF909FB04F80EFB191192B242EA014241
:1012D000424529D2BA1809F1FF31C4D24245C2D2DF
:1012E000A9F102013A44BEE7F0459DD2BEEB0203EC
:1012F0006CEB070C0138E14696E7A7EB0909494476
:10130000A8F1020CB1FBFEF909FB04F8DBE7734618
:101310007FE7504666E70846FDE63B44023A33E77E
:10132000ACF1020C3B441CE749469CE7A1EB0901E8
:10133000C446B1FBFEF909FB04F8C4E7704700BFDF
:10134000C8B138B505460C4C642306220B4920462B
:1013500007F0A5FA2846FEF763FF4FF47A7382B2CE
:101360002946204607F09BFA6423022204492046BE
:1013700007F095FA38BD7047A81100201CEE000850
:1013800064F3000830B58FB004462548FFF7D8FF56
:101390008CB1244920460BF0DFFC054618B32249E6
:1013A00020460BF0D9FCF0B1204920460BF0D4FCCC
:1013B000B8B10A3004E01E48FFF7C2FF24E0013054
:1013C0000378202BFBD03A2BF9D00AF047FDC3B2AB
:1013D000184A322101A80BF051FB01A8FFF7B0FF1A
:1013E00012E00023F4E7BDB1134920460BF0B4FC32
:1013F00020B9124920460BF0AFFC38B11048FFF776
:101400009FFF204603F056FA0FB030BD0D4920462D
:101410000BF0A2FC0028F1D10B48FFF791FFF3E796
:1014200024EE00083CEE000844EE000848EE0008F8
:1014300030EE000854EE000880EE000874EE00085C
:101440007CEE000878EE000884EE000838B501F064
:1014500059FD58B9674B02221A70674B1C78052C4E
:1014600007D8DFE804F05F2064B9BD076348FFF7E1
:1014700067FF38BD624B01221A7001F02BFC614BF3
:101480001B78DBB2012B07D05B4B03221A700021C3
:1014900002200AF0FBF8ECE70220574B18700021FD
:1014A0000AF0F4F8E5E758480BF0E0FA574800F086
:1014B00087FE60BB56480BF0D9FA564B01221A70D2
:1014C00000225549554801F0B3FA88B954480BF049
:1014D000CDFA544B00221A7053480BF0C7FA01F0B2
:1014E000F9FB52480BF0C2FA434B05221A7014E084
:1014F0004F480BF0BBFA4B4A13780133DBB2137041
:10150000032B02D03C4B1C7007E00424FAE7494847
:101510000BF0ACFA384B01221A70002102200AF0BD
:10152000B5F8A6E7002102200AF0B0F8A1E7344B95
:101530001B78C3B9334B1B78DBB2012B19D03E4A61
:101540001368013B136013B92B4A052111702D4A12
:101550001278D2B2012A01D0002B8ADD00210220AC
:101560000AF094F885E701F0B5FB254B00221A70CC
:10157000E0E70021234B1970284D85F857122F4CB6
:1015800040F2632220460BF0A9FB2846FEF748FEF6
:1015900082B22946A4F1650001F06AFB2848FFF7F2
:1015A000CFFE284920460BF0D7FB58B126492046EC
:1015B0000BF0D2FB30B12548FFF7C2FE204603F006
:1015C00079F905E02248FFF7BBFE1C48FFF7DAFE79
:1015D000094B02221A70B2E7074B05221A7048E73E
:1015E0000021104B1970044B197002200AF04EF8BC
:1015F0003FE700BF7B0D0020A000002090EE000818
:10160000120600208A0D0020A4EE00080000002031
:10161000ECEE0008110600203C000020140600201B
:101620000CEF00081006002034EF000878EF0008E7
:10163000B8EF0008DCEF000844030020AD030020F1
:1016400004F000083CEE000880EE000810F00008EE
:101650001CF00008C8B138B505460C4C64230622BE
:101660000B49204607F01BF92846FEF7D9FD4FF439
:101670007A7382B22946204607F011F964230222C8
:101680000449204607F00BF938BD7047A811002027
:101690009CF0000864F30008524B1B8840F2FE32B5
:1016A000934204D8591C4F4A11804F4AD0544F4B93
:1016B0001B88FE2B00F28E800D2807D00A2805D04B
:1016C000591C4A4A11804A4AD0547047002B00F0F6
:1016D000858030B5E5B046480022C25445490BF03C
:1016E0003BFB88B37B2142480BF000FB60B37D21BC
:1016F0003F480BF01BFB38B33F48FFF7ABFF3F4CB5
:101700004FF4C872002120460BF0E8FA384D40F241
:101710008F12294620460BF0F6FA394B01221A7037
:101720007B2128460BF0E2FA04467D2128460BF087
:10173000FDFA34B128B1844203D2051B0135C72D0F
:1017400007D9284B00221A80284B00221A8065B046
:1017500030BDC822002168460BF0C0FA2A46214657
:1017600068460BF086FB00240DF805402548FFF77E
:1017700071FF2346224606E002F5C870684400F86F
:10178000C81C01320133AB4213D2C62A11D81DF84E
:1017900003105C29F0D1581C1DF80040222CEBD11D
:1017A00002F5C8736B44222103F8C81C03460132BA
:1017B000E8E702F5C8730DEB0302002302F8C83C0A
:1017C00032A8FFF747FF1048FFF744FF32A803F0A5
:1017D00071F8B6E7054B00221A807047034B0022D0
:1017E0001A8070476C08002070080020700C0020E0
:1017F000740C0020A4F00008B0F0000814060020CB
:101800008A0D0020C4F00008D4F000080B4A1368C9
:101810000133136002680A4B9A4200D0704710B53A
:101820000446084B187828B901220649204607F0DB
:101830002DFA10BDFFF730FFF6E700BF740D002052
:1018400000800040780D002000B583B04FF0B04319
:101850009A6C42F004029A649A6C02F004020192BB
:10186000019A9A6C42F001029A649B6C03F00103A6
:101870000093009B002211460B2003F015FD0B2066
:1018800003F022FD03B05DF804FB00002DE9F043F6
:1018900089B00024039404940594069407944FF0AF
:1018A000B043DA6C42F00202DA64DA6C02F002024F
:1018B0000292029ADA6C42F00402DA64DA6C02F004
:1018C00004020192019ADA6C42F00102DA64DB6CE4
:1018D00003F001030093009B234F22464FF4324153
:1018E000384604F0CDF8214E22460821304604F057
:1018F000C7F84FF40243039301250495059402238E
:10190000069303A9384603F06BFF0823039304955D
:101910000594069403A9304603F062FF4FF00309D3
:10192000CDF80C904FF40418CDF81080059503A95C
:101930004FF0904003F054FF4FF44053039304954D
:101940000594CDF8189003A9384603F049FF4023C9
:101950000393CDF81080059503A9304603F040FFAE
:1019600009B0BDE8F08300BF00040048000800484B
:101970000021814212D282B00BE000BF019B0133F3
:101980000193019A41F209139A42F6D90131814239
:1019900002D200230193F4E702B07047704772B699
:1019A000FEE710B59AB04822002108A80BF096F97E
:1019B00000240194029403940494059406940794DB
:1019C00004F06CF84FF0B042D2F8903023F01803D6
:1019D000C2F8903002F58062136823F4C06343F4C8
:1019E00000731360136803F4C0630093009B242307
:1019F000089381230B93012310931194B023129326
:101A0000139408A804F0E4F970B94F23019300235C
:101A100002930393049305930793022101A804F012
:101A200009FD18B91AB010BDFFF7B9FFFFF7B7FFEE
:101A300000B5B7B003F096FBFFF7B3FFFFF726FF43
:101A400002F0C1F801F0CCFE01F05CFD01F0F4F908
:101A50002F4A0021022009F0E3FE0021022009F0B4
:101A600015FE20E02B480AF099FF02F0B7FE2A4B42
:101A700001221A7029480AF091FF274B1B78002B8E
:101A800042D1274A13680133136041F288329342EE
:101A900005D90021224B1960022009F0F7FD4FF013
:101AA000FF3009F027FE1F4B1B78DBB2012BE4D17E
:101AB000194B1B78002BE0D11B480AF06FFF01F097
:101AC00061FC029000240194052500950123174A2A
:101AD000C82104A80AF0D2FF23462A46012114484F
:101AE0000AF05CFF04A8FEF79BFB029401940094AB
:101AF00004AB82B20F49104800F0E0FE0028B1D1DB
:101B00000E480AF04BFFB0E702F063F8B9E700BFF8
:101B10004D140008E8F10008800D002010F20008C4
:101B20007C0D002011060020ECF0000820F10008D8
:101B300088F100086E00002014060020B8F10008AB
:101B400010B504460BF008F908B1002010BD104B89
:101B5000196820460BF000F908B10120F6E70D4B9B
:101B6000196820460BF0F8F808B10220EEE72B21A7
:101B700020460BF0BBF808B10320E7E7064B1968D5
:101B800020460BF0E9F808B10420DFE70520DDE787
:101B9000B4000020BC000020A40000202DE9F84380
:101BA00081460F46164613490BF0D6F8441D0A210C
:101BB00020460BF09BF8051B2A46214638460BF0C1
:101BC000A2F84FF0000807F805800B4948460BF0D3
:101BD000C3F800F109040A2120460BF087F8051B21
:101BE0002A46214630460BF08EF806F80580BDE8FF
:101BF000F88300BF3CF2000844F2000810B5044628
:101C0000FEF70EFB4FF4967382B22146014806F0B0
:101C100046FE10BDA81100200C4B1B68DA6912F0BB
:101C2000800F03D0DA6912F0200F08D0DA6912F0C1
:101C3000800F06D0DB6913F0200F04D1704700201D
:101C40007047012070470220F8E700BFA81100206C
:101C50002DE9F04105460E4690461C464FF416729B
:101C600000210D480BF03AF8FFF7D6FF0128FBD012
:101C700044B1012C0DD101222946084807F006F88D
:101C8000074606E0434632462946044806F069FE08
:101C900007463846BDE8F08114060020A811002050
:101CA0002DE9F04104460D461848FFF7A7FF28BB71
:101CB00006462B464FF47A625A212046FFF7C8FFAA
:101CC000074608B103281DD1114B19682046FFF7BC
:101CD00037FF804648B1831EDBB2012B14D905289B
:101CE0000DD1032F0BD13E4609E02B464FF47A620B
:101CF0005A212046FFF7ACFF464600E00426304656
:101D0000BDE8F0810646FAE70126F8E750F2000840
:101D1000C400002070B584B0054616460024009427
:101D200001940294ADF80C400A46174968460AF03F
:101D3000DBFE6846FFF762FFD8B90446334641F23E
:101D400088325A212846FFF783FF064608B1032848
:101D500013D10E4B19682846FFF7F2FE78B1831EA7
:101D6000DBB2012B0DD9052804D1032E02D1344654
:101D700000E00424204604B070BD0446FAE704469F
:101D8000F8E70124F6E700BF5CF20008C400002079
:101D900070B504460D461448FFF730FFD8B9064623
:101DA0002B4641F288325A212046FFF751FF054663
:101DB00008B1032812D10D4B19682046FFF7C0FE69
:101DC00070B1831EDBB2012B0CD9052804D1032D81
:101DD00002D12E4600E00426304670BD0646FBE7E1
:101DE0000646F9E70126F7E76CF20008C400002078
:101DF00070B504460D461448FFF700FFD8B90646F3
:101E00002B4641F288325A212046FFF721FF054632
:101E100008B1032812D10D4B19682046FFF790FE38
:101E200070B1831EDBB2012B0CD9052804D1032D20
:101E300002D12E4600E00426304670BD0646FBE780
:101E40000646F9E70126F7E780F20008C400002003
:101E500070B504460D461448FFF7D0FED8B90646C3
:101E60002B4641F2883278212046FFF7F1FE0546E5
:101E700008B1032812D10D4B19682046FFF760FE08
:101E800070B1831EDBB2012B0CD9052804D1032DC0
:101E900002D12E4600E00426304670BD0646FBE720
:101EA0000646F9E70126F7E794F20008C40000208F
:101EB000F0B58FB005460C4616461F46322200216B
:101EC00001A80AF00BFF33462246194901A80AF07F
:101ED0000BFE01A8FFF792FE28BB3B4641F2707251
:101EE00064212846FFF7B4FE064608B103281BD13B
:101EF000104B19682846FFF723FE04460E4B19685D
:101F00002846FFF71DFE204310F0FF000CD0831E73
:101F1000DBB2012B0AD9052801D0052004E0032EED
:101F200002D1304600E004200FB0F0BD0120FBE7F5
:101F3000A0F20008C0000020C400002070B58EB0E0
:101F400004460D4616463222002101A80AF0C6FEBC
:101F50002A46174901A80AF0C7FD01A8FFF74EFE5F
:101F6000D8B90546334641F288325A212046FFF758
:101F70006FFE064608B1032813D10E4B19682046A0
:101F8000FFF7DEFD78B1831EDBB2012B0DD90528EA
:101F900004D1032E02D1354600E0042528460EB0B8
:101FA00070BD0546FAE70546F8E70125F6E700BFEC
:101FB000B8F20008C4000020F0B595B004460D4604
:101FC00016461F464622002102A80AF087FE1A9BE9
:101FD0000193009733462A46174902A80AF084FD68
:101FE00002A8FFF70BFEE0B905469DF86C3041F200
:101FF000883278212046FFF72BFE064608B10328D9
:1020000013D10E4B19682046FFF79AFD78B1831E55
:10201000DBB2012B0DD9052804D1032E02D13546A0
:1020200000E00425284615B0F0BD0546FAE7054650
:10203000F8E70125F6E700BFDCF20008C400002045
:10204000F0B595B004460D4616461F4646220021BF
:1020500002A80AF043FE9DF86830019300973346CA
:102060002A46174902A80AF03FFD02A8FFF7C6FD5D
:10207000E0B905469DF86C3041F288325A2120467D
:10208000FFF7E6FD064608B1032813D10D4B19688A
:102090002046FFF755FD78B1831EDBB2012B0DD929
:1020A000052804D1032E02D1354600E00425284638
:1020B00015B0F0BD0546FAE70546F8E70125F6E755
:1020C00008F30008C4000020F0B59BB004460D469C
:1020D00016461F466422002101A80AF0FFFD334680
:1020E0002A46174901A80AF0FFFC01A8FFF786FD60
:1020F000D8B905463B4641F28832C8212046FFF751
:10210000A7FD064608B1032813D10E4B19682046D7
:10211000FFF716FD78B1831EDBB2012B0DD9052820
:1021200004D1032E02D1354600E0042528461BB019
:10213000F0BD0546FAE70546F8E70125F6E700BFDA
:1021400038F30008C4000020F8B504460D461948CD
:10215000FFF754FD20BB06462B4641F28832C721CB
:102160002046FFF775FD074608B103281BD1124B27
:10217000996A2046FFF7E4FC0546104B1968204693
:10218000FFF7DEFC284310F0FF000ED0831EDBB209
:10219000012B0CD9052804D1032F02D13E4600E0C3
:1021A00004263046F8BD0646FBE70646F9E7012659
:1021B000F7E700BF58F3000800000020C40000202B
:1021C00070B582B004460025A44B1D70CCE2A44B30
:1021D00001221A700021A34B19702068FFF760FDDF
:1021E00004280AD8DFE800F00320092719009E4BD5
:1021F00000221A70994B01221A709B4B1B78DBB29C
:10220000142B40F2B182984B00221A70974B012296
:102210001A70924B0A221A70A6E2944B0B221A7083
:102220008E4B00221A70E8E7904B0C221A708B4BF1
:1022300000221A70E1E78D4B0D221A70874B0022A5
:102240001A70DAE7002201212068FFF763FD0428F5
:102250000AD8DFE800F0032009271900824B00228A
:102260001A707E4B02221A707F4B1B78DBB2142B44
:1022700040F27A827C4B00221A707C4B02221A7048
:10228000764B0A221A706FE2784B0B221A70734B4E
:1022900001221A70E8E7754B0C221A706F4B01226D
:1022A0001A70E1E7714B0D221A706C4B01221A7003
:1022B000DAE76379012B12D0684B03221A706A4B5C
:1022C0001B78DBB2412B40F24F82674B00221A7021
:1022D000664B03221A70614B0A221A7044E264486A
:1022E00005F050F990B900212068FFF751FD04284E
:1022F000E5D801A353F820F013230008FF230008BA
:10230000BF2200080D240008F1230008FFF747FB57
:10231000E9E7554B00221A7007E0534B00221A7070
:10232000544A55493046FFF739FC4F4B1B78DBB216
:10233000F92B51D8494B1B78052B4DD0002341F286
:102340008832C8212068FFF783FC26684B49304655
:10235000FFF7F6FB0028E0D049493046FFF7F0FBD5
:102360000028E2D1404B00221A704FF47A7001F03D
:1023700015F83A4B1B78022BD7D100212068FFF7C4
:1023800037FD0428F5D801A353F820F0A123000855
:10239000BD23000873230008CB230008AF230008E7
:1023A000314B00221A702D4B05221A70BDE72F4BBE
:1023B0000B221A70294B02221A70DAE72B4B0C22DF
:1023C0001A70264B02221A70D3E7284B0D221A707E
:1023D000224B02221A70CCE7254805F005F91F4B65
:1023E0001B78052B3FF46BAF1C4B0A221A7066E773
:1023F0001E4B0B221A70194B02221A705FE71B4BFF
:102400000C221A70154B02221A7058E7174B0D2236
:102410001A70124B02221A7051E700212068FFF750
:1024200017FD04280AD8DFE800F00334093B2D002B
:102430000D4B00221A70094B04221A700A4B1B78AC
:10244000DBB2142B40F29081074B00221A70074B2D
:1024500004221A70014B0A221A7085E1880D0020AF
:102460007A0D00208E0D0020790D00208C0D0020AB
:1024700060100020900D0020B00D002068F30008CF
:102480007CF300089B4B0B221A709B4B03221A70A3
:10249000D4E7984B0C221A70974B03221A70CDE7A1
:1024A000944B0D221A70944B03221A70C6E7002336
:1024B000E268A1682068FFF7FBFC04280AD8DFE87F
:1024C00000F00320092719008C4B00221A708A4B58
:1024D00005221A70894B1B78DBB2142B40F2448121
:1024E000864B00221A70834B05221A70824B0A22F7
:1024F0001A7039E17F4B0B221A707F4B04221A703D
:10250000E8E77C4B0C221A707B4B04221A70E1E73F
:10251000784B0D221A70784B04221A70DAE70022E9
:10252000217C2068FFF70AFD04280AD8DFE800F0C4
:10253000032009271900714B00221A706E4B0622E6
:102540001A706E4B1B78DBB2142B40F20D816B4B73
:1025500000221A70674B06221A70674B0A221A7003
:1025600002E1644B0B221A70634B05221A70E8E7F4
:10257000604B0C221A70604B05221A70E1E75D4B2C
:102580000D221A705C4B05221A70DAE700230193C2
:10259000E3690093A3696269617C2068FFF70CFD21
:1025A00004280DD8DFE800F003230C2A1C00534B4D
:1025B00000221A70524B01221A704F4B08221A70D7
:1025C0004E4B1B78DBB2142B40F2CE804B4B0022DB
:1025D0001A70484B07221A70474B0A221A70C3E040
:1025E000444B0B221A70444B06221A70E8E7414B09
:1025F0000C221A70404B06221A70E1E73E4B06226D
:102600001A70DDE70023019394F82430009394F8C6
:10261000233094F82220218C2068FFF711FD042834
:102620000AD8DFE800F0032009271900334B002205
:102630001A70314B08221A70304B1B78DBB2142B06
:1026400040F292802D4B00221A702A4B08221A70F9
:10265000294B0A221A7087E0264B0B221A70264B50
:1026600007221A70E8E7234B0C221A70224B07222C
:102670001A70E1E71F4B0D221A701F4B07221A70C8
:10268000DAE7002394F82C20A16A2068FFF71CFDEC
:10269000042843D8DFE800F0085142583C00174BAB
:1026A0001B78DBB2C82B1ED8134B1B78082B35D1F7
:1026B00000212068FFF748FD03460028EFD122687B
:1026C000927E342AEBD100220C490A700D490A701F
:1026D00001220D490A700A490A70092206490A7046
:1026E0000A490A706DE0054B00221A70024B0A225B
:1026F0001A70D9E78C0D0020880D0020790D00207C
:102700008D0D00207A0D0020890D0020C8000020CA
:102710002D4B0B221A702D4B08221A702C4B1B7854
:10272000DBB2642B20D92A4B00221A70264B0922D7
:102730001A70264B0A221A7016E0234B0C221A70CC
:10274000224B08221A70E9E71F4B0D221A701F4B0B
:1027500008221A70E2E7022D04D80135EDB21B4BB6
:1027600000221A70032D1FD0184B1B78092B25D07F
:102770000A2BF9D801A252F823F000BFCF2100089C
:1027800045220008B32200081B240008AF240008DB
:102790001F2500088D25000805260008832600084F
:1027A000692700085727000800250A4B1D700A4BAF
:1027B00001221A70054B09221A70D5E7064B1B78C7
:1027C000DBB2184602B070BD8C0D0020880D0020D1
:1027D000790D00207A0D00208E0D0020F0B59BB001
:1027E00004460D4616461F466422002101A80AF041
:1027F00075FA33462A46174901A80AF075F901A867
:10280000FFF7FCF9D8B905463B4641F28832C821AA
:102810002046FFF71DFA064608B1032813D10E4BD8
:1028200019682046FFF78CF978B1831EDBB2012BC3
:102830000DD9052804D1032E02D1354600E0042528
:1028400028461BB0F0BD0546FAE70546F8E7012526
:10285000F6E700BF98F30008C400002070B50646F4
:10286000FDF7DEFC0446B0F57A7F0DD84FF4FA751B
:102870002B46A2B231460E4806F011F80546B4F5D3
:102880007A7F10D8284670BD0A4DA5FB00356D092A
:10289000642303FB05F505F5FA652A46014606485B
:1028A0000AF07CF8E4E7C82000F078FDEAE700BF12
:1028B000A81100201F85EB51B0F300082DE9F04F5F
:1028C000BBB006460291039204939DF810B19DF8A7
:1028D00014A19DF8188100250846FDF7A1FCC7B298
:1028E0002437FFB2C822294608A80AF0F7F94C4855
:1028F00005F0CCF80695059507952C460EE0CDF829
:1029000004A0CDF800B0039B029A464908A80AF03B
:10291000EBF808A8FFF7A2FF05460124032CFDD819
:1029200001A353F824F000BFFF280008392900084C
:1029300099290008B5290008002D67D143464FF4B6
:10294000FA7239463046FFF783F9814608B1032809
:10295000E4D1354B19683046FFF7F2F805280FD857
:10296000DFE800F05003500E0E0B059B0133DBB285
:102970000593032B48D82C46D0E7B9F1030F03D0B9
:102980000428CBD12C46C9E7079B0133DBB2079360
:102990000A2BC3D90224C1E743464FF47A724FF49D
:1029A00096713046FFF754F90498FFF757FF054634
:1029B0000324B3E765BB43464FF47A724FF4C87102
:1029C0003046FFF745F9814608B10328A6D1174BD9
:1029D00019683046FFF7B4F805280FD8DFE800F093
:1029E0001B031A0E0E0B069B0133DBB20693032B5F
:1029F00094D902200FE0B9F1030F0FD004288DD134
:102A0000052008E0022489E7022487E7042002E089
:102A1000042000E001203BB0BDE8F08F4846FAE713
:102A2000A8110020E8F30008C4000020B000002036
:102A300070B506460D4614460F4B09221A700E4B10
:102A40001B78102B11D0092BF9D1002322462946DF
:102A50003046FFF7C3FE034620B1012807D0032804
:102A6000EDD102E0044A10211170184670BD024AEF
:102A700009211170F9E700BFC800002000B583B03C
:102A80000023ADF804308DF80630ADF800308DF835
:102A9000023001E00133DBB2934213D210F803C0DD
:102AA00003F1080EEE440EF804CCACF1300C5FFAE2
:102AB0008CFCBCF1090FEDD803F1080EEE440EF8C2
:102AC00008CCE7E7022A09D0032A11D0012A02D153
:102AD0009DF800300B7003B05DF804FB9DF80030EA
:102AE0009DF8012003EB830302EB43030B70F2E735
:102AF0009DF800209DF8013002EB820202EB820279
:102B000003EB83035B0003EB8203DBB29DF802203F
:102B100013440B70DFE70000F8B507460E46154674
:102B2000002404E0335D2B2B1ED00134A4B2AC4250
:102B300080F095804A4B1B78082B00F28C8001A214
:102B400052F823F0252B0008792B0008972B00085A
:102B5000B72B0008C52B0008E52B0008F32B000855
:102B6000212C00083F2C00083E4B00221A809A704E
:102B70003B4B01221A70D8E7335D4D2B05D0002363
:102B8000394A1370364A1370CFE7384B1C70344BF8
:102B900002221A70C9E7354B1B7833441B79532B3B
:102BA00005D00023304A13702D4A1370BDE72C4B1B
:102BB00003221A70B9E7335D222BB6D1284B0422C9
:102BC0001A70B2E7335D222B05D027490A78501CD2
:102BD0000870BB54A9E7244B00221A70204B052231
:102BE0001A70A2E7335D2C2B9FD11D4B06221A7061
:102BF0009BE7335D2C2B06D01B490A78501C0870CC
:102C000018498B5491E7184B00221A70032207F1E0
:102C100064011448FFF732FF114B07221A7084E752
:102C2000325D0D2A07D010490B78581C08703B44C0
:102C300083F8652079E70A4B08221A7075E7335D3F
:102C40000A2B7FF472AF0023084A1370064A1370F0
:102C5000034A137069E7024B00221A7065E7F8BD5A
:102C6000870D0020840D0020810D00208B0D002099
:102C700070B505460C461646114B196820460AF0F9
:102C80006BF828B1324621462846FFF745FF70BD54
:102C90000C4B196820460AF05FF830B10A4B01224C
:102CA0001A700A4B00221A70F1E7094B1968204686
:102CB0000AF052F80028EAD0034B00221A70E6E727
:102CC000B8000020A8000020890D00208E0D0020F3
:102CD000AC00002008B5164B1B681A6812F0200FD4
:102CE00003D11A6842F020021A60124B5B6813F09D
:102CF000400F02D10F4B40225A600D4805F08EFB69
:102D0000223801280CD90C4B00221A7001220B49E1
:102D1000074805F0BBFF38B1094809F03FFE08BD80
:102D2000034804F0B3FEEEE7064809F037FEF6E785
:102D3000A811002000E100E08A0D0020780D00209D
:102D400008F4000838F40008BFF34F8F0549CA683B
:102D500002F4E062044B1343CB60BFF34F8F00BF1C
:102D6000FDE700BF00ED00E00400FA05C8B138B58A
:102D700005460C4C642305220B49204605F08FFDC7
:102D80002846FDF74DFA4FF47A7382B22946204661
:102D900005F085FD642302220449204605F07FFDED
:102DA00038BD7047A8110020B0F5000864F3000892
:102DB00000B5C3B00B4B00930B4B0C4A4FF4807122
:102DC00002A809F05BFE0A48FFF7D0FF40F6B830D2
:102DD00000F0E4FA0748FFF7C9FF012043B05DF8AF
:102DE00004FB00BF20F60008B8F5000818F600083C
:102DF00038F6000844F6000808B50448FFF7B6FFA7
:102E00000348FFF7B3FF012008BD00BF50F60008DC
:102E10005CF6000808B50648FFF7A8FF4FF4FA6013
:102E200000F0BCFA0348FFF7A1FF012008BD00BF76
:102E300064F6000870F6000810B582B000240B4B51
:102E40001C700B4B1C700B4A0B4B07CA03C31A7048
:102E500000940A4B22464FF0FF31094808F03EFD2E
:102E60000848FFF783FF02B010BD00BFF10D00203E
:102E7000F00D00207CF60008CC000020652F000833
:102E8000D00D002088F6000830B595B0154B1B78A2
:102E90001BBB04460125134B1D70134B18700346D2
:102EA000124A5021684609F0E9FD6846FFF75EFFC7
:102EB00023460F4A64210F4809F0E0FD0E4C4FF401
:102EC000FA61204608F008FE204608F0BFFD0B48D6
:102ED000FFF74CFF284615B030BD0948FFF746FF05
:102EE0000020F8E7F10D0020F00D0020A4F6000806
:102EF000B4F60008CC000020D00D0020CCF600086D
:102F000090F60008014B1878704700BFF10D0020C3
:102F100038B50D4B1B789BB10C48FFF727FF0023FA
:102F2000094A13700A4A13700A4C0B4D0FCD0FC497
:102F300095E80F0007C423800848FFF717FF38BD46
:102F40000748FFF713FFFAE7F10D0020F0F600083D
:102F5000F00D0020CC000020FCF600081CF7000853
:102F6000E0F6000800B597B02148FFF7FFFE2148C2
:102F7000FFF7FCFE204B214A1360214A21490A60D9
:102F80000092214A502102A809F078FD02A8FFF71B
:102F9000EDFE1E48FFF7EAFEFFF70AFF98B11C4856
:102FA000FFF7E4FEFFF728FF98B11A48FFF7DEFEAF
:102FB000FFF730FF98B91848FFF7D8FEFFF7A8FFD2
:102FC00017B05DF804FB1548FFF7D0FEFFF7A0FF30
:102FD000F6E71348FFF7CAFEFFF79AFFF0E711483C
:102FE000FFF7C4FE4FF47A7000F0D8F9FFF7ACFE9B
:102FF0002CF700083CF70008F0150100EC0D00204C
:1030000016D7A6A5E80D00204CF7000864F70008C5
:1030100088F70008A8F70008B4F7000874F700085C
:1030200098F70008C4F7000800B58DB02C220021E5
:1030300001A809F053FE1948194B03601F23836050
:1030400000230361436183614FF08042C2610362E8
:103050004FF48073436203F037FDA8B90F4803F0C3
:1030600077FEA0B900220892029206924FF0005318
:1030700007934FF480730B9301A9084803F08CFD6C
:1030800040B90DB05DF804FBFEF789FCE6E7FEF7FA
:1030900086FCE7E7FEF783FCF3E700BFF40D0020B2
:1030A0000028004010B590B004463822002102A844
:1030B00009F014FE22681A4B9A4201D010B010BDDC
:1030C0004FF4803302934FF480730F9302A803F000
:1030D00015FB08BB4FF0B043D3F8902042F40042F8
:1030E000C3F890209A6D42F480629A659B6D03F458
:1030F00080630193019B00221146022002F0D4F864
:10310000022002F0E1F8002211462A2002F0CCF859
:103110002A2002F0D9F8D1E7FEF741FCDAE700BF38
:10312000002800407047704708B502F031F80120D0
:10313000024BC3F8880002F015FD08BD00040058DA
:1031400008B502F02CF808BD08B502F028F800F028
:10315000EDFC08BD08B502F01BF80121002002F0CB
:10316000A5FC08BD7047FEE7FEE7FEE7FEE7FEE7C9
:10317000704770477047704708B5024803F014FE67
:1031800008BD00BFF40D002008B5024802F0A0FA07
:1031900008BD00BFB410002008B5024804F0F8FCD8
:1031A00008BD00BF1411002008B5094A1368013397
:1031B0001360084B1B68DA6912F0200F03D1054831
:1031C00004F0E6FC08BD586AC0B2FEF765FAF6E7FF
:1031D00048100020A811002008B5024803F0EEFBBB
:1031E00008BD00BFF40D002008B5024804F094F8B3
:1031F00008BD00BF4C100020014B188880B27047FA
:103200002C0E00200F4B1B889BB20BB9002070477F
:103210000D4A13889BB20D49C85CC0B213889BB29B
:1032200001335942C3F30803C1F3080158BF4B42AD
:103230009BB21380034A13889BB2013B9BB213805D
:10324000704700BF2C0E00202E0E0020300E0020F4
:1032500070B505460E46002404E0FFF7D3FF28555D
:103260000134A4B2731E9C4203DAFFF7C5FF0028A5
:10327000F3D100232B55204670BD000008B505484A
:103280000823036003F0C6FD00B908BDFEF787FB05
:10329000FBE700BF4C10002000B583B04FF0B043F7
:1032A0005A6E42F001025A665B6E03F0010301930D
:1032B000019B00221146322001F0F6FF322002F07D
:1032C00003F803B05DF804FB0CB400B583B004ABA5
:1032D00053F8042B019308F0FDFC03B05DF804EBF8
:1032E00002B0704730B585B004460D4602A808F01C
:1032F000C7FABDF90C300093029B054A1021204605
:10330000FFF7E2FF2046FCF78BFF288005B030BDB9
:10331000D4F7000810B54FF0B042936823F400438F
:10332000936008F0CFFA01240B4B1C7000F040F8BA
:1033300008F00EF8094808F025F8022008F028F8EF
:1033400008F036F92146204608F052F92146204679
:1033500008F038F910BD00BF58100020E532000811
:1033600008B508F05BF908BD08B50121022008F096
:1033700029F908BD08B50021022008F023F908BD8D
:103380000020704708B5044B1B780BB9002008BD1E
:1033900000F034F9FBE700BF5810002000B583B0FF
:1033A00001900198FEF7E4FA03B05DF804FB000019
:1033B000F0B589B0224AD2F8903043F48043C2F885
:1033C000903001F0F3FE01F0F9FE01F0FFFE002461
:1033D000039404940594069407940123049303230F
:1033E00006934FF0B043DA6C42F00202DA64DA6C12
:1033F00002F002020292029ADA6C42F00202DA64ED
:10340000DB6C03F002030193019B4FF48057039799
:103410000C4D03A9284602F0E3F94FF40056039639
:1034200003A9284602F0DCF922463946284602F074
:1034300027FB22463146284602F022FB09B0F0BDA8
:1034400000080058000400480120704708B509F042
:10345000E3FC162303604FF0FF3008BD08B54FF0C2
:10346000FF31FFF7F3FFFEE770B50C461646002567
:1034700006E0AFF30080214601F8010B01350C4650
:10348000B542F6DB304670BD70B50C4616460025D9
:1034900004E014F8010BAFF300800135B542F8DB0E
:1034A000304670BD4FF0FF3070474FF400534B6013
:1034B00000207047012070470020704710B5034678
:1034C0000C4A0D490D48006840B10C48006803449F
:1034D000521A934206D8094A136010BD0748084C97
:1034E0000460F2E709F098FC0C2303604FF0FF3012
:1034F000F3E700BF00800020000800005C100020FF
:10350000F85E002000B589B000230493059306936C
:1035100007930193029303931648174A026041F2FE
:10352000BF224260836042F20F72C2600361436156
:10353000836104F0B3F898B94FF48053049304A95D
:103540000C4804F0E7F870B9002301930293039349
:1035500001A9084804F05EF940B909B05DF804FB20
:10356000FEF71DFAE8E7FEF71AFAEDE7FEF717FA9D
:10357000F3E700BF60100020002C01400268094BF7
:103580009A4200D0704782B04FF0B0431A6E42F4B6
:1035900000621A661B6E03F400630193019B02B084
:1035A000704700BF002C0140064B986801E0054BB6
:1035B0009868044B9B688342F9D1C043024B186062
:1035C000704700BF00280040AC100020014B186875
:1035D000704700BFAC100020064B986801E0054B17
:1035E0009868044B9B688342F9D1C043024B1B6827
:1035F000C01A704700280040AC100020074B1B7811
:1036000053B1074B986801E0054B9868044B9B68E1
:103610008342F9D1C043704700207047B0100020AA
:10362000002800400320704708B501464FF47A7225
:1036300000238002890DFDF7EDFC08BDC20E430199
:103640001B1A62F10002920042EA93729B001B185F
:1036500042F10000C00040EA5370C3F3D51343EABF
:103660008050704710B5074B0122DA65064C4FF4C5
:103670008071204603F062F94FF0FF33236300208E
:1036800010BD00BF00280040F40D002008B5024620
:103690000221024803F09DFB08BD00BFF40D00208D
:1036A00038B50F4B1B780BB1002038BD0D4C4FF0D7
:1036B000FF352563FFF7B8FCFFF7D4FF4FF48071A7
:1036C000204603F03BF92563204603F021FB002050
:1036D000FFF7DCFFFFF768FF014B01221A70E3E7F9
:1036E000B0100020F40D002008B502460021024869
:1036F00003F06FFB08BD00BFF40D002008B50246C3
:103700000121024803F065FB08BD00BFF40D002055
:1037100010B58CB004462C22002101A809F0DEFA75
:10372000FFF7A0FF0C4B1B681C4400230893E443E5
:10373000029406934FF0005307934FF480730B935A
:10374000012201A9054803F027FA10B900200CB0A6
:1037500010BDFEF724F9F9E7AC100020F40D0020AD
:1037600008B50221014803F03BFB08BDF40D002021
:1037700038B505460B4B9C6801E00A4B9C68094A2A
:103780009268A242F9D1E443FFF7EAFF2346A40A74
:1037900044EA8054C3F30900FFF750FF2880204615
:1037A00038BD00BF0028004008B50021014803F0E3
:1037B00017FB08BDF40D002008B50121014803F0F6
:1037C0000FFB08BDF40D002008B508F09FF908BDF7
:1037D00008B5FFF7C5FF0130FFF758FF08BD00002F
:1037E00008B51748174B03604FF4E13343600023DB
:1037F0008360C36003610C224261836103624362A0
:103800008362436605F070F970B900210C4805F039
:103810003FFB60B900210A4805F05FFB50B908483A
:1038200005F017FB48B908BDFEF7B9F8EDE7FEF75C
:10383000B6F8EFE7FEF7B3F8F1E7FEF7B0F8F2E716
:10384000A81100200080004008B51748174B0360FE
:103850004FF4E133436000238360C36003610C22B3
:1038600042618361C36103624362836205F03CF994
:1038700070B900210C4805F00BFB60B900210A4823
:1038800005F02BFB50B9084805F0BFFA48B908BD50
:10389000FEF785F8EDE7FEF782F8EFE7FEF77FF831
:1038A000F1E7FEF77CF8F2E7141100200044004035
:1038B00030B599B0044600211391149115911691D9
:1038C0001791382205A809F009FA2368484A93425B
:1038D00004D0484A934234D019B030BD2023059318
:1038E00005A802F00BFF48BB4FF0B043DA6D42F081
:1038F0000102DA65DA6D02F001020292029ADA6CD4
:1039000042F00402DA64DB6C03F004030193019BD0
:10391000032313930224149400251595169308236A
:10392000179313A9344801F05BFF2A46214626204D
:1039300001F0BAFC262001F0C7FCCDE7FEF72FF816
:10394000D2E7022305932D4B079305A802F0D6FE7C
:10395000002844D14FF0B0439A6D42F400329A658A
:103960009A6D02F400320492049ADA6C42F0010279
:10397000DA64DB6C03F001030393039B0C231393C2
:1039800002231493002515950323169307231793F9
:1039900013A94FF0904001F023FF1948194B036021
:1039A0001423436010238360C56080230361456155
:1039B0008561C561056201F0FFFC98B910211048CE
:1039C00001F0FAFE88B90E4BE3679C6200220221E7
:1039D000252001F069FC252001F076FC7CE7FDF74D
:1039E000DEFFB7E7FDF7DBFFE8E7FDF7D8FFEAE723
:1039F00000800040004400400008004804000C0023
:103A0000B41000200800024010B50368134A934226
:103A100004D00446124A93420ED010BD4FF0B0427B
:103A2000D36D23F00103D36503210E4801F0AAFFF3
:103A3000262001F04DFCF0E74FF0B042936D23F4E7
:103A4000003393650C214FF0904001F09BFFE06F35
:103A500001F022FD252001F03BFCDEE70080004064
:103A6000004400400008004808B5074B1860FDF707
:103A7000EBFEFFF7E9FE054AD2F8803043F0006321
:103A8000C2F88030002008BD401200200008005815
:103A900008B54FF0B0439A6B42F400329A639A6BC8
:103AA00022F400329A630448FFF7AEFF0F2001F0C2
:103AB0000FFC002008BD00BF1411002008B50A4605
:103AC0000146024803F01EFF002008BD141100202B
:103AD00010B582B0124B18604FF40013009302AB84
:103AE00013E906000F4805F038F90E4B1B68DA6938
:103AF00012F4803FF9D1DA6912F4800FFBD09A6892
:103B000042F480029A60074C204605F067F90122D2
:103B10000549204605F0BAF8002002B010BD00BFEC
:103B20003C120020141100204412002008B5074860
:103B300004F0DAFF20B9064801F03EFC18B908BDD0
:103B4000FDF72DFFF7E7FDF72AFFF8E71411002036
:103B5000B410002008B50268044B9A4200D008BD9A
:103B6000034B1B6800209847F9E700BF0044004062
:103B7000401200200D48854601F0F3FA0C480D492B
:103B80000D4A002302E0D458C4500433C4188C42B8
:103B9000F9D30A4A0A4C002301E013600432A2421E
:103BA000FBD309F03FF9FDF743FFFEE7008000205B
:103BB00000000020280300209015010828030020A1
:103BC000F85E0020FEE708B5FFF7A4FB00F04EFD0D
:103BD00008BD08B54FF0FF3007F08CFD08BD00B5FB
:103BE00086464FF0000C604611E04000C0B2013341
:103BF000DBB2072B07D842B2002AF6DA520082F075
:103C00003102D0B2F3E70CF1010C5FFA8CFC8C4569
:103C100004D21EF80C3058400023EAE75DF804FB9C
:103C200008B5074B01220021104607F005FC054BA3
:103C300002221A700021012007F028FD08BD00BFF4
:103C4000E0F70008AB58002008B5064B0122002120
:103C5000104607F0F1FB0120034B1870002107F01C
:103C600015FD08BDECF70008AB58002008B5074B60
:103C700001220021104607F0DFFB054B04221A70D9
:103C80000021012007F002FD08BD00BFFCF700087D
:103C9000AB58002008B5074B01220021104607F061
:103CA000CBFB054B03221A700021012007F0EEFC2C
:103CB00008BD00BF0CF80008AB580020F8B5154B44
:103CC0005B7D03B9F8BD04460D46461EF6B2114FA2
:103CD0003B7D0A460146104808F060FE3B7DAB4242
:103CE0000CD00C4B9B5D002BECD00A4B00229A555C
:103CF0002A462146094808F051FEE3E7BB5D012B47
:103D0000E0D00122BA552A462146054808F046FE71
:103D1000D8E700BF4812002018F80008A4F80008EF
:103D200064F8000870B505460E46104C62682178AC
:103D30000F4808F033FE2570666001232373324676
:103D400029460C4808F02AFE21780B4B19750023F0
:103D500004E0094A0020D0540133DBB2074A12784C
:103D60009A42F6D8064808F019FE70BD30010020CE
:103D7000E0F8000824F9000848120020440100205F
:103D80007CF900082DE9F04F95B005460C46164623
:103D90001F469E4B01220021104607F04DFB009567
:103DA0009B4B01220021104607F046FB019700962D
:103DB000984B01220021104607F03EFB964B1F70E6
:103DC000102C02D92B78D12B17D0944B03221A70C8
:103DD000FF220021924808F081FF924B1C80FF2CAB
:103DE00040F2DF80904B1E700094904B0122002126
:103DF000032007F021FB0026DAE095F80180AA787D
:103E0000EB781B021BB242EA030111912A796B790C
:103E10001B021BB242EA030BCDF848B0AB790D93FD
:103E2000EA792B7A1B021BB21A430E926A7AAB7A9A
:103E30001B021BB242EA03000F90EA7A2B7B1B02A3
:103E40001BB242EA030CCDF840C06B7BAA7B43EA6D
:103E5000022ECDF830E095F80FA00846FCF736FFAB
:103E60007349FDF73BF881465846FCF72FFF704930
:103E7000FDF734F8CDF82CA0DDF830E0CDF828E0DF
:103E8000DDF840C0CDF824C00F9908910E9A079232
:103E90000D9B0693FCF730FBCDE904014846FCF787
:103EA0002BFBCDE90201CDF80080624B01220021FD
:103EB000104607F0C1FA51464046FFF7FFFEB8F141
:103EC000000F08D05C4B1B78434504D35B4B19882B
:103ED000B1F5967F11D3594B1B88B3F5967F5BD311
:103EE0004146574808F05AFDCDF80080554B012255
:103EF0000021104607F0A0FA67E742460131524818
:103F000008F04CFD4D48B0F800B0DFF840914FEAA2
:103F1000CB031393CBEBCB0209EB820309F822808E
:103F2000119A5A80129A9A800D9A9A710E9A1A8151
:103F30000F9A5A81109A9A810C9ADA8183F810A00C
:103F4000FFF720FA139BA3EB0B0309EB83035861E4
:103F50003A480388C3EBC30209EB82021683C3EB22
:103F6000C30209EB820989F81A70013399B2074636
:103F70000180374808F012FD3B880493CDF80CA06F
:103F80000C9A0292CDF804800093324B012200215A
:103F9000104607F051FA18E741462F4808F0FEFC9A
:103FA00013E7224629461E4808F063FF1AE7013648
:103FB0003F2E18DC1A4B9B5D0093284B01220021F9
:103FC000032007F039FA724206F00F0302F00F02E5
:103FD00058BF53420F2BEAD1214B0122002103206D
:103FE00007F02AFAE3E71E4B00221146032007F0F0
:103FF00023FA0021012007F049FB22460021284630
:1040000008F06CFE15B0BDE8F08F00BFD0F90008D5
:10401000DCF90008ECF90008A8560020AB58002095
:10402000AC570020AA560020A9560020D4FB000857
:104030000000C84210FA000844010020BC350020EE
:1040400020FB000864FB00086CFA0008C035002063
:104050009CFA0008D8FA0008A0FB0008E8FB00085A
:1040600098FF000808B54FF40071034801F00DFDFA
:10407000024807F0EBFC08BD000400489056002001
:10408000F0B585B0A1268DF80860184B1F788DF823
:1040900009705C688DF80A40C4F307238DF80B3073
:1040A000C4F307438DF80C30230E8DF80D3002ADAC
:1040B00006212846FFF793FD8DF80E000090234659
:1040C0003A4631460A4808F069FC0A4B95E8030075
:1040D00018609980090C9971074A926A072118465D
:1040E0009047064808F0C2FC05B0F0BD3001002042
:1040F000F0FB0008AC560020BC10010848FC00088A
:1041000008B5084B5B7B1BB1074B1B78032B00D01A
:1041100008BD064808F0AAFCFFF7B2FF044807F004
:1041200095FCF5E730010020461200206CFC0008E9
:104130008C35002070B5174B5E7D0EB9304670BDD2
:10414000154808F093FC0024012603E0134B0CE013
:104150000134E4B2124B1B78A3420FD92546611CEF
:104160000C4B1A5D012AF1D00E4B0F4808F016FCDB
:10417000084B5B5D002BEBD11E46E9E72EB1054BEA
:10418000197D0A4808F00AFCD8E7094808F06EFCD7
:10419000D4E700BF48120020B4FC0008A0FC0008CF
:1041A00044010020A8FC0008F4FC000818FD0008E9
:1041B00060FD000808B5074808F058FC0023064ACF
:1041C0001370064A5375064A13735373054808F073
:1041D0004DFC08BDACFD000846120020481200202E
:1041E00030010020E8FD000808B50C4808F03EFC4E
:1041F000002304E00A4A0021D1540133DBB2094A0A
:1042000012789A42F6D8084B1978054B1975002296
:104210005A75064808F0C2FB08BD00BF2CFE000816
:104220004812002044010020300100206CFE0008EC
:10423000C8B138B505460C4C642308220B4920460A
:1042400004F02DFB2846FBF7EBFF4FF47A7382B2A4
:104250002946204604F023FB642302220449204619
:1042600004F01DFB38BD7047A8110020BCFE0008FB
:1042700064F3000808B5FEF745FE40B9314B1B78E2
:10428000042B50D8DFE803F00722311340002E48FA
:10429000FFF7CEFF08BD2D4B01220021104607F08D
:1042A000CBF82B4B5B6B4EF660209847F2E7294B1F
:1042B00001220021104607F0BFF8254B5B6B4EF63C
:1042C000602098471F4B00221A70E3E7224B01221F
:1042D0000021104607F0B0F81D4B5B6B4EF66020D6
:1042E0009847184B00221A70D4E71C4B012200217A
:1042F000104607F0A1F8164B5B6B4EF6602098470E
:10430000104B00221A70C5E7154B01220021104600
:1043100007F092F80E4B5B6B4EF660209847094B06
:1043200000221A70B6E70F4B01220021104607F059
:1043300083F8074B5B6B4EF660209847014B0022D9
:104340001A70A7E7AB580020C8FE0008DCFE000882
:10435000BC100108FCFE000824FF000850FF000804
:1043600078FF00089CFF0008F8B507460C460A4D88
:104370000A4E326869780A4808F010FB6F703460A2
:10438000AC602146074807F0A7FB32686978064809
:1043900008F004FBF8BD00BF300100204001002000
:1043A000C4FF0008A4350020140001082DE9F04FD7
:1043B00095B09E4C21889E4808F0F0FA23884BB3B4
:1043C0000027B846994B1B88434540F32C81994BF5
:1043D0001C6801341C60FEF7D5FF974B1A785E7895
:1043E00007F1010A0597996804915B6803930296A7
:1043F000019200902346914A42F22831904808F0F9
:104400003DFB054644460122CDF844801297CDF885
:104410004CA0AAE0874B1C6801341C60FEF7B2FF79
:10442000854B1A785978864E9D6804955B6803938E
:104430000291019200902346824A42F2283130468E
:1044400008F01CFB0446804D4FF4167200212846EC
:1044500008F044FC00230293019300933346A2B278
:104460007A492846FEF72AFA794808F0FFFADAE096
:10447000784B1093631C0F93774AC4EBC40102EB93
:10448000810312F82120B3F90210B3F904009E79D8
:10449000B3F90870B3F90AC0B3F90CE0B3F80E80B1
:1044A00093F81090B3F918A093F91AB0CDF830B082
:1044B000CDF82CA05B690A93CDF82490CDF820802C
:1044C000CDF81CE0CDF818C0059704960390029132
:1044D00001920F9B0093109B604A0021084608F050
:1044E000CDFA28440A3042F22733984247D85A4A34
:1044F000C4EBC40102EB810312F82110B3F90200EE
:10450000B3F904609F79B3F908C0B3F90AE0B3F9CD
:104510000C80B3F80E9093F810A0B3F918B093F98B
:104520001A300C93CDF82CB0C4EBC40402EB840217
:1045300053690A93CDF824A0CDF82090CDF81C80C3
:10454000CDF818E0CDF814C00497039602900191BD
:104550000F9C0094109B414AC5F50C5128313848F6
:10456000284408F08BFA05440022304B1B88A342F4
:1045700033DD002A3FF47CAF394B10937AE7DDF846
:104580004480129FDDF84CA02D4E364AC5F50C51E3
:104590002831701908F072FA05EB00092A4D4FF422
:1045A00016720021284608F099FB0023029301931C
:1045B000009333461FFA89F224492846FEF77EF914
:1045C0001A4B1B8800932346A4EB08023946264861
:1045D00008F0E4F95746A046F4E6DDF84480129F5F
:1045E000174E204AC5F50C512831701908F046FACB
:1045F0002C18154D4FF416720021284608F06EFB5A
:1046000000230293019300933346A2B20F49284638
:10461000FEF754F9054B1B880093A3EB08023946BB
:10462000114808F0BBF915B0BDE8F08FBC3500208B
:10463000640001088835002030010020880101084D
:10464000601200209C000108140600206E0000206B
:104650006401010860000108C03500206002010803
:10466000B4F20008140301081C0301082DE9F0430B
:104670008BB0474B00221146022006F0DDFE0024DD
:1046800002944FF00508CDF8048001250095414BB8
:1046900022462146022006F0CFFE02950323019315
:1046A00000953D4B22462146022006F0C5FE3B4EBA
:1046B00000943B4B2246C821304607F00FF93046A4
:1046C00007F0C4F93748384B0360384B8360384BE8
:1046D0004360384BC360384B0361384E33689847AA
:1046E000F36837489847374B22462146022006F0A8
:1046F000A3FE354B22462146022006F09DFE7D2377
:104700000093324B22462146022006F095FE0727F1
:1047100000972F4B22462146022006F08DFE4EF6D2
:1047200060230893079406940594049503944FF02E
:104730000809CDF8089001950097234622460E21DE
:104740002846D6F81CC0E0470995089407940694BB
:10475000059504940394CDF80880CDF80490009456
:104760002B463A4621462846B769B847736DFF2164
:1047700028469847FF222146164808F0AFFA164B04
:104780002A462146284606F057FE0BB0BDE8F083C6
:1047900050030108640301088803010890560020B3
:1047A00065400008AC580020953C0008853D000895
:1047B0006D3C0008493C0008213C0008BC10010881
:1047C00000A1BC33AC030108C0030108D4030108F5
:1047D000E8030108AC560020F803010830B583B0A7
:1047E000244B01220021104606F026FE0024224B15
:1047F0001C8042F2D0022146204808F06FFA214680
:104800001F4808F0CBF81F4B1C701F4B5C731F4DEB
:1048100000941F4B224641F28831284607F05EF88B
:1048200000941C4B22464FF4FA611B4807F056F8DF
:10483000FFF7DAFC284607F009F9184808F016F9DE
:10484000174B01222146104606F0F6FD154A214677
:10485000012006F0E5FF144B01222146104606F028
:10486000EBFD124B1C70124B5B6B4EF660209847B1
:1048700003B030BD38040108BC350020C03500202D
:10488000640401084612002030010020A4350020F5
:104890003D4E0008014100088C3500209C040108B1
:1048A000E00401087542000814050108AB58002017
:1048B000BC1001082DE9F04393B004469448FFF77B
:1048C000B7FC944808F0D2F8FCB12046FFF7B0FCE2
:1048D0002046FBF7A5FC024621468F4808F05EF80B
:1048E0008E49204608F038FA002800F002818C48F2
:1048F000FFF79EFC8B4808F0B9F88B49204608F07A
:104900002BFA00284ED0073007E08848FFF790FCCC
:10491000874808F0ABF8F8E001300378202BFBD093
:104920003A2BF9D007F09AFA85B22B46814A322108
:1049300003A808F0A3F803A8FFF77AFC29467E48ED
:1049400008F02CF87D49204608F006FA06467C4916
:10495000204608F001FA07467A49204608F0FCF99B
:1049600004460EB37849794808F018F8F7B176494B
:10497000774808F013F8DCB17349764808F00EF870
:10498000A32D17D0962D40D0002E00F05381002F7C
:1049900000F05381A5F1A1039BB2012B5DD9002446
:1049A0002646AFE00025CDE76B49DCE76A49DFE743
:1049B0006949E2E7002CE5D004F10F0000E0013086
:1049C0000378202BFBD03A2BF9D007F047FAC5B279
:1049D0006B1EDBB2132B13D8604E2A463178604829
:1049E00007F0DCFF35705F4B00221A605A609A6056
:1049F000DA601A619A8229465B4807F0CFFF84E0AB
:104A0000C1B25A4807F0CAFF7FE016B90024264613
:104A1000D9E05748FFF70CFC06F10A0000E001302E
:104A20000378202BFBD03A2BF9D007F017FAC4B249
:104A30002346504A3C2103A808F020F803A8FFF7BA
:104A4000F7FB2046FEF720FA18B14B48FFF7F0FBC2
:104A50005BE04A48FFF7ECFB57E006F10A0400E090
:104A600001342378202BFBD03A2BF9D0204607F0D5
:104A7000F5F9C6B2B14622463146414807F08EFFED
:104A800007F1090801E008F1010898F80030202B2F
:104A9000F9D03A2BF7D041463A4807F07FFF002380
:104AA000039304930593069305E003F148026A44D7
:104AB00002F83C1C013318F80310A1F13002D2B205
:104AC000092A01D80E2BF0DD48336B44002203F88D
:104AD0003C2C03A807F0C2F90446024603A92A4861
:104AE00007F05CFF23464A462946284807F056FF50
:104AF00069E0257805F15F03DBB2012B48D9002579
:104B00002C462E46A32D40F09F8013B0BDE8F083C5
:104B10004C0501085C050108CC0501083CEE0008C5
:104B20000406010814060108340601088805010876
:104B3000980501083C0601084406010848EE0008F3
:104B4000600601086C060108440501087C0601089E
:104B50009C060108BC060108480501084401002024
:104B6000E00601084812002008070108380701087C
:104B700078070108900701089C070108B0070108A1
:104B8000C4070108F80701081C08010850080108BB
:104B90002046FBF745FB062852D9A12D2BD0A22D8C
:104BA0002BD000256678A378E27843EA02232279A5
:104BB00043EA0243627943EA0264234632462946C5
:104BC000254807F0EBFE002E9CD0002C9AD0A12D9A
:104BD00015D0A22D99D1214B5978B14225D00094FE
:104BE0001F4B1B6832461F4807F0D8FE214630464F
:104BF000FFF7BAFB89E7A125D4E7A225D2E7174B37
:104C00001978B1420CD000945B683246164807F020
:104C1000C5FE21463046FFF785F8144B1E7074E739
:104C20003146134807F0BAFE6FE73146114807F0E6
:104C3000B5FE6AE70024264664E70024264661E7BD
:104C400000252C462E465DE72346324629460A4873
:104C500007F0A4FE59E700BF9008010830010020CA
:104C6000400100204C090108D40801084512002029
:104C7000180901089C090108D409010830B5ADF5EF
:104C8000037D4E4807F0F2FE4D4C21784D4B1B78CA
:104C90004D4A12784D4807F081FE2378DBB2012B94
:104CA00005D04B4807F0E2FE0DF5037D30BD4FF413
:104CB00016720021474808F011F8474807F0D6FE61
:104CC000464807F0D3FE464B1968464B1A68464BD8
:104CD0001B68464800680090454807F05FFE454B5A
:104CE0001968454B1A68454B1B78454807F056FE36
:104CF000002504E0334B1B78DBB2012B53D0022D8F
:104D000058DC013529463F4807F048FE00212D4B6D
:104D100019703D4B01221A70022006F0B7FCFEF715
:104D20006BFA04460146394807F038FE002CE1D002
:104D30004FF400742246002102A807F0CFFF21465D
:104D400002A8FEF785FA014602AA314807F026FEBE
:104D5000304902A808F000F80028CBD02E4902A85C
:104D600007F0FAFFA0B92D4902A807F0F5FF78B9BE
:104D70002B4902A807F0F0FF50B92A4902A807F012
:104D8000EBFF28B9284902A807F0E6FF0028B1D0B8
:104D9000264807F06BFE02A9254807F0FFFD02A890
:104DA000FFF788FD80E7234807F060FE054B0022EF
:104DB0001A70A4E7204807F059FE75E7240A010895
:104DC000110600208A0D0020A0000020600A0108C2
:104DD0009C0A010814060020B80A0108E80A010824
:104DE000481000204410002034100020381000200B
:104DF000080B0108401000203C100020301000205B
:104E0000480B01087C0B010812060020A40B0108C6
:104E1000C80B01083CEE000880EE000874EE0008A4
:104E200078EE0008EC0B0108F40B0108FC0B0108FC
:104E3000240C0108380C0108640C010838B55F48DF
:104E400007F014FE5E4C21785E4807F0A7FDFEF7E0
:104E500099FA01465C4807F0A1FD5C4B19885C4853
:104E600007F09CFD2378032B0CD8DFE803F0021138
:104E70001D7A584807F0FAFD514B01221A700020A4
:104E8000FFF7DCFF4E4B1978534807F087FD38BD1C
:104E9000524807F0EBFDFFF7F1FE494B02221A7072
:104EA0000020FFF7CBFFEDE74D4807F0DFFDFFF7F0
:104EB0007DFA4C4B1B7B8BB3FFF73CF970B14A4832
:104EC00007F0D4FDFFF776F9484C494B19682046A6
:104ED00006F002FE204606F0B9FDD3E7434C20461B
:104EE00006F05AFD434D284606F056FD424807F0AD
:104EF000BDFD334B03221A703A4A012353733F49D5
:104F00004B751373284606F0A1FD43F69821204601
:104F100006F0E2FD204606F099FDB3E7384807F0B9
:104F2000A5FD0021264B1970284B198042F2D002B2
:104F3000344807F0D3FE2D4C2D4B1968204606F05F
:104F4000CBFD204606F082FD2F4B1B78002B99D01D
:104F50002E4B5B6B4EF6602098472B4B00221A704D
:104F600090E72B4807F082FD00241E4B5C7321481C
:104F700006F012FD124B1C70144B1C8042F2D00242
:104F80002146204807F0AAFE184C194B1968204604
:104F900006F0A2FD204606F059FD1E4807F066FD0A
:104FA000194B1B78002B3FF46DAF184B5B6B4EF623
:104FB00060209847144B00221A7063E7980C010890
:104FC00046120020BC0C0108D00C0108BC350020A2
:104FD000E80C0108000D0108AC0E0108340D0108B1
:104FE000600D010830010020880D0108A435002063
:104FF000400100208C350020BC0D01084812002023
:10500000000E0108C0350020AB580020BC1001087C
:10501000440E01087C0E010808B500F015F808BD23
:1050200008B500F051F808BD08B500F08FF808BDCC
:1050300008B500F08DF808BD08B500F08BF808BD84
:1050400008B500F089F808BDF0B589B000240394D4
:1050500004940594069407944FF0B043DA6C42F040
:105060000102DA64DA6C02F001020292029ADA6C4E
:1050700042F00402DA64DB6C03F004030193019B49
:105080004FF40057039701230493032306930D4E17
:1050900003A9304600F0A4FB4FF40065039503A973
:1050A0004FF0904000F09CFB22463946304600F01D
:1050B000E7FC224629464FF0904000F0E1FC2046F4
:1050C00009B0F0BD0008004808B5032810D8DFE893
:1050D00000F002111F2D00224FF400614FF09040AC
:1050E00000F0CEFC00224FF40051174800F0C8FC3D
:1050F000002008BD01224FF400614FF0904000F005
:10510000BFFC00224FF400510F4800F0B9FCEFE75C
:1051100001224FF400614FF0904000F0B1FC0122F9
:105120004FF40051084800F0ABFCE1E701224FF4D6
:1051300000614FF0904000F0A3FC01224FF40051B9
:10514000014800F09DFCD3E70008004802207047AA
:10515000002070470120704708B90F2070471620C3
:105160007047704710B5032000F08CF800F020FE67
:10517000064B18600F20FEF703F910B101242046FA
:1051800010BD0446FDF7EEFFF9E700BF480100201F
:105190004FF0E022136923F00203136170474FF0D0
:1051A000E022136943F0020313617047024A536817
:1051B00043F0010353607047002004E0024A536843
:1051C00043F0020353607047002004E0024A536832
:1051D00043F0040353607047002004E0002807DB1D
:1051E00000F01F02400901239340024A42F8203098
:1051F000704700BF00E100E000280CDB00F01F0258
:105200004009012393402030034A42F82030BFF385
:105210004F8FBFF36F8F704700E100E0002808DB7D
:105220000901C9B200F1604000F5614080F8001347
:10523000704700F00F000901C9B2014B19547047C3
:1052400014ED00E000B500F00700C0F1070CBCF160
:10525000040F28BF4FF0040C031D062B0FD9C31EEB
:105260004FF0FF3E0EFA0CF021EA000199400EFAD1
:1052700003FE22EA0E0241EA02005DF804FB00236D
:10528000EEE70000074AD36823F4E0631B041B0C1D
:10529000000200F4E060034343F0BF6343F40033D3
:1052A000D360704700ED00E010B50446054BD868A8
:1052B000C0F30220FFF7C6FF01462046FFF7AEFF0E
:1052C00010BD00BF00ED00E008B5FFF787FF08BD87
:1052D00008B5FFF791FF08BD10B4C46CD0F850C0FA
:1052E000C4F804C0446D24B1846DD0F85CC0C4F827
:1052F00004C0446C04F01C0C012404FA0CF4D0F833
:1053000040C0CCF80440046863608368102B05D06B
:10531000036899600368DA6010BC704703689A609C
:105320000368D960F8E700000368144A934216D86E
:10533000426C22F0030202F1804202F502328264E2
:10534000DBB2083B0E4AA2FB03231B090D4AC264D1
:1053500003F01F03012202FA03F303657047426C56
:1053600022F00301084A0A448264DBB2083B044A83
:10537000A2FB03231B090733E8E700BF0704024031
:10538000CDCCCCCC800802401C080240436803F01E
:105390007F03074A1A4492004265064A8265013B30
:1053A00003F00303012202FA03F3C365704700BF51
:1053B0003F8200104009024000285ED010B504462C
:1053C00003682F4A934240D82E4A1A442E49A1FB23
:1053D00002121209920042642C4A0264022284F8EA
:1053E00025201A686FF30E121A6021680A68A368F4
:1053F000E06803432069034360690343A0690343F2
:10540000E0690343206A034313430B602046FFF720
:105410008BFFA368B3F5804F22D06368A26C03F0C2
:105420007F031360E36C226D5A606368013B032BBA
:1054300019D900236365A365E3650020E0630123B8
:1054400084F8253084F8240010BD114A1A440E490E
:10545000A1FB02121209920042640E4A0264BDE7E7
:1054600000236360D9E72046FFF790FF636D0022B9
:105470001A60A36DE26D5A60DFE70120704700BF3C
:1054800007040240F8FFFDBFCDCCCCCC00000240A9
:10549000F8FBFDBF0004024000284BD038B504469D
:1054A0000268136823F0010313600268224B9A42DA
:1054B0002CD8224B13442249A1FB03131B099B0048
:1054C0004364204B036400251560636C03F01C02E9
:1054D000216C012393404B602046FFF725FFA36C0E
:1054E0001D60E36C226D5A606368013B032B18D981
:1054F00000206065A065E065E06220636063A063F2
:10550000E06384F8250084F8240038BD0E4B134472
:105510000B49A1FB03131B099B0043640B4B036462
:10552000D1E72046FFF732FF636D1D60A36DE26D8A
:105530005A60DDE70120704707040240F8FFFDBF15
:10554000CDCCCCCC00000240F8FBFDBF00040240F3
:1055500038B5044690F82400012843D0012084F88F
:10556000240094F82500C0B2012806D08023E3630C
:10557000002384F82430012038BD022084F825005F
:105580000020E0632568286820F00100286020469C
:10559000FFF7A2FE236BD3B12268136843F00E031A
:1055A0001360A36C1A6812F4803F03D01A6842F4A7
:1055B00080721A60636D1BB11A6842F480721A60BF
:1055C0002268136843F0010313600020D4E72268C7
:1055D000136823F0040313602268136843F00A037E
:1055E0001360DEE70220C7E70346002834D090F8B6
:1055F0002520D2B2022A06D00422C263002280F8FB
:1056000024200120704701680A6822F00E020A6017
:10561000816C0A6822F480720A6001680A6822F0CC
:1056200001020A60426C02F01C01006C01228A40F7
:105630004260DA6C196D51605A6D32B1116821F413
:10564000807111609A6DD96D5160012283F8252017
:10565000002083F8240070470120704708B590F8B7
:105660002530DBB2022B03D00423C363012008BD25
:105670000268136823F00E0313600268136823F0B6
:1056800001031360826C136823F480731360436C0E
:1056900003F01C02016C012393404B60C36C026D4C
:1056A0005A60436D33B11A6822F480721A60836DB8
:1056B000C26D5A60012380F82530002380F8243021
:1056C000836B13B198470020D1E70020CFE700009B
:1056D00038B5036C196804682568436C03F01C0333
:1056E00004229A400A4215D015F0040F12D0236804
:1056F00013F0200F03D1236823F004032360436CCD
:1057000003F01C02016C042393404B60036B03B154
:10571000984738BD02229A400A4228D015F0020F5D
:1057200025D0236813F0200F06D1236823F00A0345
:105730002360012380F8253002681C4B9A420ED961
:10574000436C03F01C0202239340194A5360002368
:1057500080F82430C36A002BDBD09847D9E7436C2C
:1057600003F01C0202239340124A5360EFE7082221
:1057700002FA03F30B42CCD015F0080FC9D023680E
:1057800023F00E032360436C03F01C03016C012221
:1057900002FA03F34B60C26380F82520002380F8EF
:1057A0002430436B002BB4D09847B2E7800002400E
:1057B000000402400000024078B103681A6811F04A
:1057C000100F04D011F4801F04D042F480121A602C
:1057D0000020704722F48012F9E701207047000092
:1057E00070B5002369E085685E000324B44025EAB3
:1057F0000405CC68B4402C438460456825EA0C0558
:105800004C68C4F300149C402C43446066E0DD08FF
:10581000083550F8254003F0070C4FEA8C0C4FF088
:105820000F0E0EFA0CFE24EA0E0E0C6904FA0CF4AC
:1058300044EA0E0440F8254067E0022400E000241A
:1058400004FA0EF42C430CF1020C4B4D45F82C409D
:105850004A4C2568D44325EA0206D1F804C01CF45A
:10586000801F01D042EA0506444D2E606D6804EAAF
:105870000506D1F804C01CF4001F01D042EA050659
:105880003E4D6E60D5F8805004EA0506D1F804C09C
:105890001CF4803F01D042EA0506384DC5F880600F
:1058A000D5F884502C404E6816F4003F01D042EAEF
:1058B0000504324AC2F8844001330A6832FA03F41C
:1058C00058D04FF0010C0CFA03FC1CEA0202F3D092
:1058D0004C6804F00304013C012C84D94C6804F0AA
:1058E0000304032C0CD0C4685D004FF0030C0CFAC9
:1058F00005FC24EA0C0C8C68AC4044EA0C04C4603F
:105900004C6804F00304022C81D004684FEA430E73
:105910004FF0030C0CFA0EFC24EA0C0C4C6804F05B
:10592000030404FA0EF444EA0C0404604C6814F412
:10593000403FC1D04FEA930C0CF102050E4C54F8D5
:10594000255003F0030E4FEA8E0E072404FA0EF4DE
:1059500025EA0405B0F1904F3FF471AF084CA04226
:1059600006D004F58064A0423FF467AF072467E7E0
:10597000012465E770BD00BF000001400008005829
:1059800000040048002331FA03F271D0F0B52EE094
:10599000022500E0002505FA0CF5A54249D004686F
:1059A0005D004FF0030C0CFA05FC44EA0C040460A3
:1059B0004FEAD30E0EF1080E50F82E4003F0070602
:1059C000B6000F25B54024EA050440F82E4084684F
:1059D00024EA0C048460446824EA02024260C2683B
:1059E00022EA0C02C260013331FA03F23FD00122F5
:1059F0009A4012EA0107F6D09E08B51C1D4C54F8D7
:105A0000254003F0030C4FEA8C0C4FF0070E0EFA02
:105A10000CFE0EEA0404B0F1904FBBD0164DA84224
:105A200005D005F58065A842B2D00725B3E701256A
:105A3000B1E7124CD4F8805025EA0705C4F880502D
:105A4000D4F8845025EA0705C4F88450256825EA6F
:105A500007052560656825EA07056560054D02367E
:105A600055F8264024EA0E0445F8264097E7F0BD95
:105A7000704700BF000001400004004800080058C3
:105A80000AB18161704781627047436901EA03028C
:105A900021EA030141EA024181617047024A136829
:105AA00043F48073136070470004005810B50C462F
:105AB000A0B90F4B5B6913F4007F0AD10D4A13693B
:105AC00023F004031361012C10D040BF20BF20BF7E
:105AD00010BD00F021F80028F0D0F9E7044B5B6915
