:020000040800F2
:10000000008000202D5B0008613B0008693B000870
:10001000713B0008793B0008813B000800000000AC
:10002000000000000000000000000000893B000804
:10003000953B000800000000A13B0008AD3B000814
:100040007D5B00087D5B0008B93B00087D5B000814
:100050007D5B00087D5B00087D5B00087D5B000820
:100060007D5B00087D5B00087D5B0008CD3B0008E0
:100070007D5B00087D5B00087D5B00087D5B000800
:100080007D5B00087D5B00087D5B00087D5B0008F0
:100090007D5B00087D5B00087D5B00087D5B0008E0
:1000A0007D5B00087D5B00087D5B00087D5B0008D0
:1000B0007D5B00087D5B00087D5B00087D5B0008C0
:1000C0007D5B00087D5B00087D5B00087D5B0008B0
:1000D0007D5B0008E13B0008F53B00087D5B000804
:1000E0007D5B00087D5B00083D3C00087D5B0008EF
:1000F0007D5B00087D5B00087D5B00087D5B000880
:100100007D5B00087D5B0008513C00087D5B0008BA
:100110007D5B00087D5B00087D5B00087D5B00085F
:100120007D5B00087D5B00087D5B00087D5B00084F
:080130007D5B00087D5B000807
:1001400010B5054C237833B9044B13B10448AFF311
:1001500000800123237010BD50010020000000002A
:10016000B021010808B5034B1BB103490348AFF3A5
:10017000008008BD0000000054010020B0210108EB
:1001800081F0004102E000BF83F0004330B54FEA48
:1001900041044FEA430594EA050F08BF90EA020FB5
:1001A0001FBF54EA000C55EA020C7FEA645C7FEA48
:1001B000655C00F0E2804FEA5454D4EB5555B8BF6B
:1001C0006D420CDD2C4480EA020281EA030382EADC
:1001D000000083EA010180EA020281EA0303362D6E
:1001E00088BF30BD11F0004F4FEA01314FF4801C41
:1001F0004CEA113102D0404261EB410113F0004F53
:100200004FEA03334CEA133302D0524263EB430309
:1002100094EA050F00F0A780A4F10104D5F1200EA7
:100220000DDB02FA0EFC22FA05F2801841F1000102
:1002300003FA0EF2801843FA05F359410EE0A5F1D6
:1002400020050EF1200E012A03FA0EFC28BF4CF007
:10025000020C43FA05F3C01851EBE37101F00045BD
:1002600007D54FF0000EDCF1000C7EEB00006EEBCA
:100270000101B1F5801F1BD3B1F5001F0CD3490854
:100280005FEA30004FEA3C0C04F101044FEA4452AB
:1002900012F5800F80F09A80BCF1004F08BF5FEA32
:1002A000500C50F1000041EB045141EA050130BD12
:1002B0005FEA4C0C404141EB0101013C28BFB1F524
:1002C000801FE9D291F0000F04BF01460020B1FA6F
:1002D00081F308BF2033A3F10B03B3F120020CDA42
:1002E0000C3208DD02F1140CC2F10C0201FA0CF020
:1002F00021FA02F10CE002F11402D8BFC2F1200C85
:1003000001FA02F120FA0CFCDCBF41EA0C0190403A
:10031000E41AA2BF01EB0451294330BD6FEA040483
:100320001F3C1CDA0C340EDC04F11404C4F120026E
:1003300020FA04F001FA02F340EA030021FA04F380
:1003400045EA030130BDC4F10C04C4F1200220FAD7
:1003500002F001FA04F340EA0300294630BD21FA15
:1003600004F0294630BD94F0000F83F4801306BFDB
:1003700081F480110134013D4EE77FEA645C18BFCF
:100380007FEA655C29D094EA050F08BF90EA020F66
:1003900005D054EA000C04BF1946104630BD91EA5E
:1003A000030F1EBF0021002030BD5FEA545C05D161
:1003B0004000494128BF41F0004130BD14F58004A0
:1003C0003CBF01F5801130BD01F0004545F0FE4114
:1003D00041F470014FF0000030BD7FEA645C1ABF49
:1003E000194610467FEA655C1CBF0B46024650EA80
:1003F000013406BF52EA033591EA030F41F40021AC
:1004000030BD00BF90F0000F04BF0021704730B531
:100410004FF4806404F132044FF000054FF0000106
:1004200050E700BF90F0000F04BF0021704730B5C7
:100430004FF4806404F1320410F0004548BF40429C
:100440004FF000013EE700BF42004FEAE2014FEAF1
:1004500031014FEA02701FBF12F07F4393F07F4FCC
:1004600081F06051704732F07F4208BF704793F0CF
:100470007F4F04BF41F40021704730B54FF46074E2
:1004800001F0004521F000411CE700BF50EA0102E5
:1004900008BF704730B54FF000050AE050EA01028E
:1004A00008BF704730B511F0004502D5404261EBFE
:1004B00041014FF4806404F132045FEA915C3FF43F
:1004C000D8AE4FF003025FEADC0C18BF03325FEADC
:1004D000DC0C18BF033202EBDC02C2F1200300FA8D
:1004E00003FC20FA02F001FA03FE40EA0E0021FAB2
:1004F00002F11444BDE600BF80F0004002E000BFFE
:1005000081F0004142001FBF5FEA410392EA030FFE
:100510007FEA226C7FEA236C6AD04FEA1262D2EB48
:100520001363C1BFD218414048404140B8BF5B424D
:10053000192B88BF704710F0004F40F4000020F0E6
:100540007F4018BF404211F0004F41F4000121F0FC
:100550007F4118BF494292EA030F3FD0A2F1010246
:1005600041FA03FC10EB0C00C3F1200301FA03F184
:1005700000F0004302D5494260EB4000B0F5000FA7
:1005800013D3B0F1807F06D340084FEA310102F166
:100590000102FE2A51D2B1F1004F40EBC25008BF18
:1005A00020F0010040EA03007047490040EB0000E2
:1005B000013A28BFB0F5000FEDD2B0FA80FCACF1E3
:1005C000080CB2EB0C0200FA0CF0AABF00EBC25010
:1005D00052421843BCBFD0401843704792F0000FFE
:1005E00081F4000106BF80F400000132013BB5E751
:1005F0004FEA41037FEA226C18BF7FEA236C21D0C7
:1006000092EA030F04D092F0000F08BF084670472B
:1006100090EA010F1CBF0020704712F07F4F04D1F9
:10062000400028BF40F00040704712F100723CBF0C
:1006300000F50000704700F0004343F0FE4040F436
:10064000000070477FEA226216BF08467FEA2363F4
:100650000146420206BF5FEA412390EA010F40F4DF
:10066000800070474FF0000304E000BF10F000432B
:1006700048BF40425FEA000C08BF704743F0964312
:1006800001464FF000001CE050EA010208BF70472D
:100690004FF000030AE000BF50EA010208BF7047B4
:1006A00011F0004302D5404261EB41015FEA010CC9
:1006B00002BF84460146002043F0B64308BFA3F1C1
:1006C0008053A3F50003BCFA8CF2083AA3EBC253A3
:1006D00010DB01FA02FC634400FA02FCC2F12002C2
:1006E000BCF1004F20FA02F243EB020008BF20F0F9
:1006F0000100704702F1200201FA02FCC2F120025F
:1007000050EA4C0021FA02F243EB020008BF20EA53
:10071000DC7070474FF0FF0C1CEAD0521EBF1CEA81
:10072000D15392EA0C0F93EA0C0F6FD01A4480EA6F
:10073000010C400218BF5FEA41211ED04FF0006358
:1007400043EA501043EA5111A0FB01310CF0004084
:10075000B1F5000F3EBF490041EAD3715B0040EAAA
:10076000010062F17F02FD2A1DD8B3F1004F40EB7A
:10077000C25008BF20F00100704790F0000F0CF04D
:10078000004C08BF49024CEA502040EA51207F3A11
:10079000C2BFD2F1FF0340EAC250704740F40000EC
:1007A0004FF00003013A5DDC12F1190FDCBF00F0DD
:1007B00000407047C2F10002410021FA02F1C2F18B
:1007C000200200FA02FC5FEA310040F1000053EA27
:1007D0004C0308BF20EADC70704792F0000F00F075
:1007E000004C02BF400010F4000F013AF9D040EA7B
:1007F0000C0093F0000F01F0004C02BF490011F40F
:10080000000F013BF9D041EA0C018FE70CEAD1530C
:1008100092EA0C0F18BF93EA0C0F0AD030F0004C8C
:1008200018BF31F0004CD8D180EA010000F0004040
:10083000704790F0000F17BF90F0004F084691F0FE
:10084000000F91F0004F14D092EA0C0F01D1420238
:100850000FD193EA0C0F03D14B0218BF084608D101
:1008600080EA010000F0004040F0FE4040F400004B
:10087000704740F0FE4040F4400070474FF0FF0CDE
:100880001CEAD0521EBF1CEAD15392EA0C0F93EA25
:100890000C0F69D0A2EB030280EA010C49024FEA77
:1008A000402037D04FF0805343EA111143EA101330
:1008B0000CF000408B4238BF5B0042F17D024FF4E8
:1008C000000C8B4224BF5B1A40EA0C00B3EB510FC3
:1008D00024BFA3EB510340EA5C00B3EB910F24BFAC
:1008E000A3EB910340EA9C00B3EBD10F24BFA3EB31
:1008F000D10340EADC001B0118BF5FEA1C1CE0D1F9
:10090000FD2A3FF650AF8B4240EBC25008BF20F0AB
:10091000010070470CF0004C4CEA50207F32C2BFFF
:10092000D2F1FF0340EAC250704740F400004FF09C
:100930000003013A37E792F0000F00F0004C02BFCD
:10094000400010F4000F013AF9D040EA0C0093F097
:10095000000F01F0004C02BF490011F4000F013BF1
:10096000F9D041EA0C0195E70CEAD15392EA0C0F59
:1009700008D142027FF47DAF93EA0C0F7FF470AF91
:10098000084676E793EA0C0F04D14B023FF44CAFD4
:1009900008466EE730F0004C18BF31F0004CCAD169
:1009A00030F000427FF45CAF31F000437FF43CAFA5
:1009B0005FE700BF53B94AB9002908BF00281CBF30
:1009C0004FF0FF314FF0FF3000F088B9ADF1080C67
:1009D0006DE904CE00F006F8DDF804E0DDE902235D
:1009E00004B070472DE9F047089D8E4604468846BE
:1009F000002B4AD18A42174662D9B2FA82F64EB12A
:100A0000C6F1200301FA06F820FA03F3B74043EADF
:100A10000808B4404FEA174E1FFA87FCB8FBFEF1F6
:100A2000230C0EFB118843EA084301FB0CF29A42A7
:100A300009D9FB1801F1FF3080F0EA809A4240F2B8
:100A4000E78002393B449A1AA3B2B2FBFEF00EFBD8
:100A5000102243EA024300FB0CFC9C4509D9FB1819
:100A600000F1FF3280F0D6809C4540F2D3803B44B9
:100A7000023840EA0140A3EB0C0300211DB1F34012
:100A80000022C5E90032BDE8F0878B4205D90DB1DF
:100A9000C5E9000100210846F5E7B3FA83F1002912
:100AA00046D1734502D3824200F20581841A6EEB6F
:100AB000030201209046002DE5D0C5E90048E2E799
:100AC000002A00F09080B2FA82F6002E40F0A48056
:100AD0008A1A030C4FEA174E80B2BCB20121B2FB56
:100AE000FEFC0EFB1C2243EA024304FB0CF29A427A
:100AF00007D9FB180CF1FF3802D29A4200F2E080CD
:100B0000C4469B1AB3FBFEF20EFB123340EA0343CA
:100B100002FB04F49C4207D9FB1802F1FF3002D219
:100B20009C4200F2CA8002461B1B42EA0C40A5E729
:100B3000C1F120068B4022FA06F71F430EFA01F49A
:100B400020FA06F32EFA06FE4FEA1749234300FA6D
:100B500001F81FFA87FCBEFBF9F01C0C09FB10EE34
:100B600044EA0E4400FB0CFEA64502FA01F209D944
:100B70003C1900F1FF3A80F09C80A64540F2998034
:100B800002383C44A4EB0E041FFA83FEB4FBF9F3D5
:100B900009FB13444EEA044403FB0CFCA44508D9AA
:100BA0003C1903F1FF3E80F08280A4457FD9023BCF
:100BB0003C4443EA0040A4EB0C04A0FB02EC644577
:100BC0007346E14662D35FD05DB1B8EB030264EBDC
:100BD000090404FA06F622FA01F31E43CC40C5E9E3
:100BE000006400214FE7B1FBF2FC010C41EA0E4129
:100BF00080B240EA01423B4638463C46B846BE46D3
:100C00002026B1FBF7F1A2EB080241EA0C4166E7AE
:100C1000014618E710462CE7C6F120022EFA02F32F
:100C2000B740B14020FA02F24FEA174E0A43B3FB35
:100C3000FEF8BCB20EFB1833110C41EA034108FB6D
:100C400004F9B04089454FEA104380B23ED9791883
:100C500008F1FF3C01D289451FD8A1EB0901B1FB86
:100C6000FEF909FB04F80EFB191192B242EA0142A7
:100C7000424529D2BA1809F1FF31C4D24245C2D245
:100C8000A9F102013A44BEE7F0459DD2BEEB020352
:100C90006CEB070C0138E14696E7A7EB09094944DC
:100CA000A8F1020CB1FBFEF909FB04F8DBE773467F
:100CB0007FE7504666E70846FDE63B44023A33E7E5
:100CC000ACF1020C3B441CE749469CE7A1EB09014F
:100CD000C446B1FBFEF909FB04F8C4E7704700BF46
:100CE000034613F8012B002AFBD1181A013870476C
:100CF00001F0FF01102A2BDB10F0070F08D010F8CD
:100D0000013B013A8B422DD010F0070F42B3F6D1D0
:100D1000F0B441EA012141EA014122F007047FF0E9
:100D200000070023F0E80256083C85EA010586EA40
:100D3000010685FA47F5A3FA87F586FA47F6A5FA7C
:100D400087F68EB9EED1F0BC01F0FF0102F0070288
:100D500032B110F8013B013A83EA010313B1F8D133
:100D60000020704701387047002D06BF3546033814
:100D7000073815F0010F07D1013015F4807F02BF4D
:100D8000013015F4C03F0130F0BC0138704700BF9E
:100D9000002310B50446C0E90033C0E90433836082
:100DA00081814366C2818361194608225C3000F06C
:100DB000F4F80D4B63620D4BA3620D4BE3620D4BD8
:100DC00023630D4B24629C4206D003F168029442D7
:100DD00002D0D0339C4205D104F15800BDE8104048
:100DE00000F04EB910BD00BF150F0008370F000806
:100DF0006F0F0008930F00086C010020024A03499E
:100E0000034800F069B800BF000000207913000813
:100E10001000002041680C4B994210B5044601D0E7
:100E200000F0AAFAA168094B994202D0204600F0CE
:100E3000A3FAE168064B994204D02046BDE8104071
:100E400000F09ABA10BD00BF6C010020D401002050
:100E50003C02002010B50B4B0B4C0C4A1A6020468C
:100E600000220421FFF794FF04F168000122092108
:100E7000FFF78EFF04F1D0000222BDE810401221DE
:100E8000FFF786BFA40200206C010020FD0D0008C2
:100E9000014800F0F6B800BFAD020020014800F0A4
:100EA000F1B800BFAD02002010B50446FFF7F0FF17
:100EB000236A1BB1BDE81040FFF7F0BF044B23626B
:100EC000044B1B68002BF5D1FFF7C4FFF2E700BF0E
:100ED000150E0008A40200202DE9F84307468846B5
:100EE00014460026D4E90195B9F1010905D5246815
:100EF000002CF7D13046BDE8F883AB89012B07D928
:100F0000B5F90E30013303D029463846C0470643B1
:100F10006835E9E710B50C46B1F90E1000F068F835
:100F20000028ABBF636DA3891B1823F48053ACBFAB
:100F30006365A38110BD2DE9F0411F468B89DB0558
:100F400005460C46164605D5B1F90E1002230022BF
:100F500000F03CF8A389B4F90E1023F48053A38168
:100F600032463B462846BDE8F04100F053B810B584
:100F70000C46B1F90E1000F029F8431CA38915BFE7
:100F8000606523F4805343F48053A38118BFA38189
:100F900010BDB1F90E1000F009B8024403469342A7
:100FA00000D1704703F8011BF9E7000038B5064D82
:100FB0000023044608462B6002F02FFF431C02D199
:100FC0002B6803B1236038BDA802002038B5074D57
:100FD00004460846114600222A601A4602F041FFE4
:100FE000431C02D12B6803B1236038BDA802002046
:100FF00038B5074D04460846114600222A601A46B5
:1010000002F0D2FE431C02D12B6803B1236038BD2D
:10101000A802002038B5074D0446084611460022B4
:101020002A601A4602F0DDFE431C02D12B6803B190
:10103000236038BDA802002070B50D4D0D4C641B17
:10104000A4100026A64209D10B4D0C4C11F0B0F8AB
:10105000641BA4100026A64205D170BD55F8043BC0
:1010600098470136EEE755F8043B98470136F2E71A
:10107000A03C0108A03C0108A03C0108A43C0108D8
:10108000704770477047000038B50546002941D0C9
:1010900051F8043C0C1F002BB8BFE41800F0E0F836
:1010A0001D4A136833B9636014602846BDE83840B0
:1010B00000F0DCB8A34208D9206821188B4201BF98
:1010C00019685B6809182160EDE71A465B680BB187
:1010D000A342FAD911685018A0420BD120680144EC
:1010E000501883421160E0D118685B68536008446F
:1010F0001060DAE702D90C232B60D6E720682118AC
:101100008B4204BF19685B68636004BF09182160E3
:101110005460CAE738BD00BFB402002070B50F4E5E
:101120000C463168054611B900F04EF93060214691
:10113000284600F049F9431C03D14FF0FF34204604
:1011400070BDC41C24F00304A042F8D0211A284624
:1011500000F03AF90130F2D1EFE700BFB002002011
:101160002DE9F843CD1C25F0030508350C2D38BFBB
:101170000C25002D064601DBA94204D90C2333605F
:101180000020BDE8F883DFF8D48000F069F8D8F8D3
:1011900000301C4644BB29463046FFF7BFFF431CC6
:1011A000044658D1D8F800402746002F43D1002CE0
:1011B0004BD023683946304604EB030900F004F9AC
:1011C000814542D121686D1A29463046FFF7A6FFB6
:1011D00001303AD023682B442360D8F800305A6895
:1011E00062BBC8F800700FE02268521B20D40B2AA3
:1011F00017D96119A342256018BF5960636808BFF9
:10120000C8F8001062514B60304600F02FF804F12E
:101210000B00231D20F00700C21A1CBF1B1AA3508D
:10122000AFE76268A3420CBFC8F800205A60EBE742
:1012300023466468AEE73C467F68B6E71A465B68BB
:10124000A342FBD100235360DEE70C23336030461A
:1012500000F00CF894E70560D6E700BFB402002068
:101260000148FFF70EBF00BFAC0200200148FFF7A6
:1012700009BF00BFAC020020B1F90C20F8B5160779
:1012800005460C4654D44B68002B02DC0B6C002B3B
:1012900048DDE66A002E45D0002312F480522F6804
:1012A000216A2B6030D0626DA389590705D5636828
:1012B000D21A636B0BB1236CD21A0023E66A216A3F
:1012C0002846B047431CA38906D129681D292BD87D
:1012D000284ACA40D60727D500226260D90422696D
:1012E000226004D5421C01D12B6803B96065616B93
:1012F0002F60B9B104F14403994202D02846FFF7A8
:10130000C3FE002363630DE001232846B047024675
:10131000501CC9D12B68002BC6D01D2B01D0162B19
:101320001DD12F60002021E043F040031BB21AE0E2
:101330000F69002FF6D093070E6808BF4B690F6046
:1013400018BF0023F61B8B60002EEBDD216AD4F85A
:1013500028C033463A462846E047002807DCB4F95F
:101360000C3043F04003A3814FF0FF30F8BD074439
:10137000361AE9E70100402038B50B6905460C46EE
:1013800013B90025284638BD18B1036A0BB9FFF719
:101390008BFDB4F90C30002BF3D0626ED00704D46F
:1013A000990502D4A06DFFF76CFE28462146FFF791
:1013B00063FF636EDA070546E4D4A3899B05E1D495
:1013C000A06DFFF75FFEDDE738B5064D002304464C
:1013D00008462B6002F0B2FC431C02D12B6803B11B
:1013E000236038BDA802002080B500AF01F0ACFF3B
:1013F00000F00AF800BF80BD80B500AF4FF0FF30AD
:101400000CF00AF800BF80BD90B58BB00AAF524B0C
:101410000022002102200BF075FA0123029303231E
:101420000193012300934D4B0022002102200BF079
:1014300069FA012302930323019301230093484B8C
:101440000022002102200BF05DFA00230093454B9F
:101450000022C82144480CF07DF943480CF0B0F953
:10146000424B434A1A60414B424A9A603F4B424AC0
:101470005A603E4B414ADA603C4B414A1A61414B4B
:101480001B683A4898473F4BDB683F4898473F4BBB
:101490000022002102200BF035FA3D4B00220021F2
:1014A00002200BF02FFA7D2300933A4B00220021FB
:1014B00002200BF027FA07230093374B002200216C
:1014C00002200BF01FFA2F4BDC694EF660230893C5
:1014D000002307930023069300230593012304931D
:1014E000002303930823029301230193072300930E
:1014F000002300220E210120A047224B9C690123DA
:1015000009930023089300230793002306930123E4
:1015100005930023049300230393052302930823D8
:101520000193002300930123072200210120A047FB
:10153000144B5B6DFF2101209847FF2200211748C3
:10154000FFF72BFD164B0122002101200BF0DAF9E9
:1015500000BF0437BD4690BDC8210108DC21010849
:1015600000220108F91A0008DC040020B80200205B
:101570008D160008B9160008CD1A0008211B0008B6
:101580004D1B0008243A010800A1BC3324220108A5
:10159000382201084C22010860220108D8030020EB
:1015A0007022010880B582B002AF274B01220021D2
:1015B00001200BF0A7F9254B00221A804FF4965218
:1015C00000212348FFF7E9FC204B1B8819462148DE
:1015D0000FF0FEFE204B00221A70204B00225A72A0
:1015E000002300931E4B00221E491F480CF0B2F846
:1015F000002300931D4B00224FF4FA611C480CF0AD
:10160000A9F819480CF0DCF81A480FF051FF1A4BF2
:101610000122002101200BF075F9184A0021012058
:101620000BF0F6FF164B0122002101200BF06AF9A6
:10163000144B00221A70144B5B6B4EF660209847D7
:1016400000BFBD4680BD00BFB0220108B417002016
:10165000F4040020DC220108443300205C00002058
:10166000751C000820BF0200B8170020511E00089A
:10167000D01700201423010848230108791B000813
:101680007C230108D4020020243A010880B500AF71
:10169000074B0122002101200BF034F9054B0322F6
:1016A0001A70002101200BF0D5FF00BF80BD00BFE4
:1016B000AC230108D4020020F0B595B00AAFF86061
:1016C000084611461A4603467B810B463B8113466A
:1016D000FB71AE4B0122002101200BF013F9FB68D6
:1016E0000093AB4B0122002101200BF00BF9B7F95D
:1016F000083097F9072001920093A64B01220021A0
:1017000001200BF0FFF8A44AFB7913707B890D2BA5
:1017100040F26C81FB681B78D12B40F06781FB683D
:101720001B7887F82330FB685B7887F82230FB68EA
:1017300002331B781AB2FB6803331B781BB21B02FF
:101740001BB213433B84FB6804331B781AB2FB685B
:1017500005331B781BB21B021BB21343FB83FB68D0
:101760009B797B77FB6807331B781AB2FB680833D9
:101770001B781BB21B021BB213437B83FB6809332C
:101780001B781AB2FB680A331B781BB21B021BB210
:1017900013433B83FB680B331B781AB2FB680C3393
:1017A0001B781BB21B021BB21343FB82FB685B7BE3
:1017B0007B7597F82260B7F920301846FEF756FF80
:1017C000034676491846FFF759F803461846FEF7D0
:1017D0003BFE04460D46B7F91E301846FEF746FF9D
:1017E00003466E491846FFF749F803461846FEF7C8
:1017F0002BFE02460B46797FB7F91A00B7F918C0DD
:10180000C7F800C0B7F916E0CDF824E0D7F800C05B
:10181000CDF820C007900691CDE90423CDE902451B
:1018200000965F4B0122002101200BF06BF897F826
:101830002230002B00F0C08097F82230062B00F2F7
:10184000BB80584B1B88C72B00F2B680554B1B88BA
:10185000013397F82220194653480FF0B9FD514B38
:101860001B881946514A0B465B000B44DB001344AE
:1018700097F822201A704B4B1B8819464B4A0B468F
:101880005B000B44DB00134402333A8C1A80454B57
:101890001B881946454A0B465B000B44DB0013448A
:1018A0000433FA8B1A803F4B1B8819463F4A0B467C
:1018B0005B000B44DB00134406337A7F1A70394B0C
:1018C0001B881946394A0B465B000B44DB00134466
:1018D00008337A8B1A80334B1B881946334A0B46E0
:1018E0005B000B44DB0013440A333A8B1A802D4B08
:1018F0001B8819462D4A0B465B000B44DB00134442
:101900000C33FA8A1A80274B1B881C4601F092FD83
:101910000246264923465B002344DB000B44103378
:101920001A60204B1B881946204A0B465B000B446B
:10193000DB00134414333A891A801A4B1B8819466A
:101940001A4A0B465B000B44DB0013441633FA794A
:101950001A70144B1B8801339AB2124B1A80114B28
:101960001B88194612480FF033FD0E4B1B88194691
:1019700097F822300B4A12880292019300910D4B86
:101980000122002101200AF0BDFF2FE0B823010849
:10199000C4230108D4230108DB0400200000C8424E
:1019A000F8230108B417002044240108F40400209F
:1019B00074240108B0240108394B1B88C72B0FD9A8
:1019C00097F82230194637480FF002FD97F8223079
:1019D0000093354B0122002101200AF093FF05E01E
:1019E00097F82230194631480FF0F2FC304B0322B1
:1019F0001A70FF2200212F48FFF7CFFA2E4A7B8969
:101A000013802D4B1B88FF2B06D82B4B1B881A46A7
:101A1000F96828480FF092FE3B895AB2274B1A709A
:101A20007B890093264B0122002103200AF06AFFE4
:101A300000237B621DE01F4A7B6A13441B780093DE
:101A4000204B0122002103200AF05CFF7B6A5A42EE
:101A500003F00F0302F00F0258BF53420F2B05D1C2
:101A6000194B0122002103200AF04CFF7B6A01334D
:101A70007B627B6A3F2BDEDD134B002200210320BB
:101A80000AF040FF002101200BF0E4FD7B891A469B
:101A90000021F868FFF781FA00BF2C37BD46F0BD82
:101AA000B4170020E4240108282501086425010852
:101AB000D4020020D8020020D8040020DA0400203C
:101AC00098250108AC250108B425010880B500AFB0
:101AD000074B0122002101200AF014FF054B0422CC
:101AE0001A70002101200BF0B5FD00BF80BD00BFC2
:101AF000B8250108D402002080B582B000AF78601C
:101B00004FF40071044805F08CFF04480BF058FEB8
:101B100000BF0837BD4680BD00040048DC0400203B
:101B200080B500AF074B0122002101200AF0EAFE38
:101B3000054B01221A70002101200BF08BFD00BF24
:101B400080BD00BFC8250108D402002080B500AFC9
:101B5000074B0122002101200AF0D4FE054B02228E
:101B60001A70002101200BF075FD00BF80BD00BF81
:101B7000D8250108D402002080B500AF354B1B7872
:101B8000042B55D801A252F823F000BFA11B000876
:101B9000D71B0008F51B0008B91B0008131C000820
:101BA0002D4B0122002101200AF0ACFE2B4B5B6B78
:101BB0004EF6602098474AE0294B0122002101207F
:101BC0000AF0A0FE254B5B6B4EF660209847214B38
:101BD00000221A703BE0234B0122002101200AF071
:101BE00091FE1E4B5B6B4EF660209847194B00220E
:101BF0001A702CE01C4B0122002101200AF082FE09
:101C0000164B5B6B4EF660209847124B00221A7001
:101C10001DE0164B0122002101200AF073FE0F4B3C
:101C20005B6B4EF6602098470A4B00221A700EE05C
:101C30000F4B0122002101200AF064FE074B5B6B71
:101C40004EF660209847034B00221A7000BF00BF79
:101C500080BD00BFD4020020E4250108243A010819
:101C6000042601082C2601085826010880260108B0
:101C7000A426010880B582B000AF78605F480FF0FD
:101C800017FC5F4B1B7819465E480FF0A1FB01F073
:101C9000D1FB034619465C480FF09AFB5B4B1B884F
:101CA00019465B480FF094FB554B1B78032B00F251
:101CB0009A8001A252F823F0C91C0008DD1C00081C
:101CC000F51C0008831D000852480FF0F1FB4C4B37
:101CD00001221A700020FFF7CDFF84E04E480FF07C
:101CE000E7FB00F0D5F8464B02221A700020FFF700
:101CF000C1FF78E049480FF0DBFB00F04DFB484B9B
:101D00001B7A002B1AD047480BF0C8FD46480BF051
:101D1000C5FD46480FF0CCFB394B03221A70404BEF
:101D200001225A7240480BF04BFD43F698213D4882
:101D30000BF024FE3B480BF043FD51E03C480FF014
:101D4000B7FB2F4B00221A70304B00221A804FF441
:101D5000965200213748FFF720F9374931480BF0F8
:101D60000DFE30480BF02CFD344B1B78002B37D088
:101D7000334B5B6B4EF660209847304B00221A7055
:101D80002EE030480FF094FB254B00225A72244B72
:101D900000221A7224480BF081FD194B00221A70A0
:101DA0001A4B00221A804FF4965200212148FFF767
:101DB000F4F821491B480BF0E1FD1A480BF000FD37
:101DC00021480FF075FB1D4B1B78002B0AD01C4BD4
:101DD0005B6B4EF660209847184B00221A7001E0AA
:101DE00000BF00E000BF064B1B78194617480FF0F4
:101DF000EFFA00BF0837BD4680BD00BFCC26010802
:101E000044330020F026010804270108B4170020FD
:101E10001C270108342701086827010894270108B6
:101E20005C000020B8170020D0170020BC27010854
:101E300000280108F404002020BF0200D402002082
:101E4000243A0108442801087C280108AC2801082C
:101E500080B582B000AF7860094B5B7A002B0BD065
:101E6000084B1B78032B07D107480FF021FB00F02C
:101E7000CDFC06480BF0A4FC00BF0837BD4680BD72
:101E80005C00002044330020C4280108D017002043
:101E900080B5ADF5047D02AF5D480FF009FB5D4BE9
:101EA0001B78DBB219465C4B1B781A465B4B1B78E0
:101EB000DBB25B480FF08CFA564B1B78DBB2012B80
:101EC00003D058480FF0F4FA9DE04FF41672002149
:101ED0005548FFF762F855480FF0EAFA54480FF0FA
:101EE000E7FA544B1968544B1A68544B1868544B12
:101EF0001B680093034653480FF06AFA524B196867
:101F0000524B1A68524B1B78DBB252480FF060FA02
:101F10000023C7F804326FE0D7F8043201331946C2
:101F20004D480FF055FA3D4B00221A704B4B0122E1
:101F30001A70002102200BF08DFB01F093FE034686
:101F4000A7F80232B7F80232194645480FF040FAB6
:101F5000B7F80232002B3FD007F50273A3F50273E6
:101F600018464FF400731A460021FFF716F83B4657
:101F70004FF40071184601F0B3FE0346A7F8003293
:101F8000B7F800323A46194636480FF021FA3B4678
:101F9000354918460FF0B6FB0346002B1CD03B46D4
:101FA000324918460FF0AEFB0346002B07D13B46E3
:101FB0002F4918460FF0A6FB0346002B0CD02D48E6
:101FC0000FF076FA3B4619462B480FF001FA3B46D4
:101FD000184600F057F816E0104B1B78DBB2012BC7
:101FE00005D126480FF064FA0C4B00221A70D7F87E
:101FF00004320133C7F80432D7F80432022B8BDDE8
:102000001F480FF055FA07F50277BD4680BD00BFA7
:10201000F8280108B139002068000020C63C0020E3
:102020003429010870290108583700208C2901083B
:10203000BC290108343500203835002048350020FF
:1020400044350020DC2901083C35002040350020C3
:102050004C3500201C2A0108502A0108B039002004
:10206000782A01089C2A0108C02A0108C82A010808
:10207000CC2A0108D42A0108FC2A0108102B0108E7
:102080003C2B010880B58EB002AF786096480FF007
:102090000FFA7B68002B03D194480FF009FA1FE177
:1020A0007868FEF71DFE03461A46796890480FF0DF
:1020B0008FF9002387F82F300023BB628D497868A1
:1020C0000FF020FB0346002B00F0A3808A497868BC
:1020D0000FF018FB0346002B00F09B8087480FF0A1
:1020E000E7F9874978680FF00DFB786285497868D1
:1020F0000FF008FB38627B6A002B01D0824B00E0B6
:10210000824B194682480FF063F93B6A002B01D0DD
:102110007D4B00E07D4B19467E480FF059F97B6AF4
:10212000002B00F0A1803B6A002B00F09D807B6AB1
:102130000A337B6202E07B6A01337B627B6A1B7835
:10214000202BF8D07B6A1B783A2BF4D0786A0FF0FA
:10215000B6F8034687F82F3097F82F307A6A194679
:102160006D480FF035F93B6A09333B6202E03B6A88
:1021700001333B623B6A1B78202BF8D03B6A1B780B
:102180003A2BF4D0396A65480FF022F907F10C03B5
:1021900000221A605A609A60DA600023FB610CE04A
:1021A000FB693A6A1344197807F10C02FB6913447E
:1021B0000A461A70FB690133FB61FB693A6A1344F2
:1021C0001B782F2B08D9FB693A6A13441B78392BEB
:1021D00002D8FB690E2BE3DD07F10C02FB69134407
:1021E00000221A7007F10C0318460FF068F8034636
:1021F000BB6207F10C03BA6A194649480FF0E8F8C8
:1022000097F82F1007F10C03BA6A46480FF0E0F870
:102210002AE07B681B78A12B27D17868FEF760FD48
:102220000346062B21D97B6801331B7887F82F30B2
:102230007B6802331B781A467B6803331B781B02CA
:102240001A437B6804331B781B041A437B680533ED
:102250001B781B061343BB6297F82F30BA6A1946E6
:1022600031480FF0B5F800E000BF97F82F30002B91
:1022700021D0BB6A002B1ED02C4B1B7897F82F2047
:102280009A4218D0294B1B78184697F82F20274BD5
:102290005968BB6A00930B46014625480FF098F831
:1022A00097F82F30B96A184600F04AF8214A97F893
:1022B0002F30137014E01D4B1B7897F82F209A4293
:1022C00007D197F82F30BA6A19461B480FF080F8EB
:1022D00006E097F82F30BA6A194618480FF078F8D8
:1022E0003037BD4680BD00BF702B01089C2B010814
:1022F000D02B0108C02A0108C82A0108082C0108AF
:10230000282C0108342C0108402C0108442C010819
:10231000482C0108682C0108882C0108BC2C0108F5
:10232000E02C0108142D0108602D01085C0000203C
:102330009C2D010845330020DC2D0108202E0108CA
:1023400080B582B000AF03463960FB710F4B1B783C
:1023500019460E4B5B681A460D480FF039F80B4AC8
:10236000FB791370094A3B685360084B01221A72CB
:10237000064B1B781946054B5B681A4605480FF05B
:1023800027F800BF0837BD4680BD00BF5C000020B5
:10239000682E0108A42E0108F0B59DB00CAF994B32
:1023A0001B88194698480FF013F8964B1B88002B92
:1023B00030D1964B1B680133944A1360934B1C68D1
:1023C00001F038F80246924B1B781946904B5B6837
:1023D00002930191009223468E4A41F658318E486D
:1023E0000FF06EF878624FF4167200218B48FEF7FA
:1023F000D4FD7B6A9AB20023029300230193002349
:102400000093854B8649854802F0A6FF85480FF06A
:102410004FF8E6E10023FB630023BB63DAE17B4B6B
:102420001B680133794A1360784B1C6801F002F88D
:10243000774B1B781D46764B5A68BB6B591CB963AA
:1024400003930292019500902346774A41F6583152
:1024500071480FF035F8786301233B63FB6BFB6237
:102460007DE13B6B002B01D0704D00E0704DFB6AAD
:10247000581C7049FA6A13465B001344DB000B4496
:102480001B781E466B49FA6A13465B001344DB0057
:102490000B440233B3F90030FB616649FA6A134614
:1024A0005B001344DB000B440433B3F90030BB6121
:1024B0006049FA6A13465B001344DB000B440633A1
:1024C0001B787B615B49FA6A13465B001344DB00AF
:1024D0000B440833B3F900303B615649FA6A13469E
:1024E0005B001344DB000B440A33B3F90030FB609C
:1024F0005049FA6A13465B001344DB000B440C336B
:10250000B3F90030BB604B49FA6A13465B001344D1
:10251000DB000B4410331C684649FA6A13465B0023
:102520001344DB000B441433B3F900307B604149A2
:10253000FA6A13465B001344DB000B44163393F92D
:1025400000300A937A6809920894BA680792FA6888
:1025500006923A6905927A690492BA690392FB6914
:102560000293019600902B46334A002100200EF082
:10257000A7FFB8627A6BBB6A13440A331A4641F666
:1025800057339A4230D97B6B234A98187B6BC3F53B
:10259000DA531833294A19460EF092FF02467B6B34
:1025A00013447B634FF4167200211C48FEF7F5FCC0
:1025B0007B6B9AB2002302930023019300230093C4
:1025C000154B1749154802F0C7FEBB6B591EFA6A36
:1025D000FB6BD21A0B4B1B880093FB6A18480EF05A
:1025E000F7FEFB6AFB63F5E07B6B0B4A03EB020C27
:1025F0007B6BC3F5DA5018303B6B002B22D00B4BB2
:10260000FB6121E0B4170020F42E0108E817002038
:102610005C0000202C2F0108EC1700205837002008
:10262000DA000020C02F0108E42F01088C300108D7
:1026300090300108F4040020943001082031010892
:1026400028310108684BFB61FB6A5D1C6749FA6A27
:1026500013465B001344DB000B441B78BB616349EA
:10266000FA6A13465B001344DB000B440233B3F9F0
:1026700000307B615D49FA6A13465B001344DB005E
:102680000B440433B3F900303B615849FA6A1346EE
:102690005B001344DB000B4406331B78FB6053499B
:1026A000FA6A13465B001344DB000B440833B3F9AA
:1026B0000030BB604D49FA6A13465B001344DB00EF
:1026C0000B440A33B3F900307B604849FA6A134679
:1026D0005B001344DB000B440C33B3F900303B6068
:1026E0004249FA6A13465B001344DB000B44103383
:1026F0001C683E49FA6A13465B001344DB000B4436
:102700001433B3F900301E463849FA6A13465B00A9
:102710001344DB000B44163393F900300A930996F7
:1027200008943A6807927A680692BA680592FA683D
:1027300004923A6903927A690292BB690193009507
:10274000FB692B4A014660460EF0BAFE02467B6BDF
:1027500013447B6300233B63FB6A0133FB62254B1D
:102760001B881A46FB6A9342FFF67BAE7B6B224ABC
:1027700098187B6BC3F5DA531833204A19460EF0CC
:102780009FFE02467B6B13447B634FF4167200215D
:102790001B48FEF702FC7B6B9AB2002302930023D6
:1027A000019300230093144B1649154802F0D4FD01
:1027B000BB6B591E0F4B1B881A46FB6BD21A0D4B75
:1027C0001B8818460B4B1B88009303460E480EF0DF
:1027D000FFFD06E0074B1B881A46FB6B9342FFF692
:1027E0001EAE4437BD46F0BD90300108F404002011
:1027F00094300108B4170020EC17002020310108A4
:1028000058370020DA0000202831010880B584B054
:1028100002AFA1233B701F4B1B787B701D4B5B6885
:10282000DBB2BB701B4B5B681B0ADBB2FB70194B46
:102830005B681B0CDBB23B71164B5B681B0EDBB29B
:102840007B713B460621184600F02EF80346BB710B
:102850003B7819467B7818460E4B5B68BA79009234
:1028600002460D480EF0B4FD0C4B3A4692E80300C8
:1028700018600433198002330A0C1A70084B9B6AE3
:1028800007210648984707480EF012FE00BF083798
:10289000BD4680BD5C0000205C310108D8030020EB
:1028A000243A0108B031010880B485B000AF7860E7
:1028B0000B46FB700023FB7331233B730023BB7378
:1028C00023E0BB7B7A6813441A78FB7B5340FB738D
:1028D00000237B7313E097F90F30002B09DA97F987
:1028E0000F305B005AB297F90C3053405BB2FB7368
:1028F00002E0FB7B5B00FB737B7B01337B737B7BA9
:10290000072BE8D9BB7B0133BB73BA7BFB789A42B8
:10291000D7D3FB7B18461437BD4680BC704780B5C3
:1029200000AF09F01BFF0346184680BD80B582B09A
:1029300000AF0346FB71FB79184609F04BFF0346D5
:1029400018460837BD4680BD80B500AF09F096FF38
:102950000346184680BD80B500AF09F096FF0346D8
:10296000184680BD80B500AF09F096FF03461846B3
:1029700080BD80B582B000AF0346FB71FB7918467D
:1029800009F091FF034618460837BD4680BD80B464
:1029900083B000AF78604FF0B043D3F8903023F0AD
:1029A00018024FF0B0417B681343C1F8903000BF6C
:1029B0000C37BD4680BC704780B500AF05F058FEAF
:1029C00000F064F800F0FAF8FEF70EFD00F0F4F9FC
:1029D00003F044F8254A002102200AF019FE0021E4
:1029E00002200AF037FE224B1B680133204A136095
:1029F000204B1B78DBB2012B0CBF01230023DBB281
:102A00001A461D4B1A701B4B1B78DBB2012B0FD1E2
:102A10001A4B1B78DBB2002B0AD119480EF0D8FCF8
:102A2000FEF7C0FD154B01221A7016480EF0D0FCBF
:102A3000124B1B78DBB2002B01D0FEF7DDFC124BF2
:102A40001B680133104A13600F4B1B68B3F57A7F84
:102A500006D90D4B00221A60002102200AF0FAFD6F
:102A60004FF0FF300AF0D8FCBDE700BFE53E00089C
:102A70004C330020B1390020503300204633002071
:102A8000D4310108083201084833002080B59AB0DB
:102A900000AF07F12003482200211846FEF77DFA17
:102AA0003B1D00221A605A609A60DA601A615A610E
:102AB0009A6105F0E7FB0020FFF769FF1E4B1B68DA
:102AC00023F4C0631C4A43F4007313601A4B1B6861
:102AD00003F4C0633B603B6824233B628123FB62B9
:102AE00001233B6400237B64B023BB640023FB64AD
:102AF00007F12003184603F0F3FC0346002B01D036
:102B000000F03EF84F237B600023BB600023FB6096
:102B100000233B6100237B610023FB613B1D0221FD
:102B2000184604F05FF80346002B01D000F028F8A7
:102B300000BF6837BD4680BD0004005880B487B030
:102B400000AF786041F20A133B6100237B610DE026
:102B50000023FB6003E000BFFB680133FB60FB6800
:102B60003A699A42F7D87B6901337B617A697B685D
:102B70009A42EDD300BF00BF1C37BD4680BC7047F2
:102B800080B400AF72B600BF00BFFDE780B485B06F
:102B900000AF78604FF0B043DA6C4FF0B0417B6823
:102BA0001343CB644FF0B043DA6C7B681340FB6097
:102BB000FB6800BF1437BD4680BC704780B586B047
:102BC00000AF3B1D00221A605A609A60DA601A61F9
:102BD0000220FFF7DBFF0420FFF7D8FF0120FFF7FB
:102BE000D5FF00224FF43241264804F003FF0022B3
:102BF0000821254804F0FEFE4FF402437B600123C8
:102C0000BB600023FB6002233B613B1D19461D484E
:102C100004F0C2FC08237B600123BB600023FB603F
:102C200000233B613B1D1946174804F0B5FC032304
:102C30007B604FF40413BB600123FB603B1D19460E
:102C40004FF0904004F0A8FC4FF440537B60012308
:102C5000BB600023FB6003233B613B1D1946094811
:102C600004F09AFC40237B604FF40413BB60012303
:102C7000FB603B1D1946044804F08EFC00BF18376A
:102C8000BD4680BD000400480008004880B485B0FF
:102C900000AF78604FF0B0439A6C4FF0B0417B6862
:102CA00013438B644FF0B0439A6C7B681340FB6016
:102CB000FB6800BF1437BD4680BC704780B500AFCD
:102CC0000420FFF7E3FF0120FFF7E0FF00220021CF
:102CD0000B2005F06CFC0B2005F083FC00BF80BDD1
:102CE00080B485B000AF78604FF0B043DA6C4FF03D
:102CF000B0417B681343CB644FF0B043DA6C7B6820
:102D00001340FB60FB6800BF1437BD4680BC7047B2
:102D100080B485B000AF78604FF0B0439A6D4FF04B
:102D2000B0417B6813438B654FF0B0439A6D7B686D
:102D30001340FB60FB6800BF1437BD4680BC704782
:102D400080B485B000AF78604FF0B043DA6D4FF0DB
:102D5000B0417B681343CB654FF0B043DA6D7B68BD
:102D60001340FB60FB6800BF1437BD4680BC704752
:102D700080B483B000AF78604FF0B0439A6D7B6849
:102D8000DB434FF0B04113408B6500BF0C37BD46AD
:102D900080BC704780B483B000AF78604FF0B04320
:102DA000DA6D7B68DB434FF0B0411340CB6500BF69
:102DB0000C37BD4680BC704780B500AF224B234A1C
:102DC0001A60214B4FF4E1325A601F4B00229A6087
:102DD0001D4B0022DA601C4B00221A611A4B0C2298
:102DE0005A61194B00229A61174B00221A62164B46
:102DF00000225A62144B00229A62134B00225A6638
:102E0000114805F0A4FC0346002B01D0FFF7B8FEE3
:102E100000210D4808F049F80346002B01D0FFF7C8
:102E2000AFFE0021084808F07EF80346002B01D0D1
:102E3000FFF7A6FE044808F000F80346002B01D077
:102E4000FFF79EFE00BF80BD54330020008000408D
:102E500080B500AF224B234A1A60214B4FF4E13278
:102E60005A601F4B00229A601D4B0022DA601C4BF7
:102E700000221A611A4B0C225A61194B00229A61E6
:102E8000174B0022DA61164B00221A62144B002203
:102E90005A62134B00229A62114805F058FC03460F
:102EA000002B01D0FFF76CFE00210D4807F0FDFF5D
:102EB0000346002B01D0FFF763FE0021084808F00D
:102EC00032F80346002B01D0FFF75AFE044807F002
:102ED00079FF0346002B01D0FFF752FE00BF80BDF3
:102EE000E83300200044004080B596B000AF786021
:102EF00007F1440300221A605A609A60DA601A618E
:102F000007F10C03382200211846FEF746F87B68CB
:102F10001B684C4A93422CD12023FB600023FB61A9
:102F200007F10C03184604F01DFA0346002B01D0EC
:102F3000FFF726FE0120FFF703FF0420FFF7D0FE76
:102F400003237B640223BB640023FB6403233B65F0
:102F500008237B6507F1440319463B4804F01CFB3A
:102F600000220221262005F022FB262005F039FB55
:102F700064E07B681B68354A93425FD10223FB60A3
:102F8000334B7B6107F10C03184604F0EBF9034661
:102F9000002B01D0FFF7F4FD4FF40030FFF7B8FE2F
:102FA0000120FFF79DFE0C237B640223BB640023FA
:102FB000FB6403233B6507237B6507F14403194644
:102FC0004FF0904004F0E8FA224B234A1A60214B5C
:102FD00014225A601F4B10229A601E4B0022DA60A6
:102FE0001C4B80221A611B4B00225A61194B002294
:102FF0009A61184B0022DA61164B00221A621548BA
:1030000004F028FD0346002B01D0FFF7B9FD102185
:10301000104805F05FF80346002B01D0FFF7B0FD24
:103020007B680C4ADA670B4A7B68936200220221B4
:10303000252005F0BCFA252005F0D3FA00BF58374B
:10304000BD4680BD008000400008004800440040AC
:1030500004000C007C3400200800024080B582B0DF
:1030600000AF78607B681B68134A93420AD1012045
:10307000FFF790FE0321114804F0EEFB262005F037
:10308000BEFA15E07B681B680D4A934210D14FF4DD
:103090000030FFF76DFE0C214FF0904004F0DCFB98
:1030A0007B68DB6F184604F07DFD252005F0A7FA4C
:1030B00000BF0837BD4680BD0080004000080048C2
:1030C0000044004080B400AF4FF0B043D3F89030DC
:1030D0004FF0B04243F40043C2F8903000BFBD4609
:1030E00080BC704780B485B000AF78604FF0B043CB
:1030F0009A6D4FF0B0417B6813438B654FF0B0433E
:103100009A6D7B681340FB60FB6800BF1437BD46B7
:1031100080BC704780B58CB000AF3B1D2C220021D5
:103120001846FDF73AFF224B224A1A60204B1F2215
:103130009A601F4B00221A611D4B00225A611C4BE2
:1031400000229A611A4B4FF08042DA61184B00223C
:103150001A62174B4FF480725A62154807F090FFBD
:103160000346002B01D0FFF70BFD114808F086FA4B
:103170000346002B01D0FFF703FD00233B62002331
:10318000BB600023BB614FF00053FB614FF48073C1
:10319000FB623B1D00221946054807F0F3FF03467A
:1031A000002B01D0FFF7ECFC00BF3037BD4680BDDF
:1031B000DC3400200028004080B590B000AF78607B
:1031C00007F10803382200211846FDF7E6FE7B6868
:1031D0001B68164A934225D14FF48033BB604FF4ED
:1031E0008073FB6307F10803184604F0BBF803463D
:1031F000002B01D0FFF7C4FCFFF764FF4FF48060A1
:10320000FFF770FF00220021022005F0D0F9022014
:1032100005F0E7F9002200212A2005F0C8F92A204C
:1032200005F0DFF900BF4037BD4680BD00280040F3
:1032300080B485B000AF78604FF0B0435A6E4FF065
:10324000B0417B6813434B664FF0B0435A6E7B68C6
:103250001340FB60FB6800BF1437BD4680BC70475D
:1032600080B500AF064B08221A60054808F02EFB17
:103270000346002B01D0FFF783FC00BF80BD00BFD9
:103280001435002080B582B000AF78600120FFF7D0
:10329000CFFF00220021322005F089F9322005F00D
:1032A000A0F900BF0837BD4680BD000080B400AF64
:1032B000034B0122C3F8882000BFBD4680BC704785
:1032C0000004005880B400AF00BFBD4680BC70470A
:1032D00080B400AF00BFBD4680BC704780B500AF72
:1032E00005F0E6F9FFF7E2FF012005F05DF800BF09
:1032F00080BD80B500AF05F0E9F900F003FC00BF28
:1033000080BD80B500AF05F0D3F90121002004F0A5
:10331000C7FF00BF80BD80B500AF05F0D7F900BF83
:1033200080BD80B483B000AF78604FF0B0439B683D
:1033300023F400424FF0B0417B6813438B6000BF21
:103340000C37BD4680BC704780B500AF0020FFF74A
:10335000E8FF0AF0EFF90A4B01221A7000F0B6F804
:1033600009F0B4FA074809F04DFB022009F058FBB8
:103370000AF070FC012101200AF0ACFC00BF80BD06
:10338000203500209533000880B500AF0AF0D2FC4C
:1033900000BF80BD80B586B002AF7860396007F1AC
:1033A0000803184609F09AFDBB68B7F90C20009293
:1033B000074A1021786800F01DF87868FDF790FC46
:1033C00003469AB23B681A8000BF1037BD4680BDE5
:1033D0003432010880B500AF012102200AF04AFC16
:1033E00000BF80BD80B500AF002102200AF042FC82
:1033F00000BF80BD0CB480B584B000AF7860396088
:1034000007F11C03FB603968FB68BA69786809F04A
:10341000B1FE00BF1037BD46BDE8804002B0704726
:1034200080B483B000AF7860002318460C37BD46E7
:1034300080BC704780B582B000AF00237B60064B34
:103440001B78002B02D000F03FF978607B681846AB
:103450000837BD4680BD00BF2035002080B582B052
:1034600000AF78607B681846FFF768FB00BF08373D
:10347000BD4680BD80B485B000AF78604FF0B043EA
:10348000DA6C4FF0B0417B681343CB644FF0B0432C
:10349000DA6C7B681340FB60FB6800BF1437BD46E5
:1034A00080BC704780B483B000AF7860064BD3F81F
:1034B000902005497B681343C1F8903000BF0C375A
:1034C000BD4680BC704700BF0008005880B586B07C
:1034D00000AF4FF48040FFF7E5FF05F005F905F078
:1034E00009F905F00DF93B1D00221A605A609A6037
:1034F000DA601A610123BB600023FB6003233B6198
:103500000220FFF7B7FF0220FFF7B4FF4FF480530C
:103510007B603B1D19460D4804F03EF84FF4005304
:103520007B603B1D1946094804F036F800224FF431
:103530008051064804F05EFA00224FF4005103481F
:1035400004F058FA00BF1837BD4680BD000400489B
:1035500080B483B000AF78607B689B6818460C37F6
:10356000BD4680BC7047000080B582B000AF00232C
:10357000FB71144B1B7883F00103DBB2002B1BD0D3
:10358000114B4FF0FF321A63FFF7C4FD00F056F8FD
:103590004FF480710C4807F001FF0B4B4FF0FF32E6
:1035A0001A63094808F038F8002000F0B9F900F073
:1035B0005FF8044B01221A70FB7918460837BD46A4
:1035C00080BD00BF21350020DC34002080B58EB0E6
:1035D00000AF7860002387F8373007F108032C220A
:1035E00000211846FDF7D9FC00F028F8114B1B68A4
:1035F0007A6813447B6000237B627B68DB43FB605B
:103600000023FB614FF000533B624FF480733B6338
:1036100007F1080301221946074807F0B3FD0346E6
:10362000002B01D0FFF7ACFA97F83730184638373F
:10363000BD4680BD24350020DC34002080B582B03A
:1036400000AF0023FB71084B0122DA654FF4807153
:10365000064807F0A3FE054B4FF0FF321A63FB79D3
:1036600018460837BD4680BD00280040DC340020E5
:1036700080B500AF00F074F90346034A1360024BB3
:103680001B68184680BD00BF2435002080B400AF01
:10369000024B1B681846BD4680BC7047243500208D
:1036A00080B582B000AF00237B6000F059F902467C
:1036B000044B1B68D31A7B607B6818460837BD46ED
:1036C00080BD00BF2435002080B582B000AF00234C
:1036D0007B60064B1B78002B02D000F041F978602C
:1036E0007B6818460837BD4680BD00BF21350020E5
:1036F00080B483B000AF00237B6003237B607B68D2
:1037000018460C37BD4680BC7047B0B584B000AFDA
:1037100078600021F960796800200A460346950D1B
:1037200094024FF47A724FF0000320462946FDF7C9
:1037300041F902460B461346FB60FB6818461037FA
:10374000BD46B0BD2DE9B00F85B000AF7860002157
:10375000F960796800200C460546204629464FF05E
:10376000000A4FF0000B4FEA411B4BEAD06B4FEAC7
:10377000401A50465946021B61EB05034FF000000A
:103780004FF00001990041EA9271900002460B4609
:1037900012EB040843EB05094FF000024FF0000361
:1037A0004FEAC90343EA58734FEAC8029046994664
:1037B000404649464FF000024FF00003820A42EAB9
:1037C00081528B0A1346FB60FB6818461437BD46CE
:1037D000BDE8B00F704780B582B000AF78600AF0E6
:1037E000F7F800BF0837BD4680BD80B584B000AF94
:1037F000786000F0A5F8F860FB680133184600F027
:103800008FF800BF1037BD4680BD2DE9B04F8CB09A
:1038100000AF78610023FB6200F0A2F8B86200F00C
:103820008FF878627B6A0022BB60FA604FF000027A
:103830004FF00003B9680B000022B96A00200C4663
:10384000054612EB040843EB0509C7E90689D7E9E9
:1038500006014FF000024FF00003820A42EA815253
:103860008B0A1346FB62BB6900223B607A603B68AF
:10387000C3F3090A4FF0000BC7E906ABBB69184652
:10388000FFF760FF03469AB27B691A80FB6A18460D
:103890003037BD46BDE8B08F80B582B000AF7860EC
:1038A0007A680021034807F049FF00BF0837BD468A
:1038B00080BD00BFDC34002080B582B000AF7860EE
:1038C0007A680121034807F039FF00BF0837BD4679
:1038D00080BD00BFDC34002080B582B000AF002383
:1038E0007B600021044807F041FF78607B68184640
:1038F0000837BD4680BD00BFDC34002080B582B0F3
:1039000000AF00237B600121044807F02FFF78609F
:103910007B6818460837BD4680BD00BFDC340020F8
:1039200080B582B000AF78607A680221034807F062
:1039300005FF00BF0837BD4680BD00BFDC34002056
:1039400080B582B000AF0221044807F00FFF786015
:103950007B6818460837BD4680BD00BFDC340020B8
:1039600080B582B000AF0B48FFF7F2FD786003E04E
:103970000848FFF7EDFD78600648FFF7E9FD0246CD
:103980007B689342F4D17B68DB4318460837BD4619
:1039900080BD00BF0028004080B483B000AF7860D5
:1039A0004FF0B0439A6B4FF0B0417B6813438B6389
:1039B00000BF0C37BD4680BC704780B483B000AFF9
:1039C00078604FF0B0439A6B7B68DB434FF0B041B7
:1039D00013408B6300BF0C37BD4680BC70470000AE
:1039E00080B483B000AF7860064BD3F880200549DF
:1039F0007B681343C1F8803000BF0C37BD4680BCE4
:103A0000704700BF0008005880B582B000AF7860F2
:103A1000074A7B681360FFF751F9FFF719FA4FF077
:103A20000060FFF7DDFF002318460837BD4680BD64
:103A30002C35002080B500AF4FF40030FFF7ACFF0D
:103A40004FF40030FFF7B9FF0448FFF707FB0F20E2
:103A500004F0D5FD0023184680BD00BFE8330020E8
:103A600080B582B000AF78600B467B807B881A46B9
:103A70007968044805F052F8002318460837BD4617
:103A800080BD00BFE833002080B584B000AF78600F
:103A9000194A7B6813604FF40013BB6007F10803F9
:103AA00093E80600154807F000F900BF134B1B68A8
:103AB000DB6903F48033B3F5803FF7D000BF0F4BD1
:103AC0001B68DB6903F48003B3F5800FF7D10B4B60
:103AD0001B689A68094B1B6842F480029A60074889
:103AE00007F03EF901220649044804F0CBFF002309
:103AF00018461037BD4680BD30350020E833002021
:103B00002835002080B500AF084804F020FE0346A9
:103B1000002B01D0FFF734F8054803F09BFF034664
:103B2000002B01D0FFF72CF800BF80BDE833002048
:103B30007C34002080B582B000AF78607B681B6861
:103B4000054A934203D1054B1B680020984700BFEC
:103B50000837BD4680BD00BF004400402C35002022
:103B600080B400AF00BFFDE780B400AF00BFFDE749
:103B700080B400AF00BFFDE780B400AF00BFFDE739
:103B800080B400AF00BFFDE780B400AF00BFBD460A
:103B900080BC704780B400AF00BFBD4680BC70479A
:103BA00080B400AF00BFBD4680BC704780B400AF9A
:103BB00000BFBD4680BC704780B500AF024807F02B
:103BC00099FD00BF80BD00BFDC34002080B500AF90
:103BD000024804F0B9F900BF80BD00BF7C3400206A
:103BE00080B500AF024805F0E7F800BF80BD00BF18
:103BF000E833002080B582B000AF0E4B1B68013364
:103C00000C4A13600C4B1B68DB697B607B6803F01C
:103C10002003002B07D0084B1B685B6AFB70FB7806
:103C2000184601F0EDFF044805F0C6F800BF08375C
:103C3000BD4680BD343500205433002080B500AF30
:103C4000024807F007FC00BF80BD00BFDC34002045
:103C500080B500AF024808F0BBF800BF80BD00BFD0
:103C60001435002080B400AF034B1B889BB218466C
:103C7000BD4680BC704700BF5237002080B483B07F
:103C800000AF144B1B889BB2002B1DD0124B1B881E
:103C90009BB21A46114B9B5CFB710F4B1B889BB26E
:103CA00001335A42C3F30803C2F3080258BF534218
:103CB0009AB2094B1A80074B1B889BB2013B9AB200
:103CC000044B1A80FB7900E0002318460C37BD46F0
:103CD00080BC7047523700205037002050350020FC
:103CE00090B585B000AF78600B467B800023FB81E8
:103CF00009E0FB897A68D418FFF7C0FF03462370F8
:103D0000FB890133FB81FA897B88013B9A4204DA03
:103D1000FFF7A8FF0346002BEBD1FB897A68134419
:103D200000221A70FB8918461437BD4690BD80B436
:103D300000AF00BFBD4680BC7047000080B586B0B4
:103D400000AF7860144A154BD31A7B617B693B61E5
:103D5000134B1B68002B02D1114B124A1A60104BF7
:103D60001A687B6813443A699A4207D20DF0E0FC66
:103D700003460C221A604FF0FF3309E0084B1B6822
:103D8000FB60074B1A687B681344054A1360FB68A5
:103D900018461837BD4680BD00800020000800008E
:103DA000543700201847002080B586B000AFF86077
:103DB000B9607A6000237B610AE0AFF300800146BE
:103DC000BB685A1CBA60CAB21A707B6901337B6146
:103DD0007A697B689A42F0DB7B6818461837BD46E3
:103DE00080BD80B586B000AFF860B9607A6000230E
:103DF0007B6109E0BB685A1CBA601B781846AFF3B8
:103E000000807B6901337B617A697B689A42F1DBD0
:103E10007B6818461837BD4680BD80B483B000AFBC
:103E200078604FF0FF3318460C37BD4680BC7047B2
:103E300080B483B000AF786039603B684FF40052C3
:103E40005A60002318460C37BD4680BC704780B4CA
:103E500083B000AF7860012318460C37BD4680BCA4
:103E6000704780B485B000AFF860B9607A60002315
:103E700018461437BD4680BC7047000080B582B03C
:103E800000AF7860796811480DF0A2FA104978689F
:103E90000DF038FC0346002B14D00E4978680DF065
:103EA00031FC0346002B03D00B480DF001FB09E069
:103EB0000A4978680DF026FC0346002B02D008481A
:103EC0000DF0F6FA00BF0837BD4680BDB4320108D8
:103ED000CC320108E0320108F03201081033010849
:103EE0002433010880B500AF624B02221A70624B86
:103EF0001B78052B00F2BB8001A252F823F000BF13
:103F0000A93F0008433F0008B93F00084F400008A0
:103F100057400008193F0008584B1B78DBB2012BB3
:103F200007D1554B02221A700021022009F092FBA2
:103F30009DE0514B03221A700021022009F08AFBF8
:103F400095E04F4800F0B0F80346002B24D1012043
:103F500001F05AFD4B4B01221A7000224A494B488E
:103F600001F040FB0346002B06D1494B00221A709A
:103F7000414B05221A7012E0454B1B780133DAB22F
:103F8000434B1A70424B1B78032B01D1042200E0F3
:103F90000122394B1A7002E0374B01221A700021BE
:103FA000022009F057FB62E06420FFF757FA002176
:103FB000022009F04FFB5AE0364B1B78DBB2002B96
:103FC00004D001F0FDFC334B00221A702B4B1B7800
:103FD000DBB2012B21D101F001FD284B00221A7028
:103FE0002D48FCF77DFE03461A4600212A48FCF7BF
:103FF000D4FF2648FCF774FE03469BB21A462349B9
:10400000264801F029FB244925480DF0E1F9224812
:10401000FFF734FF184B02221A70224B1B68013B3A
:10402000204A13601F4B1B68002B02D1124B052244
:104030001A70124B1B78DBB2012B03D0194B1B6893
:10404000002B13DD0021022009F004FB0EE00A4BD7
:1040500005221A700BE00E4B00221A70064B00224C
:104060001A700021022009F0F5FA00E000BF00BF3D
:1040700080BD00BF1C3D002068000020C63C002021
:104080006C000020B1390020A80000205837002023
:10409000B2390020B0390020193A0020B43900208C
:1040A000443301087C3C0020B0B586B002AF786094
:1040B0000023FB73A64B00221A707AE30023BB7324
:1040C000A34B1B780A2B00F2748301A252F823F051
:1040D000FD4000088741000807420008B34300087C
:1040E00031440008B544000837450008C9450008B8
:1040F000734600088947000863470008954B012272
:104100001A70954B00221A707B681B6800211846B4
:1041100000F06CFB0346BB73BB7B002B06D18F4BBF
:1041200000221A708A4B01221A701CE0BB7B042B00
:1041300006D18B4B0B221A70854B00221A7012E0AD
:10414000BB7B012B06D1864B0C221A70804B0022C0
:104150001A7008E0BB7B032B05D1814B0D221A702E
:104160007B4B00221A707D4B1B78DBB2142B40F284
:104170000D837A4B00221A70794B01221A70744B0E
:104180000A221A7002E37B681B680022012118468C
:1041900000F07CFB0346BB73BB7B002B06D16F4B4F
:1041A00000221A706A4B02221A701CE0BB7B042B9F
:1041B00006D16B4B0B221A70654B01221A7012E06C
:1041C000BB7B012B06D1664B0C221A70604B01227F
:1041D0001A7008E0BB7B032B05D1614B0D221A70CE
:1041E0005B4B01221A705D4B1B78DBB2142B40F243
:1041F000CF825A4B00221A70594B02221A70544B2C
:104200000A221A70C4E27B685B79012B40F0BE8001
:10421000544807F0E3FF0346002B01D0FEF7B0FC43
:104220007B681B680021184600F08AFB0346BB73BD
:10423000BB7B002B77D1494B00221A705FE07B6873
:104240001868002341F28832C82100F0C1FB7B6866
:104250001B684549184600F0F7FB0346002B0AD1BE
:104260003E4B00221A707B681B68404A4049184642
:1042700000F03CFC43E07B681B683E49184600F0B8
:10428000E3FB0346002B3AD1344B00221A704FF463
:104290007A70FFF7E3F82EE07B681B680021184670
:1042A00000F06AFC0346BB73BB7B002B06D12B4B93
:1042B00000221A70264B05221A7020E0BB7B042BCB
:1042C00006D1274B0B221A70214B02221A7012E0E2
:1042D000BB7B012B06D1224B0C221A701C4B0222F5
:1042E0001A7008E0BB7B032B05D11D4B0D221A7001
:1042F000174B02221A70164B1B78022BCCD0174B8F
:104300001B78DBB2F92B03D8114B1B78052B96D108
:10431000144807F0AFFF0E4B1B78052B39D00C4B20
:104320000A221A7035E0BB7B042B06D10C4B0B2202
:104330001A70074B02221A702BE0BB7B012B1BD19A
:10434000074B0C221A70024B02221A7021E000BFA8
:10435000C83C00201D3D0020C03C00201E3D002028
:10436000C43C0020D03C0020BC340108A03C00200C
:10437000803C0020D0340108BB7B032B09D1A24B29
:104380000D221A70A14B02221A7002E09F4B0322E9
:104390001A709F4B1B78DBB2412B40F2FB819C4B88
:1043A00000221A70984B03221A70984B0A221A7036
:1043B000F0E17B681B680021184600F025FC0346ED
:1043C000BB73BB7B002B06D1914B00221A708F4B25
:1043D00004221A701CE0BB7B042B06D18A4B0B22F3
:1043E0001A708A4B03221A7012E0BB7B012B06D194
:1043F000854B0C221A70854B03221A7008E0BB7B98
:10440000032B05D1804B0D221A70804B03221A70AA
:104410007F4B1B78DBB2142B40F2BE817C4B002219
:104420001A70794B04221A70784B0A221A70B3E181
:104430007B6818687B6899687B68DA68002300F0FD
:104440002BFC0346BB73BB7B002B06D1704B0022B9
:104450001A706E4B05221A701CE0BB7B042B06D130
:10446000694B0B221A70694B04221A7012E0BB7B55
:10447000012B06D1644B0C221A70644B04221A7073
:1044800008E0BB7B032B05D15F4B0D221A705F4BFD
:1044900004221A705E4B1B78DBB2142B40F27E8133
:1044A0005B4B00221A70584B05221A70574B0A2298
:1044B0001A7073E17B6818687B681B7C00221946C0
:1044C00000F05AFC0346BB73BB7B002B06D1504B5C
:1044D00000221A704D4B06221A701CE0BB7B042B85
:1044E00006D1494B0B221A70484B05221A7012E074
:1044F000BB7B012B06D1444B0C221A70434B052287
:104500001A7008E0BB7B032B05D13F4B0D221A70BC
:104510003E4B05221A703E4B1B78DBB2142B40F247
:104520003F813B4B00221A70374B06221A70374BE3
:104530000A221A7034E17B6818687B68597C7B68B2
:104540005A697B689C697B68DB690025019500934B
:10455000234600F077FC0346BB73BB7B002B09D1DD
:104560002B4B00221A702B4B01221A70274B08226A
:104570001A7019E0BB7B042B06D1234B0B221A7057
:10458000224B06221A700FE0BB7B012B06D11E4B7B
:104590000C221A701D4B06221A7005E0BB7B032B00
:1045A00002D11A4B06221A70194B1B78DBB2142B5E
:1045B00040F2F880164B00221A70134B07221A7033
:1045C000124B0A221A70EDE07B6818687B68198C20
:1045D0007B6893F822207B6893F823407B6893F8EC
:1045E0002430002501950093234600F097FC0346F4
:1045F000BB73BB7B002B0FD1054B00221A70034B02
:1046000008221A7025E000BFC43C0020C83C0020EE
:104610001E3D0020C13C0020BB7B042B06D16B4B10
:104620000B221A706A4B07221A7012E0BB7B012B17
:1046300006D1664B0C221A70654B07221A7008E0EF
:10464000BB7B032B05D1614B0D221A70604B0722F7
:104650001A70604B1B78DBB2142B40F2A5805D4BC7
:1046600000221A70594B08221A70594B0A221A70EC
:104670009AE07B6818687B68996A7B6893F82C20BD
:10468000002300F0BFFC0346BB73BB7B002B35D17E
:104690002FE07B681B680021184600F01DFD0346D3
:1046A000BB73BB7B002B19D17B681B681A331B784B
:1046B000342B13D1474B00221A70474B00221A703B
:1046C000464B01221A70464B01221A70404B0922B8
:1046D0001A70444B09221A70002372E03D4B1B787C
:1046E000DBB2C82B05D93B4B00221A70384B0A228B
:1046F0001A70374B1B78082BCBD01CE0BB7B042BEC
:1047000006D1324B0B221A70314B08221A7012E07C
:10471000BB7B012B06D12D4B0C221A702C4B08228F
:104720001A7008E0BB7B032B05D1284B0D221A70B1
:10473000274B08221A70274B1B78DBB2642B35D924
:10474000244B00221A70214B09221A70204B0A2296
:104750001A702BE0FB7B0133FB731D4B00221A7098
:1047600003E000BFFB7B022BF4D9FB7B032B1FD1A3
:10477000194B00221A701C4B01221A700023FB7384
:10478000134B09221A7013E000BF12E000BF10E0C3
:1047900000BF0EE000BF0CE000BF0AE000BF08E071
:1047A00000BF06E000BF04E000BF02E000BF00E081
:1047B00000BF074B1B78092B7FF480AC0A4B1B789A
:1047C000DBB218461037BD46B0BD00BFC43C002068
:1047D000C83C00201E3D00201D3D0020C73C00209D
:1047E000C13C00200C010020C03C002080B584B0FA
:1047F00000AF78600B46FB70224800F0C1FC034616
:10480000FB73FB7B002B34D1FB784FF47A625A2187
:10481000786800F0DDF80346BB73BB7B002B02D049
:10482000BB7B032B23D1184B1B681946786800F01B
:104830000BF903467B737B7B002B08D1FB784FF48D
:104840007A625A21786800F0C3F8002315E07B7B78
:10485000022B02D07B7B032B01D101230DE07B7B5C
:10486000052B08D1BB7B032B05D1032305E0BB7BC4
:1048700003E0042301E000BF002318461037BD46C3
:1048800080BD00BFEC3401081001002080B588B065
:1048900000AF78600B46FB701346BB7007F10C034A
:1048A00000221A605A609A609A81FA7807F10C0324
:1048B000214918460CF03AFE07F10C03184600F0A7
:1048C0005FFC0346FB77FB7F002B2DD1BB7841F2C9
:1048D00088325A21786800F07BF80346BB77BB7FAB
:1048E000002B02D0BB7F032B1CD1144B1B68194635
:1048F000786800F0A9F803467B777B7F002B01D115
:10490000002315E07B7F022B02D07B7F032B01D19C
:1049100001230DE07B7F052B08D1BB7F032B05D145
:10492000032305E0BB7F03E0042301E000BF002375
:1049300018462037BD4680BDF8340108100100201C
:1049400080B584B000AF78600B46FB701E4800F065
:1049500017FC0346FB73FB7B002B2DD1FB7841F248
:1049600088325A21786800F033F80346BB73BB7B6A
:10497000002B02D0BB7B032B1CD1144B1B681946A8
:10498000786800F061F803467B737B7B002B01D1D4
:10499000002315E07B7B022B02D07B7B032B01D114
:1049A00001230DE07B7B052B08D1BB7B032B05D1BD
:1049B000032305E0BB7B03E0042301E000BF0023E9
:1049C00018461037BD4680BD08350108100100208B
:1049D00080B586B000AFF860084611461A46034617
:1049E0007B810B463B811346FB714FF4167200210D
:1049F0001348FCF7D2FA00BF00F0DAFB0346012BA4
:104A0000FAD0FB79002B02D0012B09D013E03B89AF
:104A10007A89F9680B4803F070FF0346FB750AE0DA
:104A200001237B817B891A46F968064804F02AF83D
:104A30000346FB7500BFFB7D18461837BD4680BD99
:104A4000583700205433002080B584B000AF786020
:104A50003960396878680CF055FE0346002B02D0A7
:104A60000023FB7336E0396878680CF04BFE034690
:104A7000002B2FD11A4B1B68194678680CF042FEA8
:104A80000346002B02D00123FB7323E0154B1B6868
:104A9000194678680CF036FE0346002B02D002233C
:104AA000FB7317E02B2178680CF0F6FD0346002B12
:104AB00002D00323FB730DE00B4B1B68194678688B
:104AC0000CF020FE0346002B02D00423FB7301E010
:104AD0000523FB73FB7B18461037BD4680BD00BF26
:104AE00020010020180100203001002080B588B08E
:104AF00000AFF860B9607A601D49F8680CF002FEFA
:104B000003460533FB610A21F8690CF0C5FDB86165
:104B1000BA69FB69D31A1A46F969B8680CF0C9FD7D
:104B2000BA69FB69D31A1A46BB68134400221A708B
:104B30001049F8680CF0E6FD034609337B610A2151
:104B400078690CF0A9FD38613A697B69D31A1A4675
:104B5000796978680CF0ADFD3A697B69D31A1A4619
:104B60007B68134400221A7000BF2037BD4680BD09
:104B70001C3501082435010880B584B000AF786089
:104B80000B46FB701E4800F0FBFA0346FB73FB7BF1
:104B9000002B2DD1FB7841F288325A217868FFF73B
:104BA00017FF0346BB73BB7B002B02D0BB7B032BE1
:104BB0001CD1144B1B6819467868FFF745FF034664
:104BC0007B737B7B002B01D1002315E07B7B022BC9
:104BD00002D07B7B032B01D101230DE07B7B052BD6
:104BE00008D1BB7B032B05D1032305E0BB7B03E08E
:104BF000042301E000BF002318461037BD4680BDE6
:104C0000303501081001002080B584B000AF786015
:104C10000B46FB701E4800F0B3FA0346FB73FB7BA8
:104C2000002B2DD1FB7841F2883278217868FFF78C
:104C3000CFFE0346BB73BB7B002B02D0BB7B032B99
:104C40001CD1144B1B6819467868FFF7FDFE03461C
:104C50007B737B7B002B01D1002315E07B7B022B38
:104C600002D07B7B032B01D101230DE07B7B052B45
:104C700008D1BB7B032B05D1032305E0BB7B03E0FD
:104C8000042301E000BF002318461037BD4680BD55
:104C9000443501081001002090B593B000AFF860D2
:104CA000B9607A60FB7007F11003322200211846C8
:104CB000FCF773F907F110007B68BA682B490CF018
:104CC00035FC07F11003184600F05AFA034687F83E
:104CD000473097F84730002B40D1FB7841F2707293
:104CE0006421F868FFF774FE034687F8463097F8AA
:104CF0004630002B03D097F84630032B2BD11C4BAA
:104D00001B681946F868FFF79FFE03461C46194BBF
:104D10001B681946F868FFF797FE0346234387F898
:104D2000453097F84530002B01D100231AE097F861
:104D30004530022B03D097F84530032B01D10123D6
:104D400010E097F84530052B0AD197F84630032B31
:104D500006D1032306E097F8463003E0042301E080
:104D600000BF052318464C37BD4690BD503501089D
:104D7000140100201001002080B590B000AF7860D1
:104D80000B46FB701346BB7007F10803322200216B
:104D90001846FCF702F9FA7807F108032749184684
:104DA0000CF0C4FB07F10803184600F0E9F90346CC
:104DB00087F83F3097F83F30002B37D1BB7841F26E
:104DC00088325A217868FFF703FE034687F83E30A1
:104DD00097F83E30002B03D097F83E30032B22D1BA
:104DE000174B1B6819467868FFF72EFE034687F8B5
:104DF0003D3097F83D30002B01D100231AE097F8A1
:104E00003D30022B03D097F83D30032B01D1012315
:104E100010E097F83D30052B0AD197F83E30032B70
:104E200006D1032306E097F83E3003E0042301E0B7
:104E300000BF002318464037BD4680BD68350108D5
:104E40001001002080B59AB002AFF8607A603B6034
:104E50000B46FB7207F11403462200211846FCF7AB
:104E60009CF8FA7A07F11400BB6E01933B6800933B
:104E70007B6828490CF05AFB07F11403184600F030
:104E80007FF9034687F85F3097F85F30002B38D101
:104E900097F86C3041F288327821F868FFF798FD76
:104EA000034687F85E3097F85E30002B03D097F802
:104EB0005E30032B22D1184B1B681946F868FFF7A8
:104EC000C3FD034687F85D3097F85D30002B01D1B4
:104ED00000231AE097F85D30022B03D097F85D307D
:104EE000032B01D1012310E097F85D30052B0AD187
:104EF00097F85E30032B06D1032306E097F85E3067
:104F000003E0042301E000BF002318466037BD46DC
:104F100080BD00BF8C3501081001002090B599B00C
:104F200002AF7860084611461A4603467B800B465E
:104F30007B7013463B7007F10C0346220021184694
:104F4000FCF72BF879887C783B7897F8682007F194
:104F50000C000192009323460A4628490CF0E6FA19
:104F600007F10C03184600F00BF9034687F8573099
:104F700097F85730002B38D197F86C3041F28832CF
:104F80005A217868FFF724FD034687F8563097F8D2
:104F90005630002B03D097F85630032B22D1184BF4
:104FA0001B6819467868FFF74FFD034687F85530B0
:104FB00097F85530002B01D100231AE097F85530AF
:104FC000022B03D097F85530032B01D1012310E0B9
:104FD00097F85530052B0AD197F85630032B06D198
:104FE000032306E097F8563003E0042301E000BFF6
:104FF000002318465C37BD4690BD00BFB835010898
:105000001001002080B59EB000AFF860B960114675
:105010001A460B46FB711346BB7107F1100364225D
:1050200000211846FBF7B9FFFB7907F11000BA68B9
:1050300027490CF07BFA07F11003184600F0A0F89E
:10504000034687F8773097F87730002B37D1BB7954
:1050500041F28832C821F868FFF7BAFC034687F8A6
:10506000763097F87630002B03D097F87630032B04
:1050700022D1184B1B681946F868FFF7E5FC034678
:1050800087F8753097F87530002B01D100231AE0AE
:1050900097F87530022B03D097F87530032B01D1A8
:1050A000012310E097F87530052B0AD197F8763078
:1050B000032B06D1032306E097F8763003E00423A0
:1050C00001E000BF002318467837BD4680BD00BF11
:1050D000E83501081001002090B585B000AF786078
:1050E0000B46FB70234800F04BF80346FB73FB7B39
:1050F000002B36D1FB7841F28832C7217868FFF760
:1051000067FC0346BB73BB7B002B02D0BB7B032B2E
:1051100025D1194B9B6A19467868FFF795FC034621
:105120001C46164B1B6819467868FFF78DFC034632
:1051300023437B737B7B002B01D1002315E07B7B1A
:10514000022B02D07B7B032B01D101230DE07B7B63
:10515000052B08D1BB7B032B05D1032305E0BB7BCB
:1051600003E0042301E000BF002318461437BD46C6
:1051700090BD00BF083601086C000020100100201F
:1051800080B584B000AF78607868FBF7A9FD03466E
:105190009AB24FF496737968044803F028FB0346EB
:1051A000FB73FB7B18461037BD4680BD543300208F
:1051B00080B483B000AF154B1B68DB6903F080033C
:1051C000802B09D1114B1B68DB6903F02003202BD6
:1051D00002D00023FB7112E00C4B1B68DB6903F06B
:1051E0008003802B02D00123FB7108E0074B1B6872
:1051F000DB6903F02003202B01D10223FB71FB7933
:1052000018460C37BD4680BC704700BF54330020A1
:1052100080B59EB000AFF860B96011461A460B46E3
:10522000FB711346BB7107F110036422002118467D
:10523000FBF7B3FEFB7907F11000BA6827490CF0C1
:1052400075F907F110031846FFF79AFF034687F830
:10525000773097F87730002B37D1BB7941F288321D
:10526000C821F868FFF7B4FB034687F8763097F853
:105270007630002B03D097F87630032B22D1184BD1
:105280001B681946F868FFF7DFFB034687F875309F
:1052900097F87530002B01D100231AE097F875308C
:1052A000022B03D097F87530032B01D1012310E0B6
:1052B00097F87530052B0AD197F87630032B06D175
:1052C000032306E097F8763003E0042301E000BFF3
:1052D000002318467837BD4680BD00BF1836010848
:1052E0001001002080B586B000AF78607868FBF7C9
:1052F000F7FC38614FF4FA737B613B69B3F57A7F51
:105300000FD93B69114AA2FB03235B09642202FB0C
:1053100003F303F5FA637B617A6939690C480CF091
:1053200057F83B699AB27B6979680A4803F05FFADB
:105330000346FB733B69B3F57A7F02D9C820FEF7B9
:105340008DF8FB7B18461837BD4680BD1F85EB5195
:105350008C3601085433002080B5BAB002AFF86033
:10536000B9603B601346FB80002387F8DF300023E1
:1053700087F8DD30002387F8DC30002387F8DB3046
:10538000B868FBF7ADFC0346DBB2243387F8DA30AC
:1053900007F11003C82200211846FBF7FEFD8D48D7
:1053A00003F03CFC0CE197F8DF30032B00F208819E
:1053B00001A252F823F000BFC9530008FD530008B2
:1053C000D5540008FB540008F98897F8E83097F89E
:1053D000EC2007F11000019200930B46BA687E4959
:1053E0000CF0A4F807F110031846FFF77BFF034603
:1053F00087F8DE30012387F8DF30E1E097F8DE3010
:10540000002B64D197F8DA3099B297F8F0304FF466
:10541000FA72F868FFF7DCFA034687F8D93097F894
:10542000D930002B04D097F8D930032B40F0C58039
:105430006A4B1B681946F868FFF706FB034687F8B6
:10544000D83097F8D830002B03D1022387F8DF300B
:10545000B3E097F8D830012B10D197F8DC30013346
:1054600087F8DC3097F8DC30032B03D8002387F86B
:10547000DF30A2E0022387F8DF309EE097F8D830D3
:10548000022B03D1022387F8DF3096E097F8D8305B
:10549000052B14D197F8D930032B10D197F8DD30B4
:1054A000013387F8DD3097F8DD300A2B03D801236C
:1054B00087F8DF300DE0022387F8DF3009E097F846
:1054C000D830042B79D1002387F8DF3075E004232E
:1054D0007CE072E097F8F0304FF47A724FF49671F6
:1054E000F868FFF775FA3868FFF7FCFE034687F89F
:1054F000DE30032387F8DF3062E097F8DE30002BE0
:1055000059D197F8F0304FF47A724FF4C871F868B7
:10551000FFF75EFA034687F8D93097F8D930002BA9
:1055200003D097F8D930032B49D12D4B1B6819466E
:10553000F868FFF789FA034687F8D83097F8D8302B
:10554000002B03D1042387F8DF3038E097F8D830F8
:10555000012B11D197F8DB30013387F8DB3097F856
:10556000DB30032B03D8032387F8DF3027E0042345
:1055700087F8DF30022329E097F8D830022B04D1D6
:10558000042387F8DF30012320E097F8D830052B7B
:1055900008D197F8D930032B04D1042387F8DF30E2
:1055A000032313E097F8D830042B08D1032387F89E
:1055B000DF3005230AE0042308E000BF00E000BF5D
:1055C00097F8DF30042B7FF4EEAE00231846E03767
:1055D000BD4680BD54330020C436010810010020B0
:1055E0002401002080B586B000AFF860B960134692
:1055F000FB71184B09221A7023E00023FB75154B31
:105600001B78092B1DD1FA790023B968F868FFF7D8
:10561000FFFD0346FB75FB7D002B04D10D4B1022D3
:105620001A70002311E0FB7D012B04D1094B0922E4
:105630001A70012309E0FB7D032B01D1032304E051
:1056400000BF044B1B78102BD7D118461837BD4626
:1056500080BD00BF0C01002080B584B000AFF860B1
:10566000B9601346FB80184B1B681946B8680CF0EC
:1056700049F80346002B06D0FB881A46B968F8683B
:1056800000F02CF81BE0114B1B681946B8680CF0B1
:1056900039F80346002B06D00D4B01221A700D4B32
:1056A00000221A700BE00C4B1B681946B8680CF00E
:1056B00029F80346002B02D0054B00221A7000BFC8
:1056C0001037BD4680BD00BF1C0100202C0100200A
:1056D000C73C0020C03C00202801002080B586B0D7
:1056E00000AFF860B9601346FB800023FB82DAE06C
:1056F000724B1B78082B00F2C88001A252F823F0ED
:1057000025570008455700086F57000895570008AF
:10571000A9570008DF570008F3570008375800085A
:105720006B580008FB8ABA6813441B782B2B40F097
:10573000B080032200216248FBF72FFC5F4B01225F
:105740001A70A6E0FB8ABA6813441B784D2B07D168
:10575000FB8ADAB25B4B1A70584B02221A709FE038
:10576000594B00221A70554B00221A7098E0554B85
:105770001B780433BA6813441B78532B03D14F4B67
:1057800003221A708CE0504B00221A704B4B0022FF
:105790001A7085E0FB8ABA6813441B78222B7AD1F1
:1057A000464B04221A7076E0FB8ABA6813441B78D1
:1057B000222B06D1444B00221A70404B05221A704E
:1057C0006EE0FB8ABA681A443F4B1B78591CC8B27A
:1057D0003D49087019461278FB685A5460E0FB8A0C
:1057E000BA6813441B782C2B57D1344B06221A70FD
:1057F00053E0FB8ABA6813441B782C2B0DD1324B33
:1058000000221A70FB686433032219462C4800F00A
:105810005DF82A4B07221A7042E0FB8ABA681A44E4
:10582000294B1B78591CC8B22749087019461278B1
:10583000234B5A5434E0FB8ABA6813441B780D2B6F
:1058400003D11E4B08221A702AE0FB8ABA681A4458
:105850001D4B1B78591CC8B21B4908701946127899
:10586000FB680B4483F865201AE0FB8ABA6813448E
:105870001B780A2B13D1134B00221A70124B0022F3
:105880001A700E4B00221A7009E00C4B00221A709D
:1058900006E000BF04E000BF02E000BF00E000BF80
:1058A000FB8A0133FB82FA8AFB889A42FFF420AF1D
:1058B00000BF00BF1837BD4680BD00BFC93C0020F7
:1058C000CC3C0020C53C0020CF3C002080B487B0F9
:1058D00000AFF860B9601346FB7107F114030021B3
:1058E0000A461A800A469A7007F1100300210A46F8
:1058F0001A800A469A700023FB7525E0FB7DFA6842
:105900001A44FB7D127818333B4403F8042CFB7DCA
:1059100018333B4413F8043C2F2B12D9FB7D18336A
:105920003B4413F8043C392B0BD8FB7D18333B4424
:1059300013F8042CFB7D303AD2B218333B4403F801
:10594000082CFB7D0133FB75FA7DFB799A42D5D398
:10595000FB79032B16D0032B2DDC012B02D0022B5D
:1059600004D028E03A7CBB681A7024E03B7C1A46DD
:10597000920013445B00DAB27B7C1344DAB2BB685A
:105980001A7018E03B7C1A46920013441A469100A4
:105990001A460B4613449B00DAB27B7C19468900F9
:1059A0000B445B00DBB21344DAB2BB7C1344DAB2C3
:1059B000BB681A7000BF00BF1C37BD4680BC704773
:1059C00080B500AF01220349034803F05BF800BF34
:1059D00080BD00BF203D00205433002080B500AFC3
:1059E00001224FF40041074802F004F84FF496708A
:1059F000FDF734FD00224FF40041024801F0FAFFA8
:105A000000BF80BD0004004880B582B000AF0346EF
:105A1000FB71FB791A464FF40051034801F0EAFF8D
:105A200000BF0837BD4680BD0004004880B485B083
:105A300000AF78604FF0B0431A6E4FF0B0417B6812
:105A400013430B664FF0B0431A6E7B681340FB6044
:105A5000FB6800BF1437BD4680BC704780B588B076
:105A600000AF07F1100300221A605A609A60DA60F2
:105A70003B1D00221A605A609A60204B204A1A602F
:105A80001E4B41F2BF225A601C4B00229A601B4BF6
:105A900042F20F72DA60194B00221A61174B002292
:105AA0005A61164B00229A61144806F03FFB0346E8
:105AB000002B01D0FDF764F84FF480533B6107F1F0
:105AC000100319460D4806F003FC0346002B01D0D5
:105AD000FDF756F800237B600023BB600023FB60CA
