:020000040800F2
:1000000000800020D54F00084D3100085531000810
:100010005D310008653100086D3100080000000006
:100020000000000000000000000000007531000822
:1000300081310008000000008D310008993100086E
:100040002550000825500008A5310008255000085B
:1000500025500008255000082550000825500008AC
:10006000255000082550000825500008B931000827
:10007000255000082550000825500008255000088C
:10008000255000082550000825500008255000087C
:10009000255000082550000825500008255000086C
:1000A000255000082550000825500008255000085C
:1000B000255000082550000825500008255000084C
:1000C000255000082550000825500008255000083C
:1000D00025500008CD310008E13100082550000806
:1000E0002550000825500008F5310008255000086B
:1000F000255000082550000825500008255000080C
:100100002550000825500008093200082550000835
:1001100025500008255000082550000825500008EB
:1001200025500008255000082550000825500008DB
:080130002550000825500008CD
:1001400010B5054C237833B9044B13B10448AFF311
:1001500000800123237010BD480100200000000032
:10016000D410010808B5034B1BB103490348AFF392
:10017000008008BD000000004C010020D4100108E0
:1001800081F0004102E000BF83F0004330B54FEA48
:1001900041044FEA430594EA050F08BF90EA020FB5
:1001A0001FBF54EA000C55EA020C7FEA645C7FEA48
:1001B000655C00F0E2804FEA5454D4EB5555B8BF6B
:1001C0006D420CDD2C4480EA020281EA030382EADC
:1001D000000083EA010180EA020281EA0303362D6E
:1001E00088BF30BD11F0004F4FEA01314FF4801C41
:1001F0004CEA113102D0404261EB410113F0004F53
:100200004FEA03334CEA133302D0524263EB430309
:1002100094EA050F00F0A780A4F10104D5F1200EA7
:100220000DDB02FA0EFC22FA05F2801841F1000102
:1002300003FA0EF2801843FA05F359410EE0A5F1D6
:1002400020050EF1200E012A03FA0EFC28BF4CF007
:10025000020C43FA05F3C01851EBE37101F00045BD
:1002600007D54FF0000EDCF1000C7EEB00006EEBCA
:100270000101B1F5801F1BD3B1F5001F0CD3490854
:100280005FEA30004FEA3C0C04F101044FEA4452AB
:1002900012F5800F80F09A80BCF1004F08BF5FEA32
:1002A000500C50F1000041EB045141EA050130BD12
:1002B0005FEA4C0C404141EB0101013C28BFB1F524
:1002C000801FE9D291F0000F04BF01460020B1FA6F
:1002D00081F308BF2033A3F10B03B3F120020CDA42
:1002E0000C3208DD02F1140CC2F10C0201FA0CF020
:1002F00021FA02F10CE002F11402D8BFC2F1200C85
:1003000001FA02F120FA0CFCDCBF41EA0C0190403A
:10031000E41AA2BF01EB0451294330BD6FEA040483
:100320001F3C1CDA0C340EDC04F11404C4F120026E
:1003300020FA04F001FA02F340EA030021FA04F380
:1003400045EA030130BDC4F10C04C4F1200220FAD7
:1003500002F001FA04F340EA0300294630BD21FA15
:1003600004F0294630BD94F0000F83F4801306BFDB
:1003700081F480110134013D4EE77FEA645C18BFCF
:100380007FEA655C29D094EA050F08BF90EA020F66
:1003900005D054EA000C04BF1946104630BD91EA5E
:1003A000030F1EBF0021002030BD5FEA545C05D161
:1003B0004000494128BF41F0004130BD14F58004A0
:1003C0003CBF01F5801130BD01F0004545F0FE4114
:1003D00041F470014FF0000030BD7FEA645C1ABF49
:1003E000194610467FEA655C1CBF0B46024650EA80
:1003F000013406BF52EA033591EA030F41F40021AC
:1004000030BD00BF90F0000F04BF0021704730B531
:100410004FF4806404F132044FF000054FF0000106
:1004200050E700BF90F0000F04BF0021704730B5C7
:100430004FF4806404F1320410F0004548BF40429C
:100440004FF000013EE700BF42004FEAE2014FEAF1
:1004500031014FEA02701FBF12F07F4393F07F4FCC
:1004600081F06051704732F07F4208BF704793F0CF
:100470007F4F04BF41F40021704730B54FF46074E2
:1004800001F0004521F000411CE700BF50EA0102E5
:1004900008BF704730B54FF000050AE050EA01028E
:1004A00008BF704730B511F0004502D5404261EBFE
:1004B00041014FF4806404F132045FEA915C3FF43F
:1004C000D8AE4FF003025FEADC0C18BF03325FEADC
:1004D000DC0C18BF033202EBDC02C2F1200300FA8D
:1004E00003FC20FA02F001FA03FE40EA0E0021FAB2
:1004F00002F11444BDE600BF80F0004002E000BFFE
:1005000081F0004142001FBF5FEA410392EA030FFE
:100510007FEA226C7FEA236C6AD04FEA1262D2EB48
:100520001363C1BFD218414048404140B8BF5B424D
:10053000192B88BF704710F0004F40F4000020F0E6
:100540007F4018BF404211F0004F41F4000121F0FC
:100550007F4118BF494292EA030F3FD0A2F1010246
:1005600041FA03FC10EB0C00C3F1200301FA03F184
:1005700000F0004302D5494260EB4000B0F5000FA7
:1005800013D3B0F1807F06D340084FEA310102F166
:100590000102FE2A51D2B1F1004F40EBC25008BF18
:1005A00020F0010040EA03007047490040EB0000E2
:1005B000013A28BFB0F5000FEDD2B0FA80FCACF1E3
:1005C000080CB2EB0C0200FA0CF0AABF00EBC25010
:1005D00052421843BCBFD0401843704792F0000FFE
:1005E00081F4000106BF80F400000132013BB5E751
:1005F0004FEA41037FEA226C18BF7FEA236C21D0C7
:1006000092EA030F04D092F0000F08BF084670472B
:1006100090EA010F1CBF0020704712F07F4F04D1F9
:10062000400028BF40F00040704712F100723CBF0C
:1006300000F50000704700F0004343F0FE4040F436
:10064000000070477FEA226216BF08467FEA2363F4
:100650000146420206BF5FEA412390EA010F40F4DF
:10066000800070474FF0000304E000BF10F000432B
:1006700048BF40425FEA000C08BF704743F0964312
:1006800001464FF000001CE050EA010208BF70472D
:100690004FF000030AE000BF50EA010208BF7047B4
:1006A00011F0004302D5404261EB41015FEA010CC9
:1006B00002BF84460146002043F0B64308BFA3F1C1
:1006C0008053A3F50003BCFA8CF2083AA3EBC253A3
:1006D00010DB01FA02FC634400FA02FCC2F12002C2
:1006E000BCF1004F20FA02F243EB020008BF20F0F9
:1006F0000100704702F1200201FA02FCC2F120025F
:1007000050EA4C0021FA02F243EB020008BF20EA53
:10071000DC7070474FF0FF0C1CEAD0521EBF1CEA81
:10072000D15392EA0C0F93EA0C0F6FD01A4480EA6F
:10073000010C400218BF5FEA41211ED04FF0006358
:1007400043EA501043EA5111A0FB01310CF0004084
:10075000B1F5000F3EBF490041EAD3715B0040EAAA
:10076000010062F17F02FD2A1DD8B3F1004F40EB7A
:10077000C25008BF20F00100704790F0000F0CF04D
:10078000004C08BF49024CEA502040EA51207F3A11
:10079000C2BFD2F1FF0340EAC250704740F40000EC
:1007A0004FF00003013A5DDC12F1190FDCBF00F0DD
:1007B00000407047C2F10002410021FA02F1C2F18B
:1007C000200200FA02FC5FEA310040F1000053EA27
:1007D0004C0308BF20EADC70704792F0000F00F075
:1007E000004C02BF400010F4000F013AF9D040EA7B
:1007F0000C0093F0000F01F0004C02BF490011F40F
:10080000000F013BF9D041EA0C018FE70CEAD1530C
:1008100092EA0C0F18BF93EA0C0F0AD030F0004C8C
:1008200018BF31F0004CD8D180EA010000F0004040
:10083000704790F0000F17BF90F0004F084691F0FE
:10084000000F91F0004F14D092EA0C0F01D1420238
:100850000FD193EA0C0F03D14B0218BF084608D101
:1008600080EA010000F0004040F0FE4040F400004B
:10087000704740F0FE4040F4400070474FF0FF0CDE
:100880001CEAD0521EBF1CEAD15392EA0C0F93EA25
:100890000C0F69D0A2EB030280EA010C49024FEA77
:1008A000402037D04FF0805343EA111143EA101330
:1008B0000CF000408B4238BF5B0042F17D024FF4E8
:1008C000000C8B4224BF5B1A40EA0C00B3EB510FC3
:1008D00024BFA3EB510340EA5C00B3EB910F24BFAC
:1008E000A3EB910340EA9C00B3EBD10F24BFA3EB31
:1008F000D10340EADC001B0118BF5FEA1C1CE0D1F9
:10090000FD2A3FF650AF8B4240EBC25008BF20F0AB
:10091000010070470CF0004C4CEA50207F32C2BFFF
:10092000D2F1FF0340EAC250704740F400004FF09C
:100930000003013A37E792F0000F00F0004C02BFCD
:10094000400010F4000F013AF9D040EA0C0093F097
:10095000000F01F0004C02BF490011F4000F013BF1
:10096000F9D041EA0C0195E70CEAD15392EA0C0F59
:1009700008D142027FF47DAF93EA0C0F7FF470AF91
:10098000084676E793EA0C0F04D14B023FF44CAFD4
:1009900008466EE730F0004C18BF31F0004CCAD169
:1009A00030F000427FF45CAF31F000437FF43CAFA5
:1009B0005FE700BF53B94AB9002908BF00281CBF30
:1009C0004FF0FF314FF0FF3000F088B9ADF1080C67
:1009D0006DE904CE00F006F8DDF804E0DDE902235D
:1009E00004B070472DE9F047089D8E4604468846BE
:1009F000002B4AD18A42174662D9B2FA82F64EB12A
:100A0000C6F1200301FA06F820FA03F3B74043EADF
:100A10000808B4404FEA174E1FFA87FCB8FBFEF1F6
:100A2000230C0EFB118843EA084301FB0CF29A42A7
:100A300009D9FB1801F1FF3080F0EA809A4240F2B8
:100A4000E78002393B449A1AA3B2B2FBFEF00EFBD8
:100A5000102243EA024300FB0CFC9C4509D9FB1819
:100A600000F1FF3280F0D6809C4540F2D3803B44B9
:100A7000023840EA0140A3EB0C0300211DB1F34012
:100A80000022C5E90032BDE8F0878B4205D90DB1DF
:100A9000C5E9000100210846F5E7B3FA83F1002912
:100AA00046D1734502D3824200F20581841A6EEB6F
:100AB000030201209046002DE5D0C5E90048E2E799
:100AC000002A00F09080B2FA82F6002E40F0A48056
:100AD0008A1A030C4FEA174E80B2BCB20121B2FB56
:100AE000FEFC0EFB1C2243EA024304FB0CF29A427A
:100AF00007D9FB180CF1FF3802D29A4200F2E080CD
:100B0000C4469B1AB3FBFEF20EFB123340EA0343CA
:100B100002FB04F49C4207D9FB1802F1FF3002D219
:100B20009C4200F2CA8002461B1B42EA0C40A5E729
:100B3000C1F120068B4022FA06F71F430EFA01F49A
:100B400020FA06F32EFA06FE4FEA1749234300FA6D
:100B500001F81FFA87FCBEFBF9F01C0C09FB10EE34
:100B600044EA0E4400FB0CFEA64502FA01F209D944
:100B70003C1900F1FF3A80F09C80A64540F2998034
:100B800002383C44A4EB0E041FFA83FEB4FBF9F3D5
:100B900009FB13444EEA044403FB0CFCA44508D9AA
:100BA0003C1903F1FF3E80F08280A4457FD9023BCF
:100BB0003C4443EA0040A4EB0C04A0FB02EC644577
:100BC0007346E14662D35FD05DB1B8EB030264EBDC
:100BD000090404FA06F622FA01F31E43CC40C5E9E3
:100BE000006400214FE7B1FBF2FC010C41EA0E4129
:100BF00080B240EA01423B4638463C46B846BE46D3
:100C00002026B1FBF7F1A2EB080241EA0C4166E7AE
:100C1000014618E710462CE7C6F120022EFA02F32F
:100C2000B740B14020FA02F24FEA174E0A43B3FB35
:100C3000FEF8BCB20EFB1833110C41EA034108FB6D
:100C400004F9B04089454FEA104380B23ED9791883
:100C500008F1FF3C01D289451FD8A1EB0901B1FB86
:100C6000FEF909FB04F80EFB191192B242EA0142A7
:100C7000424529D2BA1809F1FF31C4D24245C2D245
:100C8000A9F102013A44BEE7F0459DD2BEEB020352
:100C90006CEB070C0138E14696E7A7EB09094944DC
:100CA000A8F1020CB1FBFEF909FB04F8DBE773467F
:100CB0007FE7504666E70846FDE63B44023A33E7E5
:100CC000ACF1020C3B441CE749469CE7A1EB09014F
:100CD000C446B1FBFEF909FB04F8C4E7704700BF46
:100CE000034613F8012B002AFBD1181A013870476C
:100CF00001F0FF01102A2BDB10F0070F08D010F8CD
:100D0000013B013A8B422DD010F0070F42B3F6D1D0
:100D1000F0B441EA012141EA014122F007047FF0E9
:100D200000070023F0E80256083C85EA010586EA40
:100D3000010685FA47F5A3FA87F586FA47F6A5FA7C
:100D400087F68EB9EED1F0BC01F0FF0102F0070288
:100D500032B110F8013B013A83EA010313B1F8D133
:100D60000020704701387047002D06BF3546033814
:100D7000073815F0010F07D1013015F4807F02BF4D
:100D8000013015F4C03F0130F0BC0138704700BF9E
:100D9000002310B50446C0E90033C0E90433836082
:100DA00081814366C2818361194608225C3000F06C
:100DB000F4F80D4B63620D4BA3620D4BE3620D4BD8
:100DC00023630D4B24629C4206D003F168029442D7
:100DD00002D0D0339C4205D104F15800BDE8104048
:100DE00000F04EB910BD00BF150F0008370F000806
:100DF0006F0F0008930F000864010020024A0349A6
:100E0000034800F069B800BF000000207913000813
:100E10001000002041680C4B994210B5044601D0E7
:100E200000F0AAFAA168094B994202D0204600F0CE
:100E3000A3FAE168064B994204D02046BDE8104071
:100E400000F09ABA10BD00BF64010020CC01002060
:100E50003402002010B50B4B0B4C0C4A1A60204694
:100E600000220421FFF794FF04F168000122092108
:100E7000FFF78EFF04F1D0000222BDE810401221DE
:100E8000FFF786BF9C02002064010020FD0D0008D2
:100E9000014800F0F6B800BFA5020020014800F0AC
:100EA000F1B800BFA502002010B50446FFF7F0FF1F
:100EB000236A1BB1BDE81040FFF7F0BF044B23626B
:100EC000044B1B68002BF5D1FFF7C4FFF2E700BF0E
:100ED000150E00089C0200202DE9F84307468846BD
:100EE00014460026D4E90195B9F1010905D5246815
:100EF000002CF7D13046BDE8F883AB89012B07D928
:100F0000B5F90E30013303D029463846C0470643B1
:100F10006835E9E710B50C46B1F90E1000F068F835
:100F20000028ABBF636DA3891B1823F48053ACBFAB
:100F30006365A38110BD2DE9F0411F468B89DB0558
:100F400005460C46164605D5B1F90E1002230022BF
:100F500000F03CF8A389B4F90E1023F48053A38168
:100F600032463B462846BDE8F04100F053B810B584
:100F70000C46B1F90E1000F029F8431CA38915BFE7
:100F8000606523F4805343F48053A38118BFA38189
:100F900010BDB1F90E1000F009B8024403469342A7
:100FA00000D1704703F8011BF9E7000038B5064D82
:100FB0000023044608462B6002F0A5F9431C02D129
:100FC0002B6803B1236038BDA002002038B5074D5F
:100FD00004460846114600222A601A4602F0B7F974
:100FE000431C02D12B6803B1236038BDA00200204E
:100FF00038B5074D04460846114600222A601A46B5
:1010000002F048F9431C02D12B6803B1236038BDBC
:10101000A002002038B5074D0446084611460022BC
:101020002A601A4602F053F9431C02D12B6803B11F
:10103000236038BDA002002070B50D4D0D4C641B1F
:10104000A4100026A64209D10B4D0C4C10F042F81A
:10105000641BA4100026A64205D170BD55F8043BC0
:1010600098470136EEE755F8043B98470136F2E71A
:10107000081E0108081E0108081E01080C1E0108B0
:10108000704770477047000038B50546002941D0C9
:1010900051F8043C0C1F002BB8BFE41800F0E0F836
:1010A0001D4A136833B9636014602846BDE83840B0
:1010B00000F0DCB8A34208D9206821188B4201BF98
:1010C00019685B6809182160EDE71A465B680BB187
:1010D000A342FAD911685018A0420BD120680144EC
:1010E000501883421160E0D118685B68536008446F
:1010F0001060DAE702D90C232B60D6E720682118AC
:101100008B4204BF19685B68636004BF09182160E3
:101110005460CAE738BD00BFAC02002070B50F4E66
:101120000C463168054611B900F04EF93060214691
:10113000284600F049F9431C03D14FF0FF34204604
:1011400070BDC41C24F00304A042F8D0211A284624
:1011500000F03AF90130F2D1EFE700BFA802002019
:101160002DE9F843CD1C25F0030508350C2D38BFBB
:101170000C25002D064601DBA94204D90C2333605F
:101180000020BDE8F883DFF8D48000F069F8D8F8D3
:1011900000301C4644BB29463046FFF7BFFF431CC6
:1011A000044658D1D8F800402746002F43D1002CE0
:1011B0004BD023683946304604EB030900F004F9AC
:1011C000814542D121686D1A29463046FFF7A6FFB6
:1011D00001303AD023682B442360D8F800305A6895
:1011E00062BBC8F800700FE02268521B20D40B2AA3
:1011F00017D96119A342256018BF5960636808BFF9
:10120000C8F8001062514B60304600F02FF804F12E
:101210000B00231D20F00700C21A1CBF1B1AA3508D
:10122000AFE76268A3420CBFC8F800205A60EBE742
:1012300023466468AEE73C467F68B6E71A465B68BB
:10124000A342FBD100235360DEE70C23336030461A
:1012500000F00CF894E70560D6E700BFAC02002070
:101260000148FFF70EBF00BFA40200200148FFF7AE
:1012700009BF00BFA4020020B1F90C20F8B5160781
:1012800005460C4654D44B68002B02DC0B6C002B3B
:1012900048DDE66A002E45D0002312F480522F6804
:1012A000216A2B6030D0626DA389590705D5636828
:1012B000D21A636B0BB1236CD21A0023E66A216A3F
:1012C0002846B047431CA38906D129681D292BD87D
:1012D000284ACA40D60727D500226260D90422696D
:1012E000226004D5421C01D12B6803B96065616B93
:1012F0002F60B9B104F14403994202D02846FFF7A8
:10130000C3FE002363630DE001232846B047024675
:10131000501CC9D12B68002BC6D01D2B01D0162B19
:101320001DD12F60002021E043F040031BB21AE0E2
:101330000F69002FF6D093070E6808BF4B690F6046
:1013400018BF0023F61B8B60002EEBDD216AD4F85A
:1013500028C033463A462846E047002807DCB4F95F
:101360000C3043F04003A3814FF0FF30F8BD074439
:10137000361AE9E70100402038B50B6905460C46EE
:1013800013B90025284638BD18B1036A0BB9FFF719
:101390008BFDB4F90C30002BF3D0626ED00704D46F
:1013A000990502D4A06DFFF76CFE28462146FFF791
:1013B00063FF636EDA070546E4D4A3899B05E1D495
:1013C000A06DFFF75FFEDDE738B5064D002304464C
:1013D00008462B6001F028FF431C02D12B6803B1A3
:1013E000236038BDA002002080B500AF01F0A2FA52
:1013F00000F00AF800BF80BD80B500AF4FF0FF30AD
:101400000BF076F800BF80BD90B58BB00AAF5B4B98
:101410000022002102200AF0E1FA012302930323B3
:10142000019301230093564B0022002102200AF071
:10143000D5FA012302930323019301230093514B17
:101440000022002102200AF0C9FA002300934E4B2B
:101450000022C8214D480BF0E9F94C480BF01CFA6A
:101460004B4B4C4A1A604A4B4B4A9A60484B4B4A8A
:101470005A60474B4A4ADA60454B4A4A1A614A4B1E
:101480001B6843489847484B5B69984703469B0D48
:101490001A46464B1A60444BDB6845489847454B13
:1014A0000022002102200AF099FA434B0022002179
:1014B00002200AF093FA7D230093404B0022002182
:1014C00002200AF08BFA072300933D4B00220021F3
:1014D00002200AF083FA344BDC6940F6B8330893F3
:1014E000002307930023069300230593012304930D
:1014F00000230393082302930123019307230093FE
:10150000002300220E210120A047274B9C690123C4
:1015100009930023089300230793002306930123D4
:1015200005930023049300230393052302930823C8
:101530000193002300930123072200210120A047EB
:10154000194B5B6DFF2101209847FF2200211D48A8
:10155000FFF723FD154B1B6800931B4B0122002155
:1015600001200AF03BFA194B0122002101200AF068
:1015700035FA00BF0437BD4690BD00BFF01001082A
:101580000011010824110108B91B0008D40400202F
:10159000B0020020A1160008CD160008391A000874
:1015A000651A0008911A0008881C0108EC04002044
:1015B00000A1BC33481101085C1101087011010839
:1015C00084110108D003002094110108A011010822
:1015D00080B584B002AF294B0122002101200AF01E
:1015E000FDF9274B00221A7000237B6019E07B680D
:1015F000DBB20133D8B223497A6813469B00134407
:101600009B000B4402461A701E497A6813469B00E1
:1016100013449B000B440E3300221A707B68013385
:101620007B607B68052BE2DD00230093164B0122D3
:1016300042F2107115480BF0F9F814480BF02CF930
:1016400042F210730093124B0122002101200AF094
:10165000C5F9104A002101200BF046F80E4B01227B
:10166000002101200AF0BAF90C4B5B6B40F6B83050
:10167000984700BF0837BD4680BD00BFDC11010898
:10168000CC02002008050020E11B0008F004002027
:1016900008120108BD1A000830120108881C010850
:1016A00080B500AF074B0122002101200AF096F916
:1016B000054B03221A70002101200BF037F800BF00
:1016C00080BD00BF50120108CC020020F0B595B0DB
:1016D0000AAFF860084611461A4603467B810B465E
:1016E0003B811346FB71A94B0122002101200AF026
:1016F00075F9FB680093A64B0122002101200AF036
:101700006DF9B7F9083097F9072001920093A14BC2
:101710000122002101200AF061F99F4AFB79137030
:101720007B890D2B40F20C81FB681B78D12B40F09C
:101730000781FB681B7887F82330FB685B7887F8A4
:101740002230FB6802331B781AB2FB6803331B7824
:101750001BB21B021BB213433B84FB6804331B7890
:101760001AB2FB6805331B781BB21B021BB2134372
:10177000FB83FB689B797B77FB6807331B781AB286
:10178000FB6808331B781BB21B021BB213437B831D
:10179000FB6809331B781AB2FB680A331B781BB24B
:1017A0001B021BB213433B83FB680B331B781AB23B
:1017B000FB680C331B781BB21B021BB21343FB826A
:1017C000FB685B7B7B7597F82260B7F92030184681
:1017D000FEF74CFF034671491846FFF74FF80346E2
:1017E0001846FEF731FE04460D46B7F91E3018467E
:1017F000FEF73CFF034669491846FFF73FF80346EA
:101800001846FEF721FE02460B46797FB7F91A000B
:10181000B7F918C0C7F800C0B7F916E0CDF824E052
:10182000D7F800C0CDF820C007900691CDE9042379
:10183000CDE9024500965A4B0122002101200AF011
:10184000CDF897F82230002B7AD097F82230062B6B
:1018500076D897F822305A1E524913469B001344FB
:101860009B000B4497F822201A7097F822305A1EDA
:101870004C4913469B0013449B000B4402333A8CA3
:101880001A8097F822305A1E464913469B0013448B
:101890009B000B440433FA8B1A8097F822305A1EAF
:1018A000404913469B0013449B000B4406337A7F48
:1018B0001A7097F822305A1E3A4913469B00134477
:1018C0009B000B4408337A8B1A8097F822305A1EFB
:1018D000344913469B0013449B000B440A333A8B54
:1018E0001A8097F822305A1E2E4913469B00134443
:1018F0009B000B440C33FA8A1A8097F822305A1E48
:10190000284913469B0013449B000B440E330122CD
:101910001A7097F822305C1E01F082F802462149C5
:1019200023469B0023449B000B4410331A6097F816
:10193000223000931C4B0122002101200AF04EF8B6
:101940001A4B03221A70FF2200211948FFF725FBCA
:10195000184A7B891380174B1B88FF2B06D8154B21
:101960001B881A46F96812480EF0AEFE3B895AB23F
:10197000114B1A707B890093104B01220021032028
:101980000AF02CF800237B6238E000BF5C120108EB
:101990006812010878120108D30400200000C84230
:1019A0009C12010808050020E8120108CC02002062
:1019B000D0020020D0040020D20400200813010827
:1019C0001A4A7B6A13441B780093194B01220021A9
:1019D00003200AF003F87B6A5A4203F00F0302F077
:1019E0000F0258BF53420F2B05D1124B0122002189
:1019F000032009F0F3FF7B6A01337B627B6A3F2B94
:101A0000DEDD0C4B00220021032009F0E7FF00215E
:101A100001200AF08BFE7B891A460021F868FFF747
:101A2000BCFA00BF2C37BD46F0BD00BFD00200207D
:101A30001C1301082413010880B500AF074B0122D5
:101A40000021012009F0CAFF054B04221A70002171
:101A500001200AF06BFE00BF80BD00BF2813010803
:101A6000CC02002080B500AF074B012200210120ED
:101A700009F0B4FF054B01221A70002101200AF081
:101A800055FE00BF80BD00BF38130108CC02002006
:101A900080B500AF074B01220021012009F09EFF15
:101AA000054B02221A70002101200AF03FFE00BF00
:101AB00080BD00BF48130108CC02002080B500AFF4
:101AC000354B1B78042B55D801A252F823F000BFE8
:101AD000E51A00081B1B0008391B0008FD1A000846
:101AE000571B00082D4B01220021012009F076FF31
:101AF0002B4B5B6B40F6B83098474AE0294B0122EC
:101B00000021012009F06AFF254B5B6B40F6B830DD
:101B10009847214B00221A703BE0234B0122002101
:101B2000012009F05BFF1E4B5B6B40F6B830984715
:101B3000194B00221A702CE01C4B012200210120BD
:101B400009F04CFF164B5B6B40F6B8309847124BD0
:101B500000221A701DE0164B01220021012009F01D
:101B60003DFF0F4B5B6B40F6B83098470A4B0022A5
:101B70001A700EE00F4B01220021012009F02EFF08
:101B8000074B5B6B40F6B8309847034B00221A7046
:101B900000BF00BF80BD00BFCC020020541301086D
:101BA000881C0108741301089C130108C81301085C
:101BB000F01301081414010880B582B000AF7860FA
:101BC0004FF40071044804F08EFF04480AF064FEEC
:101BD00000BF0837BD4680BD00040048D404002083
:101BE000F0B5ADF5597D06AF07F55273A3F54F7308
:101BF0001860C24B1C68631CC04A136000F010FFE1
:101C0000034607F1100000932346BD4A4FF4487184
:101C10000EF032FCC7F844030023C7F8403300231A
:101C2000C7F83C3399E0B749D7F83C2313469B00EB
:101C300013449B000B440E331B78002B00F088806C
:101C4000D7F84033002B12DDD7F8443307F11002E8
:101C5000D018D7F84433C3F54873AB4A19460EF091
:101C60000BFC0246D7F844331344C7F84433D7F883
:101C7000443307F11002D018D7F84433C3F5487144
:101C8000A04CD7F83C2313469B0013449B002344ED
:101C90001B789C469B4CD7F83C2313469B0013446F
:101CA0009B0023440233B3F900301D46954CD7F80E
:101CB0003C2313469B0013449B0023440433B3F995
:101CC00000301E468F4CD7F83C2313469B0013442C
:101CD0009B00234406331B78BB608A4CD7F83C2317
:101CE00013469B0013449B0023440833B3F9003090
:101CF0007B60844CD7F83C2313469B0013449B0025
:101D000023440A33B3F900303B607E4CD7F83C23C0
:101D100013469B0013449B0023440C33B3F900305B
:101D200005933A6804927A680392BB68029301961D
:101D300000956346754A0EF09FFB0246D7F8443380
:101D40001344C7F84433D7F840330133C7F840335E
:101D5000D7F83C330133C7F83C33D7F83C33052B75
:101D60007FF761AFD7F8443307F11002D018D7F8E6
:101D70004433C3F54873664A19460EF07DFB0246AC
:101D8000D7F844331344C7F84433D7F8443307F142
:101D90001002D018D7F84433C3F548735D4A19468A
:101DA0000EF06AFB0246D7F844331344C7F84433B5
:101DB0000023C7F838330123C7F8343344E0D7F899
:101DC00034335A1E4F4913469B0013449B000B4467
:101DD0000E331B7883F00103DBB2002B2FD0D7F832
:101DE0003833002B12DDD7F8443307F11002D01836
:101DF000D7F84433C3F54873474A19460EF03CFB05
:101E00000246D7F844331344C7F84433D7F8443371
:101E100007F11002D018D7F84433C3F54871D7F84A
:101E200034333E4A0EF028FB0246D7F844331344BD
:101E3000C7F84433D7F838330133C7F83833D7F805
:101E400034330133C7F83433D7F83433062BB6DDD7
:101E5000D7F8443307F11002D018D7F84433C3F54C
:101E600048732F4A19460EF007FB0246D7F8443351
:101E70001344C7F84433214B1B68591ED7F8383335
:101E8000D7F8402327480EF087FA4FF41672002146
:101E90002548FFF782F807F110031846FEF720FFE8
:101EA00003469AB207F1100300210291002101912B
:101EB000002100911D491C4802F0A2FC0023C7F834
:101EC00030330FE00F49D7F8302313469B001344FB
:101ED0009B000B440E3300221A70D7F830330133C5
:101EE000C7F83033D7F83033052BEBDD10480AF054
:101EF000D3FC00BF07F55377BD46F0BD8005002039
:101F00003C140108080500209C140108A0140108D5
:101F1000F4140108FC1401080C150108101501083F
:101F20001C1501082015010870070020CE000020B4
:101F3000F004002080B500AF09F07CFC0346184691
:101F400080BD80B582B000AF0346FB71FB791846B7
:101F500009F0ACFC034618460837BD4680BD80B585
:101F600000AF09F0F7FC0346184680BD80B500AF0E
:101F700009F0F7FC0346184680BD80B500AF09F0B4
:101F8000F7FC0346184680BD80B582B000AF03461B
:101F9000FB71FB79184609F0F2FC03461846083736
:101FA000BD4680BD80B483B000AF78604FF0B043D1
:101FB000D3F8903023F018024FF0B0417B68134300
:101FC000C1F8903000BF0C37BD4680BC70470000A0
:101FD00080B500AF05F0AEFB00F04EF800F0E4F87D
:101FE000FFF702FA00F0DEF902F08CFF1C4A002134
:101FF00002200AF079FB002102200AF097FB194B1E
:102000001B78DBB2012B0ED1174B1B78002B0AD1AA
:1020100016480EF0C1F9FFF7DBFA134B01221A70D4
:1020200013480EF0B9F9104B1B78002B01D0FFF7C5
:10203000E3F9104B1B6801330E4A13600D4B1B680C
:10204000B3F57A7F06D90B4B00221A6000210220DB
:102050000AF06CFB4FF0FF300AF04AFACFE700BFFE
:10206000D1330008C9090020840500207415010837
:10207000A81501088805002080B59AB000AF07F1C7
:102080002003482200211846FEF787FF3B1D00224F
:102090001A605A609A60DA601A615A619A6105F0B2
:1020A00053F90020FFF77EFF1E4B1B6823F4C0632B
:1020B0001C4A43F4007313601A4B1B6803F4C0639B
:1020C0003B603B6824233B628123FB6201233B642A
:1020D00000237B64B023BB640023FB6407F120036F
:1020E000184603F05FFA0346002B01D000F03EF8DB
:1020F0004F237B600023BB600023FB6000233B6118
:1021000000237B610023FB613B1D0221184603F085
:10211000CBFD0346002B01D000F028F800BF683744
:10212000BD4680BD0004005880B487B000AF786021
:1021300041F20A133B6100237B610DE00023FB6049
:1021400003E000BFFB680133FB60FB683A699A4219
:10215000F7D87B6901337B617A697B689A42EDD35A
:1021600000BF00BF1C37BD4680BC704780B400AFC5
:1021700072B600BF00BFFDE780B485B000AF7860E5
:102180004FF0B043DA6C4FF0B0417B681343CB643F
:102190004FF0B043DA6C7B681340FB60FB6800BF14
:1021A0001437BD4680BC704780B586B000AF3B1D7C
:1021B00000221A605A609A60DA601A610220FFF702
:1021C000DBFF0420FFF7D8FF0120FFF7D5FF002237
:1021D0004FF43241264804F06FFC002208212548C4
:1021E00004F06AFC4FF402437B600123BB600023D0
:1021F000FB6002233B613B1D19461D4804F02EFA8B
:1022000008237B600123BB600023FB6000233B614C
:102210003B1D1946174804F021FA03237B604FF455
:102220000413BB600123FB603B1D19464FF0904037
:1022300004F014FA4FF440537B600123BB60002389
:10224000FB6003233B613B1D1946094804F006FA75
:1022500040237B604FF40413BB600123FB603B1DF4
:102260001946044804F0FAF900BF1837BD4680BD8E
:10227000000400480008004880B485B000AF7860D2
:102280004FF0B0439A6C4FF0B0417B6813438B64BE
:102290004FF0B0439A6C7B681340FB60FB6800BF53
:1022A0001437BD4680BC704780B500AF0420FFF7EF
:1022B000E3FF0120FFF7E0FF002200210B2005F0E3
:1022C000D8F90B2005F0EFF900BF80BD80B485B0D0
:1022D00000AF78604FF0B043DA6C4FF0B0417B68EC
:1022E0001343CB644FF0B043DA6C7B681340FB6060
:1022F000FB6800BF1437BD4680BC704780B485B012
:1023000000AF78604FF0B0439A6D4FF0B0417B68FA
:1023100013438B654FF0B0439A6D7B681340FB60AD
:10232000FB6800BF1437BD4680BC704780B485B0E1
:1023300000AF78604FF0B043DA6D4FF0B0417B688A
:102340001343CB654FF0B043DA6D7B681340FB60FD
:10235000FB6800BF1437BD4680BC704780B483B0B3
:1023600000AF78604FF0B0439A6D7B68DB434FF06D
:10237000B04113408B6500BF0C37BD4680BC704731
:1023800080B483B000AF78604FF0B043DA6D7B6803
:10239000DB434FF0B0411340CB6500BF0C37BD4667
:1023A00080BC704780B500AF224B234A1A60214B96
:1023B0004FF4E1325A601F4B00229A601D4B0022FD
:1023C000DA601C4B00221A611A4B0C225A61194B1D
:1023D00000229A61174B00221A62164B00225A62A1
:1023E000144B00229A62134B00225A66114805F0E2
:1023F00010FA0346002B01D0FFF7B8FE00210D486C
:1024000007F0BFFD0346002B01D0FFF7AFFE002110
:10241000084807F0F4FD0346002B01D0FFF7A6FEA5
:10242000044807F076FD0346002B01D0FFF79EFE1F
:1024300000BF80BD8C0500200080004080B500AF4B
:10244000224B234A1A60214B4FF4E1325A601F4B52
:1024500000229A601D4B0022DA601C4B00221A6198
:102460001A4B0C225A61194B00229A61174B002219
:10247000DA61164B00221A62144B00225A62134B87
:1024800000229A62114805F0C4F90346002B01D0DE
:10249000FFF76CFE00210D4807F073FD0346002B8B
:1024A00001D0FFF763FE0021084807F0A8FD0346AE
:1024B000002B01D0FFF75AFE044807F0EFFC03465B
:1024C000002B01D0FFF752FE00BF80BD2006002088
:1024D0000044004080B596B000AF786007F1440337
:1024E00000221A605A609A60DA601A6107F10C03E0
:1024F000382200211846FEF750FD7B681B684C4AC5
:1025000093422CD12023FB600023FB6107F10C03D5
:10251000184603F089FF0346002B01D0FFF726FE83
:102520000120FFF703FF0420FFF7D0FE03237B64A5
:102530000223BB640023FB6403233B6508237B6504
:1025400007F1440319463B4804F088F800220221B1
:10255000262005F08EF8262005F0A5F864E07B68BB
:102560001B68354A93425FD10223FB60334B7B618A
:1025700007F10C03184603F057FF0346002B01D068
:10258000FFF7F4FD4FF40030FFF7B8FE0120FFF72E
:102590009DFE0C237B640223BB640023FB640323A6
:1025A0003B6507237B6507F1440319464FF09040D4
:1025B00004F054F8224B234A1A60214B14225A602B
:1025C0001F4B10229A601E4B0022DA601C4B8022A7
:1025D0001A611B4B00225A61194B00229A61184B59
:1025E0000022DA61164B00221A62154804F094FAB0
:1025F0000346002B01D0FFF7B9FD1021104804F06D
:10260000CBFD0346002B01D0FFF7B0FD7B680C4AE1
:10261000DA670B4A7B68936200220221252005F0CD
:1026200028F8252005F03FF800BF5837BD4680BD8B
:1026300000800040000800480044004004000C00F6
:10264000B40600200800024080B582B000AF786078
:102650007B681B68134A93420AD10120FFF790FE62
:102660000321114804F05AF9262005F02AF815E054
:102670007B681B680D4A934210D14FF40030FFF77E
:102680006DFE0C214FF0904004F048F97B68DB6F41
:10269000184604F0E9FA252005F013F800BF0837C2
:1026A000BD4680BD00800040000800480044004056
:1026B00080B400AF4FF0B043D3F890304FF0B04249
:1026C00043F40043C2F8903000BFBD4680BC704761
:1026D00080B485B000AF78604FF0B0439A6D4FF092
:1026E000B0417B6813438B654FF0B0439A6D7B68B4
:1026F0001340FB60FB6800BF1437BD4680BC7047C9
:1027000080B58CB000AF3B1D2C2200211846FEF78F
:1027100044FC224B224A1A60204B1F229A601F4B16
:1027200000221A611D4B00225A611C4B00229A6143
:102730001A4B4FF08042DA61184B00221A62174B95
:102740004FF480725A62154807F006FD0346002BCD
:1027500001D0FFF70BFD114807F0FCFF0346002BEB
:1027600001D0FFF703FD00233B620023BB60002381
:10277000BB614FF00053FB614FF48073FB623B1D64
:1027800000221946054807F069FD0346002B01D0D9
:10279000FFF7ECFC00BF3037BD4680BD14070020BA
:1027A0000028004080B590B000AF786007F10803C2
:1027B000382200211846FEF7F0FB7B681B68164A9A
:1027C000934225D14FF48033BB604FF48073FB6399
:1027D00007F10803184603F027FE0346002B01D03B
:1027E000FFF7C4FCFFF764FF4FF48060FFF770FF52
:1027F00000220021022004F03CFF022004F053FFDD
:10280000002200212A2004F034FF2A2004F04BFF8C
:1028100000BF4037BD4680BD0028004080B485B071
:1028200000AF78604FF0B0435A6E4FF0B0417B6814
:1028300013434B664FF0B0435A6E7B681340FB6006
:10284000FB6800BF1437BD4680BC704780B500AF41
:10285000064B08221A60054808F0A4F80346002B2E
:1028600001D0FFF783FC00BF80BD00BF4C070020F4
:1028700080B582B000AF78600120FFF7CFFF002263
:102880000021322004F0F5FE322004F00CFF00BFDE
:102890000837BD4680BD000080B400AF034B012265
:1028A000C3F8882000BFBD4680BC704700040058B4
:1028B00080B400AF00BFBD4680BC704780B400AF9D
:1028C00000BFBD4680BC704780B500AF04F052FF2A
:1028D000FFF7E2FF012004F0C9FD00BF80BD80B515
:1028E00000AF04F055FF00F003FC00BF80BD80B5D1
:1028F00000AF04F03FFF0121002004F033FD00BFD2
:1029000080BD80B500AF04F043FF00BF80BD80B440
:1029100083B000AF78604FF0B0439B6823F400426F
:102920004FF0B0417B6813438B6000BF0C37BD464E
:1029300080BC704780B500AF0020FFF7E8FF09F0CA
:1029400065FF0A4B01221A7000F0B6F809F02AF868
:10295000074809F0C3F8022009F0CEF80AF0E6F9BA
:10296000012101200AF022FA00BF80BD5807002093
:102970008129000880B500AF0AF048FA00BF80BD89
:1029800080B586B002AF7860396007F10803184659
:1029900009F010FBBB68B7F90C200092074A102120
:1029A000786800F01DF87868FEF79AF903469AB245
:1029B0003B681A8000BF1037BD4680BDD4150108A2
:1029C00080B500AF012102200AF0C0F900BF80BD30
:1029D00080B500AF002102200AF0B8F900BF80BD29
:1029E0000CB480B584B000AF7860396007F11C0387
:1029F000FB603968FB68BA69786809F027FC00BF9A
:102A00001037BD46BDE8804002B0704780B483B047
:102A100000AF7860002318460C37BD4680BC704775
:102A200080B582B000AF00237B60064B1B78002B83
:102A300002D000F03FF978607B6818460837BD4641
:102A400080BD00BF5807002080B582B000AF78601D
:102A50007B681846FFF768FB00BF0837BD4680BD9E
:102A600080B485B000AF78604FF0B043DA6C4FF0BF
:102A7000B0417B681343CB644FF0B043DA6C7B68A2
:102A80001340FB60FB6800BF1437BD4680BC704735
:102A900080B483B000AF7860064BD3F8902005492E
:102AA0007B681343C1F8903000BF0C37BD4680BC33
:102AB000704700BF0008005880B586B000AF4FF4E3
:102AC0008040FFF7E5FF04F071FE04F075FE04F0AE
:102AD00079FE3B1D00221A605A609A60DA601A6122
:102AE0000123BB600023FB6003233B610220FFF74F
:102AF000B7FF0220FFF7B4FF4FF480537B603B1D0C
:102B000019460D4803F0AAFD4FF400537B603B1DAE
:102B10001946094803F0A2FD00224FF480510648EF
:102B200003F0CAFF00224FF40051034803F0C4FF32
:102B300000BF1837BD4680BD0004004880B483B094
:102B400000AF78607B689B6818460C37BD4680BC38
:102B50007047000080B582B000AF0023FB71144BBA
:102B60001B7883F00103DBB2002B1BD0114B4FF01D
:102B7000FF321A63FFF7C4FD00F056F84FF480717E
:102B80000C4807F077FC0B4B4FF0FF321A630948F3
:102B900007F0AEFD002000F0B9F900F05FF8044B3B
:102BA00001221A70FB7918460837BD4680BD00BF68
:102BB000590700201407002080B58EB000AF786060
:102BC000002387F8373007F108032C22002118462C
:102BD000FEF7E3F900F028F8114B1B687A681344FC
:102BE0007B6000237B627B68DB43FB600023FB612F
:102BF0004FF000533B624FF480733B6307F10803CF
:102C000001221946074807F029FB0346002B01D093
:102C1000FFF7ACFA97F8373018463837BD4680BD15
:102C20005C0700201407002080B582B000AF0023AD
:102C3000FB71084B0122DA654FF48071064807F0FA
:102C400019FC054B4FF0FF321A63FB791846083721
:102C5000BD4680BD002800401407002080B500AFAD
:102C600000F074F90346034A1360024B1B681846D0
:102C700080BD00BF5C07002080B400AF024B1B6822
:102C80001846BD4680BC70475C07002080B582B006
:102C900000AF00237B6000F059F90246044B1B682B
:102CA000D31A7B607B6818460837BD4680BD00BFDD
:102CB0005C07002080B582B000AF00237B60064B2C
:102CC0001B78002B02D000F041F978607B68184631
:102CD0000837BD4680BD00BF5907002080B483B0CF
:102CE00000AF00237B6003237B607B6818460C37B2
:102CF000BD4680BC7047B0B584B000AF786000219D
:102D0000F960796800200A460346950D94024FF455
:102D10007A724FF0000320462946FDF74BFE02462B
:102D20000B461346FB60FB6818461037BD46B0BD26
:102D30002DE9B00F85B000AF78600021F9607968A7
:102D400000200C460546204629464FF0000A4FF069
:102D5000000B4FEA411B4BEAD06B4FEA401A50463A
:102D60005946021B61EB05034FF000004FF00001D4
:102D7000990041EA9271900002460B4612EB04085A
:102D800043EB05094FF000024FF000034FEAC9037F
:102D900043EA58734FEAC80290469946404649466E
:102DA0004FF000024FF00003820A42EA81528B0A80
:102DB0001346FB60FB6818461437BD46BDE8B00FEC
:102DC000704780B582B000AF786009F06DFE00BF3B
:102DD0000837BD4680BD80B584B000AF786000F094
:102DE000A5F8F860FB680133184600F08FF800BFC3
:102DF0001037BD4680BD2DE9B04F8CB000AF786173
:102E00000023FB6200F0A2F8B86200F08FF878624D
:102E10007B6A0022BB60FA604FF000024FF00003B3
:102E2000B9680B000022B96A00200C46054612EB77
:102E3000040843EB0509C7E90689D7E906014FF005
:102E400000024FF00003820A42EA81528B0A1346C5
:102E5000FB62BB6900223B607A603B68C3F3090AEE
:102E60004FF0000BC7E906ABBB691846FFF760FFE0
:102E700003469AB27B691A80FB6A18463037BD4612
:102E8000BDE8B08F80B582B000AF78607A6800216D
:102E9000034807F0BFFC00BF0837BD4680BD00BF38
:102EA0001407002080B582B000AF78607A680121F5
:102EB000034807F0AFFC00BF0837BD4680BD00BF28
:102EC0001407002080B582B000AF00237B60002192
:102ED000044807F0B7FC78607B6818460837BD46A1
:102EE00080BD00BF1407002080B582B000AF002372
:102EF0007B600121044807F0A5FC78607B681846D8
:102F00000837BD4680BD00BF1407002080B582B0E1
:102F100000AF78607A680221034807F07BFC00BFAD
:102F20000837BD4680BD00BF1407002080B582B0C1
:102F300000AF0221044807F085FC78607B681846E2
:102F40000837BD4680BD00BF1407002080B582B0A1
:102F500000AF0B48FFF7F2FD786003E00848FFF789
:102F6000EDFD78600648FFF7E9FD02467B68934275
:102F7000F4D17B68DB4318460837BD4680BD00BFEF
:102F80000028004080B483B000AF78604FF0B043B9
:102F90009A6B4FF0B0417B6813438B6300BF0C37D3
:102FA000BD4680BC704780B483B000AF78604FF0FE
:102FB000B0439A6B7B68DB434FF0B04113408B63A7
:102FC00000BF0C37BD4680BC7047000080B483B0A2
:102FD00000AF7860064BD3F8802005497B68134327
:102FE000C1F8803000BF0C37BD4680BC704700BFC1
:102FF0000008005880B582B000AF7860074A7B684F
:103000001360FFF751F9FFF719FA4FF00060FFF76F
:10301000DDFF002318460837BD4680BD6407002049
:1030200080B500AF4FF40030FFF7ACFF4FF4003035
:10303000FFF7B9FF0448FFF707FB0F2004F041FB3F
:103040000023184680BD00BF2006002080B582B056
:1030500000AF78600B467B807B881A46796804480D
:1030600004F0BEFD002318460837BD4680BD00BFF2
:103070002006002080B584B000AF7860194A7B68D4
:1030800013604FF40013BB6007F1080393E80600D8
:10309000154806F076FE00BF134B1B68DB6903F48E
:1030A0008033B3F5803FF7D000BF0F4B1B68DB695F
:1030B00003F48003B3F5800FF7D10B4B1B689A68BC
:1030C000094B1B6842F480029A60074806F0B4FE80
:1030D00001220649044804F037FD00231846103742
:1030E000BD4680BD68070020200600206007002044
:1030F00080B500AF084804F08CFB0346002B01D0DC
:10310000FFF734F8054803F007FD0346002B01D014
:10311000FFF72CF800BF80BD20060020B406002079
:1031200080B582B000AF78607B681B68054A934227
:1031300003D1054B1B680020984700BF0837BD46E8
:1031400080BD00BF004400406407002080B400AF91
:1031500000BFFDE780B400AF00BFFDE780B400AF63
:1031600000BFFDE780B400AF00BFFDE780B400AF53
:1031700000BFFDE780B400AF00BFBD4680BC704714
:1031800080B400AF00BFBD4680BC704780B400AFC4
:1031900000BFBD4680BC704780B400AF00BFBD46D5
:1031A00080BC704780B500AF024807F00FFB00BF3E
:1031B00080BD00BF1407002080B500AF024803F0B7
:1031C00025FF00BF80BD00BFB406002080B500AF62
:1031D000024804F053FE00BF80BD00BF200600205F
:1031E00080B500AF024804F049FE00BF80BD00BFBB
:1031F0008C05002080B500AF024807F097F900BFAA
:1032000080BD00BF1407002080B500AF024807F062
:103210004BFE00BF80BD00BF4C07002080B400AF54
:1032200000BFBD4680BC704780B586B000AF7860F7
:10323000144A154BD31A7B617B693B61134B1B68A6
:10324000002B02D1114B124A1A60104B1A687B688E
:1032500013443A699A4207D20DF030FA03460C2221
:103260001A604FF0FF3309E0084B1B68FB60074B07
:103270001A687B681344054A1360FB6818461837C0
:10328000BD4680BD00800020000800006C070020C3
:103290002012002080B586B000AFF860B9607A6077
:1032A00000237B610AE0AFF300800146BB685A1C33
:1032B000BA60CAB21A707B6901337B617A697B6834
:1032C0009A42F0DB7B6818461837BD4680BD80B552
:1032D00086B000AFF860B9607A6000237B6109E0D6
:1032E000BB685A1CBA601B781846AFF300807B6934
:1032F00001337B617A697B689A42F1DB7B6818460F
:103300001837BD4680BD80B483B000AF78604FF001
:10331000FF3318460C37BD4680BC704780B483B07D
:1033200000AF786039603B684FF400525A60002368
:1033300018460C37BD4680BC704780B483B000AFE0
:103340007860012318460C37BD4680BC704780B4B6
:1033500085B000AFF860B9607A6000231846143772
:10336000BD4680BC7047000080B582B000AF786079
:10337000796811480DF010F8104978680DF088F957
:103380000346002B14D00E4978680DF081F90346EE
:10339000002B03D00B480DF067F809E00A49786864
:1033A0000DF076F90346002B02D008480DF05CF8CA
:1033B00000BF0837BD4680BD5016010868160108D9
:1033C0007C1601088C160108AC160108C01601080D
:1033D00080B500AF624B02221A70624B1B78052B3E
:1033E00000F2BB8001A252F823F000BF9534000820
:1033F0002F340008A53400083B3500084335000889
:1034000005340008584B1B78DBB2012B07D1554B14
:1034100002221A700021022009F088F99DE0514B28
:1034200003221A700021022009F080F995E04F482C
:1034300000F0B0F80346002B24D1012001F038FD44
:103440004B4B01221A7000224A494B4801F01EFBE7
:103450000346002B06D1494B00221A70414B05222E
:103460001A7012E0454B1B780133DAB2434B1A70E5
:10347000424B1B78032B01D1042200E00122394B7F
:103480001A7002E0374B01221A700021022009F065
:103490004DF962E06420FFF7D7FA0021022009F01D
:1034A00045F95AE0364B1B78DBB2002B04D001F013
:1034B000DBFC334B00221A702B4B1B78DBB2012B49
:1034C00021D101F0DFFC284B00221A702D48FDF7B6
:1034D00007FC03461A4600212A48FDF75EFD2648F0
:1034E000FDF7FEFB03469BB21A462349264801F02E
:1034F00007FB244925480CF04FFF2248FFF734FF13
:10350000184B02221A70224B1B68013B204A1360A1
:103510001F4B1B68002B02D1124B05221A70124B55
:103520001B78DBB2012B03D0194B1B68002B13DD7A
:103530000021022009F0FAF80EE00A4B05221A7069
:103540000BE00E4B00221A70064B00221A7000216D
:10355000022009F0EBF800E000BF00BF80BD00BF13
:10356000340D00205C000020DE0C002060000020F4
:10357000C90900209C00002070070020CA09002013
:10358000C8090020310A0020CC090020E0160108FB
:10359000940C0020B0B586B002AF78600023FB73B6
:1035A000A64B00221A707AE30023BB73A34B1B784F
:1035B0000A2B00F2748301A252F823F0E9350008C7
:1035C00073360008F33600089F3800081D390008DC
:1035D000A1390008233A0008B53A00085F3B00080B
:1035E000753C00084F3C0008954B01221A70954B22
:1035F00000221A707B681B680021184600F06CFBE3
:103600000346BB73BB7B002B06D18F4B00221A7085
:103610008A4B01221A701CE0BB7B042B06D18B4B1A
:103620000B221A70854B00221A7012E0BB7B012B13
:1036300006D1864B0C221A70804B00221A7008E0CB
:10364000BB7B032B05D1814B0D221A707B4B0022D3
:103650001A707D4B1B78DBB2142B40F20D837A4B32
:1036600000221A70794B01221A70744B0A221A70C8
:1036700002E37B681B6800220121184600F07CFBF6
:103680000346BB73BB7B002B06D16F4B00221A7025
:103690006A4B02221A701CE0BB7B042B06D16B4BD9
:1036A0000B221A70654B01221A7012E0BB7B012BB2
:1036B00006D1664B0C221A70604B01221A7008E08A
:1036C000BB7B032B05D1614B0D221A705B4B012292
:1036D0001A705D4B1B78DBB2142B40F2CF825A4B31
:1036E00000221A70594B02221A70544B0A221A7087
:1036F000C4E27B685B79012B40F0BE80544807F040
:10370000D9FD0346002B01D0FEF730FD7B681B6816
:103710000021184600F08AFB0346BB73BB7B002BDD
:1037200077D1494B00221A705FE07B68186800234C
:1037300041F28832C82100F0C1FB7B681B68454913
:10374000184600F0F7FB0346002B0AD13E4B00223F
:103750001A707B681B68404A4049184600F03CFCE0
:1037600043E07B681B683E49184600F0E3FB0346D4
:10377000002B3AD1344B00221A704FF47A70FFF7C5
:1037800063F92EE07B681B680021184600F06AFC94
:103790000346BB73BB7B002B06D12B4B00221A7058
:1037A000264B05221A7020E0BB7B042B06D1274B49
:1037B0000B221A70214B02221A7012E0BB7B012BE4
:1037C00006D1224B0C221A701C4B02221A7008E000
:1037D000BB7B032B05D11D4B0D221A70174B022208
:1037E0001A70164B1B78022BCCD0174B1B78DBB210
:1037F000F92B03D8114B1B78052B96D1144807F0F1
:10380000A5FD0E4B1B78052B39D00C4B0A221A70E4
:1038100035E0BB7B042B06D10C4B0B221A70074BF7
:1038200002221A702BE0BB7B012B1BD1074B0C2211
:103830001A70024B02221A7021E000BFE00C002037
:10384000350D0020D80C0020360D0020DC0C0020A7
:10385000E80C002058180108B80C0020980C002033
:103860006C180108BB7B032B09D1A24B0D221A70E7
:10387000A14B02221A7002E09F4B03221A709F4B49
:103880001B78DBB2412B40F2FB819C4B00221A706B
:10389000984B03221A70984B0A221A70F0E17B6849
:1038A0001B680021184600F025FC0346BB73BB7B58
:1038B000002B06D1914B00221A708F4B04221A70F4
:1038C0001CE0BB7B042B06D18A4B0B221A708A4B5F
:1038D00003221A7012E0BB7B012B06D1854B0C2210
:1038E0001A70854B03221A7008E0BB7B032B05D1AD
:1038F000804B0D221A70804B03221A707F4B1B786D
:10390000DBB2142B40F2BE817C4B00221A70794B43
:1039100004221A70784B0A221A70B3E17B68186887
:103920007B6899687B68DA68002300F02BFC03460B
:10393000BB73BB7B002B06D1704B00221A706E4B01
:1039400005221A701CE0BB7B042B06D1694B0B22AD
:103950001A70694B04221A7012E0BB7B012B06D14E
:10396000644B0C221A70644B04221A7008E0BB7B73
:10397000032B05D15F4B0D221A705F4B04221A7086
:103980005E4B1B78DBB2142B40F27E815B4B002236
:103990001A70584B05221A70574B0A221A7073E19D
:1039A0007B6818687B681B7C0022194600F05AFC73
:1039B0000346BB73BB7B002B06D1504B00221A7011
:1039C0004D4B06221A701CE0BB7B042B06D1494BE1
:1039D0000B221A70484B05221A7012E0BB7B012B98
:1039E00006D1444B0C221A70434B05221A7008E092
:1039F000BB7B032B05D13F4B0D221A703E4B05229A
:103A00001A703E4B1B78DBB2142B40F23F813B4BCC
:103A100000221A70374B06221A70374B0A221A708E
:103A200034E17B6818687B68597C7B685A697B68DD
:103A30009C697B68DB69002501950093234600F0B3
:103A400077FC0346BB73BB7B002B09D12B4B0022B9
:103A50001A702B4B01221A70274B08221A7019E09A
:103A6000BB7B042B06D1234B0B221A70224B062260
:103A70001A700FE0BB7B012B06D11E4B0C221A7073
:103A80001D4B06221A7005E0BB7B032B02D11A4B9B
:103A900006221A70194B1B78DBB2142B40F2F88007
:103AA000164B00221A70134B07221A70124B0A226F
:103AB0001A70EDE07B6818687B68198C7B6893F856
:103AC00022207B6893F823407B6893F824300025FC
:103AD00001950093234600F097FC0346BB73BB7B24
:103AE000002B0FD1054B00221A70034B08221A70CD
:103AF00025E000BFDC0C0020E00C0020360D00208B
:103B0000D90C0020BB7B042B06D16B4B0B221A7007
:103B10006A4B07221A7012E0BB7B012B06D1664B61
:103B20000C221A70654B07221A7008E0BB7B032B2E
:103B300005D1614B0D221A70604B07221A70604B41
:103B40001B78DBB2142B40F2A5805D4B00221A706B
:103B5000594B08221A70594B0A221A709AE07B6856
:103B600018687B68996A7B6893F82C20002300F022
:103B7000BFFC0346BB73BB7B002B35D12FE07B68BA
:103B80001B680021184600F01DFD0346BB73BB7B7C
:103B9000002B19D17B681B681A331B78342B13D187
:103BA000474B00221A70474B00221A70464B0122E5
:103BB0001A70464B01221A70404B09221A70444B6E
:103BC00009221A70002372E03D4B1B78DBB2C82B30
:103BD00005D93B4B00221A70384B0A221A70374B1A
:103BE0001B78082BCBD01CE0BB7B042B06D1324BBF
:103BF0000B221A70314B08221A7012E0BB7B012B8A
:103C000006D12D4B0C221A702C4B08221A7008E09A
:103C1000BB7B032B05D1284B0D221A70274B0822A2
:103C20001A70274B1B78DBB2642B35D9244B00224A
:103C30001A70214B09221A70204B0A221A702BE0AD
:103C4000FB7B0133FB731D4B00221A7003E000BFA6
:103C5000FB7B022BF4D9FB7B032B1FD1194B0022DA
:103C60001A701C4B01221A700023FB73134B09229C
:103C70001A7013E000BF12E000BF10E000BF0EE0BA
:103C800000BF0CE000BF0AE000BF08E000BF06E094
:103C900000BF04E000BF02E000BF00E000BF074B30
:103CA0001B78092B7FF480AC0A4B1B78DBB21846DB
:103CB0001037BD46B0BD00BFDC0C0020E00C00207A
:103CC000360D0020350D0020DF0C0020D90C00201F
:103CD00000010020D80C002080B584B000AF7860CF
:103CE0000B46FB70224800F0C1FC0346FB73FB7BD4
:103CF000002B34D1FB784FF47A625A21786800F0B7
:103D0000DDF80346BB73BB7B002B02D0BB7B032BD0
:103D100023D1184B1B681946786800F00BF903464D
:103D20007B737B7B002B08D1FB784FF47A625A219E
:103D3000786800F0C3F8002315E07B7B022B02D0EB
:103D40007B7B032B01D101230DE07B7B052B08D16D
:103D5000BB7B032B05D1032305E0BB7B03E00423DE
:103D600001E000BF002318461037BD4680BD00BFEC
:103D7000881801080401002080B588B000AF786081
:103D80000B46FB701346BB7007F10C0300221A6050
:103D90005A609A609A81FA7807F10C032149184613
:103DA0000CF0A0FB07F10C03184600F05FFC034683
:103DB000FB77FB7F002B2DD1BB7841F288325A2153
:103DC000786800F07BF80346BB77BB7F002B02D0FE
:103DD000BB7F032B1CD1144B1B681946786800F07D
:103DE000A9F803467B777B7F002B01D1002315E0E8
:103DF0007B7F022B02D07B7F032B01D101230DE0BF
:103E00007B7F052B08D1BB7F032B05D1032305E066
:103E1000BB7F03E0042301E000BF002318462037E6
:103E2000BD4680BD941801080401002080B584B00F
:103E300000AF78600B46FB701E4800F017FC03468D
:103E4000FB73FB7B002B2DD1FB7841F288325A218A
:103E5000786800F033F80346BB73BB7B002B02D0BD
:103E6000BB7B032B1CD1144B1B681946786800F0F0
:103E700061F803467B737B7B002B01D1002315E0A7
:103E80007B7B022B02D07B7B032B01D101230DE036
:103E90007B7B052B08D1BB7B032B05D1032305E0DE
:103EA000BB7B03E0042301E000BF0023184610376A
:103EB000BD4680BDA41801080401002080B586B06D
:103EC00000AFF860084611461A4603467B810B4650
:103ED0003B811346FB714FF4167200211348FDF726
:103EE0005CF800BF00F0DAFB0346012BFAD0FB7947
:103EF000002B02D0012B09D013E03B897A89F968A5
:103F00000B4803F05CFD0346FB750AE001237B814F
:103F10007B891A46F968064803F016FE0346FB75CE
:103F200000BFFB7D18461837BD4680BD70070020D6
:103F30008C05002080B584B000AF786039603968A6
:103F400078680CF0A5FB0346002B02D00023FB731E
:103F500036E0396878680CF09BFB0346002B2FD1C4
:103F60001A4B1B68194678680CF092FB0346002B2D
:103F700002D00123FB7323E0154B1B6819467868B8
:103F80000CF086FB0346002B02D00223FB7317E0E4
:103F90002B2178680CF05CFB0346002B02D0032336
:103FA000FB730DE00B4B1B68194678680CF070FB37
:103FB0000346002B02D00423FB7301E00523FB73AF
:103FC000FB7B18461037BD4680BD00BF14010020A2
:103FD0000C0100202401002080B588B000AFF860FB
:103FE000B9607A601D49F8680CF052FB034605334E
:103FF000FB610A21F8690CF02BFBB861BA69FB6917
:10400000D31A1A46F969B8680CF02FFBBA69FB6934
:10401000D31A1A46BB68134400221A701049F86874
:104020000CF036FB034609337B610A2178690CF0FA
:104030000FFB38613A697B69D31A1A467969786847
:104040000CF013FB3A697B69D31A1A467B68134458
:1040500000221A7000BF2037BD4680BDB818010885
:10406000C018010880B584B000AF78600B46FB70C3
:104070001E4800F0FBFA0346FB73FB7B002B2DD19F
:10408000FB7841F288325A217868FFF717FF034620
:10409000BB73BB7B002B02D0BB7B032B1CD1144B0F
:1040A0001B6819467868FFF745FF03467B737B7BE7
:1040B000002B01D1002315E07B7B022B02D07B7B00
:1040C000032B01D101230DE07B7B052B08D1BB7BAA
:1040D000032B05D1032305E0BB7B03E0042301E0B0
:1040E00000BF002318461037BD4680BDCC1801081C
:1040F0000401002080B584B000AF78600B46FB70EF
:104100001E4800F0B3FA0346FB73FB7B002B2DD156
:10411000FB7841F2883278217868FFF7CFFE0346BA
:10412000BB73BB7B002B02D0BB7B032B1CD1144B7E
:104130001B6819467868FFF7FDFE03467B737B7B9F
:10414000002B01D1002315E07B7B022B02D07B7B6F
:10415000032B01D101230DE07B7B052B08D1BB7B19
:10416000032B05D1032305E0BB7B03E0042301E01F
:1041700000BF002318461037BD4680BDE018010877
:104180000401002090B593B000AFF860B9607A6088
:10419000FB7007F11003322200211846FCF7FDFEE8
:1041A00007F110007B68BA682B490CF09BF907F106
:1041B0001003184600F05AFA034687F8473097F87C
:1041C0004730002B40D1FB7841F270726421F868CF
:1041D000FFF774FE034687F8463097F84630002B09
:1041E00003D097F84630032B2BD11C4B1B68194684
:1041F000F868FFF79FFE03461C46194B1B681946DB
:10420000F868FFF797FE0346234387F8453097F891
:104210004530002B01D100231AE097F84530022BDE
:1042200003D097F84530032B01D1012310E097F814
:104230004530052B0AD197F84630032B06D10323CE
:1042400006E097F8463003E0042301E000BF0523B1
:1042500018464C37BD4690BDEC18010808010020F7
:104260000401002080B590B000AF78600B46FB7071
:104270001346BB7007F10803322200211846FCF7F1
:104280008CFEFA7807F10803274918460CF02AF942
:1042900007F10803184600F0E9F9034687F83F30B4
:1042A00097F83F30002B37D1BB7841F288325A2142
:1042B0007868FFF703FE034687F83E3097F83E30F4
:1042C000002B03D097F83E30032B22D1174B1B68ED
:1042D00019467868FFF72EFE034687F83D3097F8B9
:1042E0003D30002B01D100231AE097F83D30022B1E
:1042F00003D097F83D30032B01D1012310E097F84C
:104300003D30052B0AD197F83E30032B06D103230D
:1043100006E097F83E3003E0042301E000BF0023ED
:1043200018464037BD4680BD04190108040100202D
:1043300080B59AB002AFF8607A603B600B46FB72C2
:1043400007F11403462200211846FCF726FEFA7AEC
:1043500007F11400BB6E01933B6800937B6828490A
:104360000CF0C0F807F11403184600F07FF903467B
:1043700087F85F3097F85F30002B38D197F86C30B2
:1043800041F288327821F868FFF798FD034687F8F4
:104390005E3097F85E30002B03D097F85E30032B29
:1043A00022D1184B1B681946F868FFF7C3FD034676
:1043B00087F85D3097F85D30002B01D100231AE0BB
:1043C00097F85D30022B03D097F85D30032B01D1B5
:1043D000012310E097F85D30052B0AD197F85E3085
:1043E000032B06D1032306E097F85E3003E0042395
:1043F00001E000BF002318466037BD4680BD00BF06
:10440000281901080401002090B599B002AF786026
:10441000084611461A4603467B800B467B701346BE
:104420003B7007F10C03462200211846FCF7B5FD4E
:1044300079887C783B7897F8682007F10C00019226
:10444000009323460A4628490CF04CF807F10C0368
:10445000184600F00BF9034687F8573097F85730A5
:10446000002B38D197F86C3041F288325A217868A5
:10447000FFF724FD034687F8563097F85630002B97
:1044800003D097F85630032B22D1184B1B681946DE
:104490007868FFF74FFD034687F8553097F8553099
:1044A000002B01D100231AE097F85530022B03D0DE
:1044B00097F85530032B01D1012310E097F85530C0
:1044C000052B0AD197F85630032B06D1032306E0BB
:1044D00097F8563003E0042301E000BF002318469C
:1044E0005C37BD4690BD00BF54190108040100208F
:1044F00080B59EB000AFF860B96011461A460B4611
:10450000FB711346BB7107F11003642200211846AA
:10451000FCF743FDFB7907F11000BA6827490BF05F
:10452000E1FF07F11003184600F0A0F8034687F8F2
:10453000773097F87730002B37D1BB7941F288324A
:10454000C821F868FFF7BAFC034687F8763097F879
:104550007630002B03D097F87630032B22D1184BFE
:104560001B681946F868FFF7E5FC034687F87530C5
:1045700097F87530002B01D100231AE097F87530B9
:10458000022B03D097F87530032B01D1012310E0E3
:1045900097F87530052B0AD197F87630032B06D1A2
:1045A000032306E097F8763003E0042301E000BF20
:1045B000002318467837BD4680BD00BF8419010826
:1045C0000401002090B585B000AF78600B46FB7009
:1045D000234800F04BF80346FB73FB7B002B36D1DE
:1045E000FB7841F28832C7217868FFF767FC034601
:1045F000BB73BB7B002B02D0BB7B032B25D1194B9C
:104600009B6A19467868FFF795FC03461C46164BD3
:104610001B6819467868FFF78DFC034623437B73BC
:104620007B7B002B01D1002315E07B7B022B02D08A
:104630007B7B032B01D101230DE07B7B052B08D174
:10464000BB7B032B05D1032305E0BB7B03E00423E5
:1046500001E000BF002318461437BD4690BD00BFDF
:10466000A4190108600000200401002080B584B076
:1046700000AF78607868FCF733FB03469AB24FF4DA
:1046800096737968044803F014F90346FB73FB7BC7
:1046900018461037BD4680BD8C05002080B483B01D
:1046A00000AF154B1B68DB6903F08003802B09D139
:1046B000114B1B68DB6903F02003202B02D0002381
:1046C000FB7112E00C4B1B68DB6903F08003802B4D
:1046D00002D00123FB7108E0074B1B68DB6903F084
:1046E0002003202B01D10223FB71FB7918460C37E4
:1046F000BD4680BC704700BF8C05002080B59EB0D1
:1047000000AFF860B96011461A460B46FB711346BC
:10471000BB7107F11003642200211846FCF73DFC31
:10472000FB7907F11000BA6827490BF0DBFE07F1AF
:1047300010031846FFF79AFF034687F8773097F87B
:104740007730002B37D1BB7941F28832C821F86825
:10475000FFF7B4FB034687F8763097F87630002BE6
:1047600003D097F87630032B22D1184B1B681946DB
:10477000F868FFF7DFFB034687F8753097F8753068
:10478000002B01D100231AE097F87530022B03D0DB
:1047900097F87530032B01D1012310E097F875309D
:1047A000052B0AD197F87630032B06D1032306E0B8
:1047B00097F8763003E0042301E000BF0023184699
:1047C0007837BD4680BD00BFB41901080401002040
:1047D00080B584B000AF78607868FCF781FA034652
:1047E0009AB24FF4FA737968044803F062F803460A
:1047F000FB73FB7B18461037BD4680BD8C0500203F
:1048000080B5BAB002AFF860B9603B601346FB8078
:10481000002387F8DF30002387F8DD30002387F896
:10482000DC30002387F8DB30B868FCF759FA034620
:10483000DBB2243387F8DA3007F11003C8220021F5
:104840001846FCF7AAFB8D4803F04AFA0CE197F8EA
:10485000DF30032B00F2088101A252F823F000BFE1
:1048600071480008A54800087D490008A3490008D0
:10487000F98897F8E83097F8EC2007F110000192DA
:1048800000930B46BA687E490BF02CFE07F110032B
:104890001846FFF79DFF034687F8DE30012387F8AF
:1048A000DF30E1E097F8DE30002B64D197F8DA30A2
:1048B00099B297F8F0304FF4FA72F868FFF7FEFA01
:1048C000034687F8D93097F8D930002B04D097F8F1
:1048D000D930032B40F0C5806A4B1B681946F86835
:1048E000FFF728FB034687F8D83097F8D830002B1D
:1048F00003D1022387F8DF30B3E097F8D830012BDB
:1049000010D197F8DC30013387F8DC3097F8DC30D1
:10491000032B03D8002387F8DF30A2E0022387F8B7
:10492000DF309EE097F8D830022B03D1022387F8BE
:10493000DF3096E097F8D830052B14D197F8D930AE
:10494000032B10D197F8DD30013387F8DD3097F86D
:10495000DD300A2B03D8012387F8DF300DE0022376
:1049600087F8DF3009E097F8D830042B79D100239D
:1049700087F8DF3075E004237CE072E097F8F030D0
:104980004FF47A724FF49671F868FFF797FA386827
:10499000FFF71EFF034687F8DE30032387F8DF307A
:1049A00062E097F8DE30002B59D197F8F0304FF4E1
:1049B0007A724FF4C871F868FFF780FA034687F8F7
:1049C000D93097F8D930002B03D097F8D930032B82
:1049D00049D12D4B1B681946F868FFF7ABFA03461F
:1049E00087F8D83097F8D830002B03D1042387F804
:1049F000DF3038E097F8D830012B11D197F8DB3051
:104A0000013387F8DB3097F8DB30032B03D803231F
:104A100087F8DF3027E0042387F8DF30022329E01E
:104A200097F8D830022B04D1042387F8DF30012314
:104A300020E097F8D830052B08D197F8D930032B10
:104A400004D1042387F8DF30032313E097F8D8302C
:104A5000042B08D1032387F8DF3005230AE0042361
:104A600008E000BF00E000BF97F8DF30042B7FF4C0
:104A7000EEAE00231846E037BD4680BD8C05002011
:104A8000281A0108040100201801002080B586B012
:104A900000AFF860B9601346FB71184B09221A7019
:104AA00023E00023FB75154B1B78092B1DD1FA79E8
:104AB0000023B968F868FFF721FE0346FB75FB7D0C
:104AC000002B04D10D4B10221A70002311E0FB7D46
:104AD000012B04D1094B09221A70012309E0FB7D47
:104AE000032B01D1032304E000BF044B1B78102BE0
:104AF000D7D118461837BD4680BD00BF0001002041
:104B000080B584B000AFF860B9601346FB80184BE5
:104B10001B681946B8680BF0BBFD0346002B06D096
:104B2000FB881A46B968F86800F02CF81BE0114BB6
:104B30001B681946B8680BF0ABFD0346002B06D086
:104B40000D4B01221A700D4B00221A700BE00C4B1A
:104B50001B681946B8680BF09BFD0346002B02D07A
:104B6000054B00221A7000BF1037BD4680BD00BF44
:104B70001001002020010020DF0C0020D80C0020B4
:104B80001C01002080B586B000AFF860B960134604
:104B9000FB800023FB82DAE0724B1B78082B00F2CB
:104BA000C88001A252F823F0CD4B0008ED4B00085D
:104BB000174C00083D4C0008514C0008874C000879
:104BC0009B4C0008DF4C0008134D0008FB8ABA68B4
:104BD00013441B782B2B40F0B08003220021624845
:104BE000FCF7DBF95F4B01221A70A6E0FB8ABA687A
:104BF00013441B784D2B07D1FB8ADAB25B4B1A703A
:104C0000584B02221A709FE0594B00221A70554BE4
:104C100000221A7098E0554B1B780433BA6813448D
:104C20001B78532B03D14F4B03221A708CE0504B4F
:104C300000221A704B4B00221A7085E0FB8ABA687A
:104C400013441B78222B7AD1464B04221A7076E04B
:104C5000FB8ABA6813441B78222B06D1444B0022EE
:104C60001A70404B05221A706EE0FB8ABA681A442B
:104C70003F4B1B78591CC8B23D4908701946127841
:104C8000FB685A5460E0FB8ABA6813441B782C2BEB
:104C900057D1344B06221A7053E0FB8ABA6813448A
:104CA0001B782C2B0DD1324B00221A70FB68643319
:104CB000032219462C4800F05DF82A4B07221A708F
:104CC00042E0FB8ABA681A44294B1B78591CC8B2C7
:104CD0002749087019461278234B5A5434E0FB8A4E
:104CE000BA6813441B780D2B03D11E4B08221A708F
:104CF0002AE0FB8ABA681A441D4B1B78591CC8B2BB
:104D00001B49087019461278FB680B4483F865202C
:104D10001AE0FB8ABA6813441B780A2B13D1134B91
:104D200000221A70124B00221A700E4B00221A70C9
:104D300009E00C4B00221A7006E000BF04E000BF3F
:104D400002E000BF00E000BFFB8A0133FB82FA8A69
:104D5000FB889A42FFF420AF00BF00BF1837BD4662
:104D600080BD00BFE10C0020E40C0020DD0C002021
:104D7000E70C002080B487B000AFF860B96013463C
:104D8000FB7107F1140300210A461A800A469A7043
:104D900007F1100300210A461A800A469A70002380
:104DA000FB7525E0FB7DFA681A44FB7D1278183309
:104DB0003B4403F8042CFB7D18333B4413F8043CBC
:104DC0002F2B12D9FB7D18333B4413F8043C392BAD
:104DD0000BD8FB7D18333B4413F8042CFB7D303A91
:104DE000D2B218333B4403F8082CFB7D0133FB752A
:104DF000FA7DFB799A42D5D3FB79032B16D0032B8E
:104E00002DDC012B02D0022B04D028E03A7CBB68B9
:104E10001A7024E03B7C1A46920013445B00DAB21D
:104E20007B7C1344DAB2BB681A7018E03B7C1A46EC
:104E3000920013441A4691001A460B4613449B00F5
:104E4000DAB27B7C194689000B445B00DBB2134469
:104E5000DAB2BB7C1344DAB2BB681A7000BF00BF81
:104E60001C37BD4680BC704780B500AF01220349A6
:104E7000034802F069FE00BF80BD00BF380D00206E
:104E80008C05002080B500AF01224FF40041074897
:104E900001F012FE4FF49670FDF7D6FD00224FF49C
:104EA0000041024801F008FE00BF80BD0004004838
:104EB00080B582B000AF0346FB71FB791A464FF410
:104EC0000051034801F0F8FD00BF0837BD4680BD22
:104ED0000004004880B485B000AF78604FF0B04364
:104EE0001A6E4FF0B0417B6813430B664FF0B0432E
:104EF0001A6E7B681340FB60FB6800BF1437BD4629
:104F000080BC704780B588B000AF07F11003002265
:104F10001A605A609A60DA603B1D00221A605A607B
:104F20009A60204B204A1A601E4B41F2BF225A6001
:104F30001C4B00229A601B4B42F20F72DA60194B35
:104F400000221A61174B00225A61164B00229A6107
:104F5000144806F057F90346002B01D0FDF706F977
:104F60004FF480533B6107F1100319460D4806F0DA
:104F70001BFA0346002B01D0FDF7F8F800237B60F5
:104F80000023BB600023FB603B1D1946054806F06B
:104F9000DBFB0346002B01D0FDF7E8F800BF20370C
:104FA000BD4680BDE80C0020002C014080B582B0D9
:104FB00000AF78607B681B68054A934203D14FF4C9
:104FC0000060FFF787FF00BF0837BD4680BD00BF08
:104FD000002C01400D48854600F025F80C480D498D
:104FE0000D4A002302E0D458C4500433C4188C4244
:104FF000F9D30A4A0A4C002301E013600432A242AA
:10500000FBD3FCF719F8FCF7E3FFFEE70080002074
:105010000000002048010020181E0108480100205F
:1050200020120020FEE780B400AF00BFBD4680BC68
:105030007047000080B400AF064B1B6803F4807318
:10504000B3F5807F01D1012300E000231846BD465F
:1050500080BC70470004005880B400AF4FF0B043EC
:105060001B684FF0B04243F40013136000BFBD460D
:1050700080BC704780B400AF4FF0B0431B684FF066
:10508000B04223F40013136000BFBD4680BC7047DC
:1050900080B400AF4FF0B0431B6803F48013B3F546
:1050A000801F01D1012300E000231846BD4680BCCB
:1050B000704780B400AF4FF0B0431B684FF0B04270
:1050C00043F48033136000BFBD4680BC704780B49A
:1050D00000AF4FF0B0431B684FF0B04223F4803371
:1050E000136000BFBD4680BC704780B400AF4FF076
:1050F000B0431B6803F40033B3F5003F01D1012333
:1051000000E000231846BD4680BC704780B400AF65
:105110004FF0B0431B684FF0B04243F4807313600C
:1051200000BFBD4680BC704780B400AF4FF0B043B5
:105130001B684FF0B04223F48073136000BFBD467C
:1051400080BC704780B400AF4FF0B0431B6803F4DD
:105150008063B3F5806F01D1012300E0002318467E
:10516000BD4680BC704780B483B000AF78604FF01C
:10517000B0435B6823F0FE427B681B064FF0B041F2
:1051800013434B6000BF0C37BD4680BC704780B4F2
:1051900000AF4FF0B043D3F8903003F00203022B7E
:1051A00001D1012300E000231846BD4680BC7047B2
:1051B00080B400AF4FF0B043D3F894304FF0B0421A
:1051C00043F00103C2F8943000BFBD4680BC704775
:1051D00080B400AF4FF0B043D3F894304FF0B042FA
:1051E00023F00103C2F8943000BFBD4680BC704775
:1051F00080B400AF4FF0B043D3F8943003F0020313
:10520000022B01D1012300E000231846BD4680BCDB
:10521000704780B400AF4FF0B0431B684FF0B0420E
:1052200043F00103136000BFBD4680BC704780B4EB
:1052300000AF4FF0B0431B684FF0B04223F00103C2
:10524000136000BFBD4680BC704780B400AF4FF014
:10525000B0431B6803F00203022B01D1012300E0DD
:1052600000231846BD4680BC704780B400AF4FF0A5
:10527000B0431B6803F00803082B01D1012300E0B1
:1052800000231846BD4680BC704780B400AF4FF085
:10529000B0431B6803F0F0031846BD4680BC70475E
:1052A00080B400AF4FF0B043D3F8943003F4706390
:1052B0001846BD4680BC704780B483B000AF7860AC
:1052C0004FF0B0435B6823F47F427B681B024FF0D2
:1052D000B04113434B6000BF0C37BD4680BC7047E4
:1052E00080B483B000AF78604FF0B0439B6823F088
:1052F00003024FF0B0417B6813438B6000BF0C3753
:10530000BD4680BC704780B400AF4FF0B0439B688F
:1053100003F00C031846BD4680BC704780B483B0D0
:1053200000AF78604FF0B0439B6823F0F0024FF07D
:10533000B0417B6813438B6000BF0C37BD4680BC17
:10534000704780B483B000AF78604FF0B043D3F8BB
:10535000083123F0F0024FF0B0417B681343C1F8ED
:10536000083100BF0C37BD4680BC704780B483B0A5
:1053700000AF78604FF0B043D3F8083123F00F024C
:105380007B681B094FF0B0411343C1F8083100BFDF
:105390000C37BD4680BC704780B483B000AF7860E6
:1053A0004FF0B0439B6823F4E0624FF0B0417B685C
:1053B00013438B6000BF0C37BD4680BC704780B480
:1053C00083B000AF78604FF0B0439B6823F4605225
:1053D0004FF0B0417B6813438B6000BF0C37BD4674
:1053E00080BC704780B400AF4FF0B0439B6803F0BF
:1053F000F0031846BD4680BC704780B400AF4FF044
:10540000B043D3F808311B0103F0F0031846BD4642
:1054100080BC704780B400AF4FF0B0439B6803F48A
:10542000E0631846BD4680BC704780B400AF4FF0C3
:10543000B0439B6803F460531846BD4680BC704778
:1054400080B400AF4FF0B0431B684FF0B04243F060
:105450008073136000BFBD4680BC704780B400AF4E
:105460004FF0B0431B684FF0B04223F080731360DD
:1054700000BFBD4680BC704780B400AF4FF0B04362
:105480001B6803F00073B3F1007F01D1012300E03A
:1054900000231846BD4680BC704780B400AF4FF073
:1054A000B043DB681B0A03F07F031846BD4680BC8F
:1054B000704780B400AF4FF0B043DB6803F0604347
:1054C0001846BD4680BC704780B400AF4FF0B04373
:1054D000DB6803F070031846BD4680BC704780B49B
:1054E00000AF4FF0B043DB6803F003031846BD463E
:1054F00080BC704780B400AF4FF0B0439B6803F4AA
:105500008033B3F5803F01D1012300E0002318462A
:10551000BD4680BC704780B400AF4FF0B043D3F8B5
:10552000083103F40033B3F5003F01D1012300E05B
:1055300000231846BD4680BC704780B400AF4FF0D2
:10554000B043D3F8083103F48033B3F5803F01D181
:10555000012300E000231846BD4680BC704780B49C
:1055600000AF4FF0B0439B6803F40033B3F5003F46
:1055700001D1012300E000231846BD4680BC7047DE
:1055800080B400AF4FF0B0439B6803F48023B3F5C1
:10559000802F01D1012300E000231846BD4680BCC6
:1055A0007047000080B588B000AF78607B68002B42
:1055B00001D101236FE3FFF7A6FEF861FFF78FFF2C
:1055C000B8617B681B6803F02003002B00F0C480E7
:1055D000FB69002B05D0FB690C2B76D1BB69012B35
:1055E00073D17B681B6A002B01D1012353E37B68D5
:1055F0009A6A4FF0B0431B6803F00803002B05D0F4
:105600004FF0B0431B6803F0F00306E04FF0B043E7
:10561000D3F894301B0903F0F003934222D27B6845
:105620009B6A184600F05AFD0346002B01D0012367
:1056300031E34FF0B0431B684FF0B04243F0080332
:1056400013604FF0B0431B6823F0F0027B689B6A45
:105650004FF0B04113430B607B685B6A1846FFF75D
:105660002BFE21E04FF0B0431B684FF0B04243F0F7
:10567000080313604FF0B0431B6823F0F0027B680F
:105680009B6A4FF0B04113430B607B685B6A18461E
:10569000FFF712FE7B689B6A184600F01FFD034669
:1056A000002B01D00123F6E200F0E0FC0346A74AFC
:1056B0001360A74B1B681846FDF7A8F90346FB7457
:1056C000FB7C002B47D0FB7CE5E27B681B6A002B50
:1056D0002CD0FFF79EFDFDF7A3F9786108E0FDF7F8
:1056E0009FF902467B69D31A022B01D90323D2E228
:1056F000FFF7ABFD0346002BF1D04FF0B0431B6822
:105700004FF0B04243F0080313604FF0B0431B6802
:1057100023F0F0027B689B6A4FF0B04113430B60AB
:105720007B685B6A1846FFF7C7FD15E0FFF77FFD52
:10573000FDF776F9786108E0FDF772F902467B69BA
:10574000D31A022B01D90323A5E2FFF77EFD0346FE
:10575000002BF1D100E000BF7B681B6803F0010360
:10576000002B58D0FB69082B05D0FB690C2B08D106
:10577000BB69032B05D17B685B68002B4BD10123F0
:1057800089E24FF0B0431B6823F480127B689B686A
:105790004FF0B04113430B607B685B68B3F5803F0B
:1057A00002D1FFF786FC0DE07B685B68B3F5041F50
:1057B00004D1FFF751FCFFF77CFC03E0FFF787FC07
:1057C000FFF758FC7B685B68002B12D0FDF728F9C7
:1057D000786108E0FDF724F902467B69D31A642B4F
:1057E00001D9032357E2FFF780FC0346002BF1D0D9
:1057F00011E0FDF715F9786108E0FDF711F90246AF
:105800007B69D31A642B01D9032344E2FFF76DFCB3
:105810000346002BF1D17B681B6803F00203002BC9
:1058200046D0FB69042B05D0FB690C2B0ED1BB695C
:10583000022B0BD17B681B69002B01D101232AE2CB
:105840007B685B691846FFF78EFC31E07B681B695B
:10585000002B19D0FFF75AFCFDF7E2F8786108E059
:10586000FDF7DEF802467B69D31A022B01D9032328
:1058700011E2FFF767FC0346002BF1D07B685B6900
:105880001846FFF770FC13E0FFF74EFCFDF7C8F871
:10589000786108E0FDF7C4F802467B69D31A022B51
:1058A00001D90323F7E1FFF74DFC0346002BF1D1AB
:1058B0007B681B6803F00803002B6ED07B689B6934
:1058C000002B56D04FF0B043D3F89430FB607B6888
:1058D000DA69FB6803F010039A4231D0FB6803F0E9
:1058E0000203002B06D0FB6803F00103002B01D15B
:1058F0000123D0E1FB6803F00103002B13D0FFF775
:1059000067FCFDF78DF8786108E0FDF789F802463D
:105910007B69D31A112B01D90323BCE1FFF768FC83
:105920000346002BF1D14FF0B043D3F8943023F06D
:1059300010027B68DB694FF0B0411343C1F894302B
:10594000FFF736FCFDF76CF878610CE028010020C9
:105950002C010020FDF764F802467B69D31A112B55
:1059600001D9032397E1FFF743FC0346002BF1D055
:1059700013E0FFF72DFCFDF753F8786108E0FDF721
:105980004FF802467B69D31A112B01D9032382E118
:10599000FFF72EFC0346002BF1D17B681B6803F058
:1059A0000403002B00F0D880FFF744FB0346002BD4
:1059B00013D101F0C9FCFDF733F8786108E0FDF779
:1059C0002FF802467B69D31A022B01D9032362E127
:1059D000FFF730FB0346002BF1D07B68DB68002B20
:1059E0007BD07B68DB68852B03D07B68DB68052B6D
:1059F00009D14FF0B043D3F890304FF0B04243F0AC
:105A00000403C2F89030FDF70BF878614FF0B04313
:105A1000D3F890304FF0B04243F00103C2F8903019
:105A20000AE0FCF7FDFF02467B69D31A41F2883297
:105A3000934201D903232EE1FFF7A9FB0346002B74
:105A4000EFD07B68DB68812B03D07B68DB68852B1C
:105A500021D1FCF7E5FF78614FF0B043D3F89030E7
:105A60004FF0B04243F08003C2F890300AE0FCF7F8
:105A7000D7FF02467B69D31A41F28832934201D99B
:105A8000032308E14FF0B043D3F8903003F40063F0
:105A9000002BECD060E0FCF7C3FF78614FF0B0431F
:105AA000D3F890304FF0B04223F08003C2F890302A
:105AB0000AE0FCF7B5FF02467B69D31A41F288324F
:105AC000934201D90323E6E04FF0B043D3F890307E
:105AD00003F40063002BECD13EE0FCF7A1FF7861FA
